{
  "contractName": "Banker",
  "abi": [
    {
      "constant": true,
      "inputs": [],
      "name": "owner",
      "outputs": [
        {
          "name": "",
          "type": "address"
        }
      ],
      "payable": false,
      "stateMutability": "view",
      "type": "function"
    },
    {
      "constant": true,
      "inputs": [
        {
          "name": "",
          "type": "address"
        }
      ],
      "name": "balance",
      "outputs": [
        {
          "name": "",
          "type": "uint256"
        }
      ],
      "payable": false,
      "stateMutability": "view",
      "type": "function"
    },
    {
      "inputs": [
        {
          "name": "private_key",
          "type": "address"
        }
      ],
      "payable": false,
      "stateMutability": "nonpayable",
      "type": "constructor"
    },
    {
      "constant": false,
      "inputs": [
        {
          "name": "to",
          "type": "address"
        }
      ],
      "name": "addBalance",
      "outputs": [],
      "payable": true,
      "stateMutability": "payable",
      "type": "function"
    },
    {
      "constant": false,
      "inputs": [
        {
          "name": "amount",
          "type": "uint256"
        },
        {
          "name": "_addr",
          "type": "bytes32[]"
        },
        {
          "name": "_type",
          "type": "uint256[]"
        },
        {
          "name": "_time",
          "type": "uint256[]"
        },
        {
          "name": "_index",
          "type": "uint8[]"
        },
        {
          "name": "_v",
          "type": "bytes1[]"
        },
        {
          "name": "_r",
          "type": "bytes32[]"
        },
        {
          "name": "_s",
          "type": "bytes32[]"
        }
      ],
      "name": "withdraw",
      "outputs": [],
      "payable": true,
      "stateMutability": "payable",
      "type": "function"
    },
    {
      "constant": false,
      "inputs": [],
      "name": "getInfor",
      "outputs": [
        {
          "name": "",
          "type": "uint256"
        }
      ],
      "payable": false,
      "stateMutability": "nonpayable",
      "type": "function"
    },
    {
      "constant": false,
      "inputs": [
        {
          "name": "counter",
          "type": "uint8"
        }
      ],
      "name": "moveBuffer",
      "outputs": [
        {
          "name": "",
          "type": "uint8"
        }
      ],
      "payable": false,
      "stateMutability": "nonpayable",
      "type": "function"
    }
  ],
  "bytecode": "0x60806040526040805190810160405280600681526020017f42616e6b65720000000000000000000000000000000000000000000000000000815250600990805190602001906200005192919062000196565b506000600b60006101000a81548160ff021916908360ff1602179055506008600b60026101000a81548160ff021916908360ff1602179055506000600b60036101000a81548160ff021916908360ff1602179055506007600b60046101000a81548160ff021916908360ff1602179055506000600b60056101000a81548160ff021916908360ff160217905550348015620000eb57600080fd5b5060405160208062002e2f83398101806040526200010d91908101906200025b565b33600860006101000a81548173ffffffffffffffffffffffffffffffffffffffff021916908373ffffffffffffffffffffffffffffffffffffffff16021790555080600b60066101000a81548173ffffffffffffffffffffffffffffffffffffffff021916908373ffffffffffffffffffffffffffffffffffffffff16021790555050620002a7565b828054600181600116156101000203166002900490600052602060002090601f016020900481019282601f10620001d957805160ff19168380011785556200020a565b828001600101855582156200020a579182015b8281111562000209578251825591602001919060010190620001ec565b5b5090506200021991906200021d565b5090565b6200024291905b808211156200023e57600081600090555060010162000224565b5090565b90565b600062000253825162000287565b905092915050565b6000602082840312156200026e57600080fd5b60006200027e8482850162000245565b91505092915050565b600073ffffffffffffffffffffffffffffffffffffffff82169050919050565b612b7880620002b76000396000f300608060405260043610610078576000357c0100000000000000000000000000000000000000000000000000000000900463ffffffff1680634e27e73f1461007d5780638da5cb5b14610099578063b5cef24a146100c4578063e3d670d7146100e0578063f2b677fe1461011d578063fc02a65514610148575b600080fd5b61009760048036036100929190810190612355565b610185565b005b3480156100a557600080fd5b506100ae611a53565b6040516100bb91906126be565b60405180910390f35b6100de60048036036100d991908101906122c2565b611a79565b005b3480156100ec57600080fd5b50610107600480360361010291908101906122c2565b611ac9565b6040516101149190612887565b60405180910390f35b34801561012957600080fd5b50610132611ae1565b60405161013f9190612887565b60405180910390f35b34801561015457600080fd5b5061016f600480360361016a91908101906124af565b611aeb565b60405161017c91906128a2565b60405180910390f35b61018d611fcc565b6000806000600d60006001815260200190815260200160002060206040519081016040529081600082018054600181600116156101000203166002900480601f01602080910402602001604051908101604052809291908181526020018280546001816001161561010002031660029004801561024b5780601f106102205761010080835404028352916020019161024b565b820191906000526020600020905b81548152906001019060200180831161022e57829003601f168201915b5050505050815250509350600092505b8a518310156102ab578a8381518110151561027257fe5b906020019060200201516000191661029161028c30611e87565b611f6e565b6000191614156102a0576102ab565b60018301925061025b565b8a51915088838151811015156102bd57fe5b906020019060200201514211156102d357611a45565b60038a848151811015156102e357fe5b906020019060200201511415610fcb5760006101006040519081016040529081600082018054600181600116156101000203166002900480601f01602080910402602001604051908101604052809291908181526020018280546001816001161561010002031660029004801561039b5780601f106103705761010080835404028352916020019161039b565b820191906000526020600020905b81548152906001019060200180831161037e57829003601f168201915b50505050508152602001600182018054600181600116156101000203166002900480601f01602080910402602001604051908101604052809291908181526020018280546001816001161561010002031660029004801561043d5780601f106104125761010080835404028352916020019161043d565b820191906000526020600020905b81548152906001019060200180831161042057829003601f168201915b50505050508152602001600282018054600181600116156101000203166002900480601f0160208091040260200160405190810160405280929190818152602001828054600181600116156101000203166002900480156104df5780601f106104b4576101008083540402835291602001916104df565b820191906000526020600020905b8154815290600101906020018083116104c257829003601f168201915b50505050508152602001600382018054600181600116156101000203166002900480601f0160208091040260200160405190810160405280929190818152602001828054600181600116156101000203166002900480156105815780601f1061055657610100808354040283529160200191610581565b820191906000526020600020905b81548152906001019060200180831161056457829003601f168201915b50505050508152602001600482018054600181600116156101000203166002900480601f0160208091040260200160405190810160405280929190818152602001828054600181600116156101000203166002900480156106235780601f106105f857610100808354040283529160200191610623565b820191906000526020600020905b81548152906001019060200180831161060657829003601f168201915b50505050508152602001600582018054600181600116156101000203166002900480601f0160208091040260200160405190810160405280929190818152602001828054600181600116156101000203166002900480156106c55780601f1061069a576101008083540402835291602001916106c5565b820191906000526020600020905b8154815290600101906020018083116106a857829003601f168201915b50505050508152602001600682018054600181600116156101000203166002900480601f0160208091040260200160405190810160405280929190818152602001828054600181600116156101000203166002900480156107675780601f1061073c57610100808354040283529160200191610767565b820191906000526020600020905b81548152906001019060200180831161074a57829003601f168201915b50505050508152602001600782018054600181600116156101000203166002900480601f0160208091040260200160405190810160405280929190818152602001828054600181600116156101000203166002900480156108095780601f106107de57610100808354040283529160200191610809565b820191906000526020600020905b8154815290600101906020018083116107ec57829003601f168201915b50505050508152505073__verify________________________________63062864db90918d8681518110151561083c57fe5b906020019060200201518d8781518110151561085457fe5b906020019060200201518d8881518110151561086c57fe5b906020019060200201518d8981518110151561088457fe5b90602001906020020151326000357fffffffff00000000000000000000000000000000000000000000000000000000166040518863ffffffff167c01000000000000000000000000000000000000000000000000000000000281526004016108f297969594939291906126d9565b60006040518083038186803b15801561090a57600080fd5b505af415801561091e573d6000803e3d6000fd5b505050506040513d6000823e3d601f19601f820116820180604052506109479190810190612314565b846000018190525060006101006040519081016040529081600082018054600181600116156101000203166002900480601f0160208091040260200160405190810160405280929190818152602001828054600181600116156101000203166002900480156109f75780601f106109cc576101008083540402835291602001916109f7565b820191906000526020600020905b8154815290600101906020018083116109da57829003601f168201915b50505050508152602001600182018054600181600116156101000203166002900480601f016020809104026020016040519081016040528092919081815260200182805460018160011615610100020316600290048015610a995780601f10610a6e57610100808354040283529160200191610a99565b820191906000526020600020905b815481529060010190602001808311610a7c57829003601f168201915b50505050508152602001600282018054600181600116156101000203166002900480601f016020809104026020016040519081016040528092919081815260200182805460018160011615610100020316600290048015610b3b5780601f10610b1057610100808354040283529160200191610b3b565b820191906000526020600020905b815481529060010190602001808311610b1e57829003601f168201915b50505050508152602001600382018054600181600116156101000203166002900480601f016020809104026020016040519081016040528092919081815260200182805460018160011615610100020316600290048015610bdd5780601f10610bb257610100808354040283529160200191610bdd565b820191906000526020600020905b815481529060010190602001808311610bc057829003601f168201915b50505050508152602001600482018054600181600116156101000203166002900480601f016020809104026020016040519081016040528092919081815260200182805460018160011615610100020316600290048015610c7f5780601f10610c5457610100808354040283529160200191610c7f565b820191906000526020600020905b815481529060010190602001808311610c6257829003601f168201915b50505050508152602001600582018054600181600116156101000203166002900480601f016020809104026020016040519081016040528092919081815260200182805460018160011615610100020316600290048015610d215780601f10610cf657610100808354040283529160200191610d21565b820191906000526020600020905b815481529060010190602001808311610d0457829003601f168201915b50505050508152602001600682018054600181600116156101000203166002900480601f016020809104026020016040519081016040528092919081815260200182805460018160011615610100020316600290048015610dc35780601f10610d9857610100808354040283529160200191610dc3565b820191906000526020600020905b815481529060010190602001808311610da657829003601f168201915b50505050508152602001600782018054600181600116156101000203166002900480601f016020809104026020016040519081016040528092919081815260200182805460018160011615610100020316600290048015610e655780601f10610e3a57610100808354040283529160200191610e65565b820191906000526020600020905b815481529060010190602001808311610e4857829003601f168201915b50505050508152505073__verify________________________________638b0cf78e909186600001518a87815181101515610e9d57fe5b906020019060200201518a88815181101515610eb557fe5b906020019060200201518a89815181101515610ecd57fe5b90602001906020020151600036600860006040518a63ffffffff167c0100000000000000000000000000000000000000000000000000000000028152600401610f1e999897969594939291906127f2565b60206040518083038186803b158015610f3657600080fd5b505af4158015610f4a573d6000803e3d6000fd5b505050506040513d601f19601f82011682018060405250610f6e91908101906122eb565b73ffffffffffffffffffffffffffffffffffffffff16600b60069054906101000a900473ffffffffffffffffffffffffffffffffffffffff1673ffffffffffffffffffffffffffffffffffffffff16141515610fc657fe5b6116be565b60006101006040519081016040529081600082018054600181600116156101000203166002900480601f0160208091040260200160405190810160405280929190818152602001828054600181600116156101000203166002900480156110735780601f1061104857610100808354040283529160200191611073565b820191906000526020600020905b81548152906001019060200180831161105657829003601f168201915b50505050508152602001600182018054600181600116156101000203166002900480601f0160208091040260200160405190810160405280929190818152602001828054600181600116156101000203166002900480156111155780601f106110ea57610100808354040283529160200191611115565b820191906000526020600020905b8154815290600101906020018083116110f857829003601f168201915b50505050508152602001600282018054600181600116156101000203166002900480601f0160208091040260200160405190810160405280929190818152602001828054600181600116156101000203166002900480156111b75780601f1061118c576101008083540402835291602001916111b7565b820191906000526020600020905b81548152906001019060200180831161119a57829003601f168201915b50505050508152602001600382018054600181600116156101000203166002900480601f0160208091040260200160405190810160405280929190818152602001828054600181600116156101000203166002900480156112595780601f1061122e57610100808354040283529160200191611259565b820191906000526020600020905b81548152906001019060200180831161123c57829003601f168201915b50505050508152602001600482018054600181600116156101000203166002900480601f0160208091040260200160405190810160405280929190818152602001828054600181600116156101000203166002900480156112fb5780601f106112d0576101008083540402835291602001916112fb565b820191906000526020600020905b8154815290600101906020018083116112de57829003601f168201915b50505050508152602001600582018054600181600116156101000203166002900480601f01602080910402602001604051908101604052809291908181526020018280546001816001161561010002031660029004801561139d5780601f106113725761010080835404028352916020019161139d565b820191906000526020600020905b81548152906001019060200180831161138057829003601f168201915b50505050508152602001600682018054600181600116156101000203166002900480601f01602080910402602001604051908101604052809291908181526020018280546001816001161561010002031660029004801561143f5780601f106114145761010080835404028352916020019161143f565b820191906000526020600020905b81548152906001019060200180831161142257829003601f168201915b50505050508152602001600782018054600181600116156101000203166002900480601f0160208091040260200160405190810160405280929190818152602001828054600181600116156101000203166002900480156114e15780601f106114b6576101008083540402835291602001916114e1565b820191906000526020600020905b8154815290600101906020018083116114c457829003601f168201915b50505050508152505073__verify________________________________6368e0954690918d8681518110151561151457fe5b906020019060200201518d8781518110151561152c57fe5b906020019060200201518d8881518110151561154457fe5b906020019060200201518d8981518110151561155c57fe5b906020019060200201518d8a81518110151561157457fe5b906020019060200201518d8b81518110151561158c57fe5b906020019060200201518d8c8151811015156115a457fe5b90602001906020020151326000357fffffffff00000000000000000000000000000000000000000000000000000000166040518b63ffffffff167c01000000000000000000000000000000000000000000000000000000000281526004016116159a9998979695949392919061274f565b60206040518083038186803b15801561162d57600080fd5b505af4158015611641573d6000803e3d6000fd5b505050506040513d601f19601f8201168201806040525061166591908101906122eb565b73ffffffffffffffffffffffffffffffffffffffff16600b60069054906101000a900473ffffffffffffffffffffffffffffffffffffffff1673ffffffffffffffffffffffffffffffffffffffff161415156116bd57fe5b5b600088848151811015156116ce57fe5b9060200190602002015160ff16141515611a3c57600b60059054906101000a900460ff1660ff16888481518110151561170357fe5b9060200190602002015160ff16101561171b57611a45565b600b60049054906101000a900460ff1660ff166001898581518110151561173e57fe5b906020019060200201510360ff1611156118cc576117756001898581518110151561176557fe5b9060200190602002015103611aeb565b905061180c81600a600960405180828054600181600116156101000203166002900480156117da5780601f106117b85761010080835404028352918201916117da565b820191906000526020600020905b8154815290600101906020018083116117c6575b5050915050908152602001604051809103902060009054906101000a900460ff1660ff16611f7c90919063ffffffff16565b600b60006101000a81548160ff021916908360ff160217905550600b60009054906101000a900460ff16600a600960405180828054600181600116156101000203166002900480156118955780601f10611873576101008083540402835291820191611895565b820191906000526020600020905b815481529060010190602001808311611881575b5050915050908152602001604051809103902060006101000a81548160ff021916908360ff1602179055508b600c81905550611a37565b61197b600189858151811015156118df57fe5b9060200190602002015103600a600960405180828054600181600116156101000203166002900480156119495780601f10611927576101008083540402835291820191611949565b820191906000526020600020905b815481529060010190602001808311611935575b5050915050908152602001604051809103902060009054906101000a900460ff1660ff16611f7c90919063ffffffff16565b600b60006101000a81548160ff021916908360ff160217905550600b60009054906101000a900460ff16600a60096040518082805460018160011615610100020316600290048015611a045780601f106119e2576101008083540402835291820191611a04565b820191906000526020600020905b8154815290600101906020018083116119f0575b5050915050908152602001604051809103902060006101000a81548160ff021916908360ff1602179055508b600c819055505b611a44565b8b600c819055505b5b505050505050505050505050565b600860009054906101000a900473ffffffffffffffffffffffffffffffffffffffff1681565b34600e60008373ffffffffffffffffffffffffffffffffffffffff1673ffffffffffffffffffffffffffffffffffffffff1681526020019081526020016000206000828254019250508190555050565b600e6020528060005260406000206000915090505481565b6000600c54905090565b600080600080600080600b60049054906101000a900460ff1687039450600b60039054906101000a900460ff16935060009250600091505b600b60029054906101000a900460ff1660ff168260ff161015611e7c576000611be6600b60039054906101000a900460ff16600a60096040518082805460018160011615610100020316600290048015611bb45780601f10611b92576101008083540402835291820191611bb4565b820191906000526020600020905b815481529060010190602001808311611ba0575b5050915050908152602001604051809103902060009054906101000a900460ff1660ff16611f9690919063ffffffff16565b60ff16148015611bff57508460ff166001840160ff1610155b15611ceb57600b60029054906101000a900460ff1660ff166001600b60039054906101000a900460ff160160ff16811515611c3657fe5b06600b60036101000a81548160ff021916908360ff160217905550600183600b60049054906101000a900460ff160101600b60046101000a81548160ff021916908360ff1602179055506001600b60029054906101000a900460ff16600b60049054906101000a900460ff160301600b60056101000a81548160ff021916908360ff160217905550600b60029054906101000a900460ff1660ff1660018587010360ff16811515611ce357fe5b069550611e7d565b611d8f600b60039054906101000a900460ff16600a60096040518082805460018160011615610100020316600290048015611d5d5780601f10611d3b576101008083540402835291820191611d5d565b820191906000526020600020905b815481529060010190602001808311611d49575b5050915050908152602001604051809103902060009054906101000a900460ff1660ff16611fb190919063ffffffff16565b905080600a60096040518082805460018160011615610100020316600290048015611df15780601f10611dcf576101008083540402835291820191611df1565b820191906000526020600020905b815481529060010190602001808311611ddd575b5050915050908152602001604051809103902060006101000a81548160ff021916908360ff160217905550600b60029054906101000a900460ff1660ff166001600b60039054906101000a900460ff160160ff16811515611e4e57fe5b06600b60036101000a81548160ff021916908360ff1602179055506001830192508180600101925050611b23565b5b5050505050919050565b6060600060146040519080825280601f01601f191660200182016040528015611ebf5781602001602082028038833980820191505090505b509150600090505b6014811015611f68578060130360080260020a8373ffffffffffffffffffffffffffffffffffffffff16811515611efa57fe5b047f0100000000000000000000000000000000000000000000000000000000000000028282815181101515611f2b57fe5b9060200101907effffffffffffffffffffffffffffffffffffffffffffffffffffffffffffff1916908160001a9053508080600101915050611ec7565b50919050565b600060208201519050919050565b60008160ff16600160ff169060020a028317905092915050565b600060018260ff168460ff169060020a900416905092915050565b60008160ff16600160ff169060020a02198316905092915050565b602060405190810160405280606081525090565b6000611fec8235612a5a565b905092915050565b60006120008251612a5a565b905092915050565b600082601f830112151561201b57600080fd5b813561202e612029826128ea565b6128bd565b9150818183526020840193506020810190508385602084028201111561205357600080fd5b60005b838110156120835781612069888261221c565b845260208401935060208301925050600181019050612056565b5050505092915050565b600082601f83011215156120a057600080fd5b81356120b36120ae82612912565b6128bd565b915081818352602084019350602081019050838560208402820111156120d857600080fd5b60005b8381101561210857816120ee8882612230565b8452602084019350602083019250506001810190506120db565b5050505092915050565b600082601f830112151561212557600080fd5b81356121386121338261293a565b6128bd565b9150818183526020840193506020810190508385602084028201111561215d57600080fd5b60005b8381101561218d5781612173888261229a565b845260208401935060208301925050600181019050612160565b5050505092915050565b600082601f83011215156121aa57600080fd5b81356121bd6121b882612962565b6128bd565b915081818352602084019350602081019050838560208402820111156121e257600080fd5b60005b8381101561221257816121f888826122ae565b8452602084019350602083019250506001810190506121e5565b5050505092915050565b60006122288235612a7a565b905092915050565b600061223c8235612aa6565b905092915050565b600082601f830112151561225757600080fd5b815161226a6122658261298a565b6128bd565b9150808252602083016020830185838301111561228657600080fd5b612291838284612afa565b50505092915050565b60006122a68235612ab0565b905092915050565b60006122ba8235612aba565b905092915050565b6000602082840312156122d457600080fd5b60006122e284828501611fe0565b91505092915050565b6000602082840312156122fd57600080fd5b600061230b84828501611ff4565b91505092915050565b60006020828403121561232657600080fd5b600082015167ffffffffffffffff81111561234057600080fd5b61234c84828501612244565b91505092915050565b600080600080600080600080610100898b03121561237257600080fd5b60006123808b828c0161229a565b985050602089013567ffffffffffffffff81111561239d57600080fd5b6123a98b828c0161208d565b975050604089013567ffffffffffffffff8111156123c657600080fd5b6123d28b828c01612112565b965050606089013567ffffffffffffffff8111156123ef57600080fd5b6123fb8b828c01612112565b955050608089013567ffffffffffffffff81111561241857600080fd5b6124248b828c01612197565b94505060a089013567ffffffffffffffff81111561244157600080fd5b61244d8b828c01612008565b93505060c089013567ffffffffffffffff81111561246a57600080fd5b6124768b828c0161208d565b92505060e089013567ffffffffffffffff81111561249357600080fd5b61249f8b828c0161208d565b9150509295985092959890939650565b6000602082840312156124c157600080fd5b60006124cf848285016122ae565b91505092915050565b6124e1816129c1565b82525050565b6124f0816129c1565b82525050565b6124ff816129e1565b82525050565b61250e81612a0d565b82525050565b61251d81612a17565b82525050565b6000828452602084019350612539838584612aeb565b61254283612b2d565b840190509392505050565b61255681612ac7565b82525050565b61256581612ad9565b82525050565b6000612576826129b6565b80845261258a816020860160208601612afa565b61259381612b2d565b602085010191505092915050565b60006101008301600083015184820360008601526125bf828261256b565b915050602083015184820360208601526125d9828261256b565b915050604083015184820360408601526125f3828261256b565b9150506060830151848203606086015261260d828261256b565b91505060808301518482036080860152612627828261256b565b91505060a083015184820360a0860152612641828261256b565b91505060c083015184820360c086015261265b828261256b565b91505060e083015184820360e0860152612675828261256b565b9150508091505092915050565b61268b81612a43565b82525050565b61269a81612a43565b82525050565b6126a981612a4d565b82525050565b6126b881612a4d565b82525050565b60006020820190506126d360008301846124d8565b92915050565b600060e08201905081810360008301526126f3818a6125a1565b90506127026020830189612505565b61270f6040830188612691565b61271c6060830187612691565b61272960808301866126af565b61273660a08301856124e7565b61274360c0830184612514565b98975050505050505050565b600061014082019050818103600083015261276a818d6125a1565b9050612779602083018c612505565b612786604083018b612691565b612793606083018a612691565b6127a060808301896126af565b6127ad60a08301886124f6565b6127ba60c0830187612505565b6127c760e0830186612505565b6127d56101008301856124e7565b6127e3610120830184612514565b9b9a5050505050505050505050565b600061010082019050818103600083015261280d818c6125a1565b90508181036020830152612821818b61256b565b9050612830604083018a6124f6565b61283d6060830189612505565b61284a6080830188612505565b81810360a083015261285d818688612523565b905061286c60c083018561255c565b61287960e083018461254d565b9a9950505050505050505050565b600060208201905061289c6000830184612682565b92915050565b60006020820190506128b760008301846126a0565b92915050565b6000604051905081810181811067ffffffffffffffff821117156128e057600080fd5b8060405250919050565b600067ffffffffffffffff82111561290157600080fd5b602082029050602081019050919050565b600067ffffffffffffffff82111561292957600080fd5b602082029050602081019050919050565b600067ffffffffffffffff82111561295157600080fd5b602082029050602081019050919050565b600067ffffffffffffffff82111561297957600080fd5b602082029050602081019050919050565b600067ffffffffffffffff8211156129a157600080fd5b601f19601f8301169050602081019050919050565b600081519050919050565b600073ffffffffffffffffffffffffffffffffffffffff82169050919050565b60007fff0000000000000000000000000000000000000000000000000000000000000082169050919050565b6000819050919050565b60007fffffffff0000000000000000000000000000000000000000000000000000000082169050919050565b6000819050919050565b600060ff82169050919050565b600073ffffffffffffffffffffffffffffffffffffffff82169050919050565b60007fff0000000000000000000000000000000000000000000000000000000000000082169050919050565b6000819050919050565b6000819050919050565b600060ff82169050919050565b6000612ad282612a43565b9050919050565b6000612ae482612a43565b9050919050565b82818337600083830152505050565b60005b83811015612b18578082015181840152602081019050612afd565b83811115612b27576000848401525b50505050565b6000601f19601f83011690509190505600a265627a7a7230582078d6258b08cb182b3b88a23d9eb8211e318f3d06d3e9c180e72510c9d7ba4e096c6578706572696d656e74616cf50037",
  "source": "pragma solidity ^0.4.24;\nimport {Bits} from \"./imported/Bits.sol\";\nimport \"./imported/strings.sol\";\nimport \"./imported/verify.sol\";\npragma experimental \"ABIEncoderV2\";\n\n\ncontract Banker{\n\n    verify.Data data;\n    using strings for *;\n    using verify for verify.Data;\n    address public owner;\n    using Bits for uint8;\n    string name = \"Banker\";\n    mapping (string => uint8) bit_map;\n    uint8 recursive_map = 0;\n    uint8 ticket_counter;\n    uint8 fixed_size = 8;\n    uint8 index = 0; \n    uint8 end = 7;\n    uint8 start = 0;\n    address verify_public_key;\n    uint val;\n    struct MID {\n        string  mid;\n    }\n    mapping(uint => MID) mid_mapping;\n    function Banker(address private_key) public {\n        owner = msg.sender;\n        verify_public_key = private_key;\n    }\n\n    mapping (address => uint) public balance;\n    \n    function addBalance(address to) payable {\n        balance[to] += msg.value;\n    }\n\n   function withdraw(uint amount, bytes32[] _addr, uint[] _type, uint[] _time, uint8[] _index, byte[] _v, bytes32[] _r, bytes32[] _s) payable {\n        MID memory u = mid_mapping[1];\n        uint belong_index = 0;\n        while (belong_index < _addr.length ){\n            if (bytesToBytes32(toBytes(address(this))) == _addr[belong_index]){\n                break;\n            }\n            belong_index += 1;\n        }\n        uint token_num = _addr.length;\n        if (block.timestamp > _time[belong_index]) \n            return;\n        if(_type[belong_index] == 3){\n            u.mid = data.middle1(_addr[belong_index], _type[belong_index], _time[belong_index], _index[belong_index], tx.origin, msg.sig);\n            assert(verify_public_key == data.middle2(u.mid, _v[belong_index],  _r[belong_index], _s[belong_index], msg.data, 8, 0));\n        }else{\n            assert(verify_public_key == data.Verify(_addr[belong_index], _type[belong_index], _time[belong_index], _index[belong_index],  _v[belong_index],  _r[belong_index], _s[belong_index], tx.origin, msg.sig));\n        }\n        if (_index[belong_index] != 0){\n            if(_index[belong_index] < start)\n                return;\n            if (_index[belong_index]-1 >  end){\n                uint8 new_counter_single = moveBuffer(_index[belong_index]-1);\n                recursive_map = bit_map[name].setBit(new_counter_single);  \n                bit_map[name] = recursive_map;\n                val = amount;\n            }else{\n                recursive_map = bit_map[name].setBit(_index[belong_index]-1);  \n                bit_map[name] = recursive_map;\n                val = amount;\n            }\n        }else {\n            val = amount;\n        }\n   }\n\n    function getInfor() public returns (uint){\n       return (val);\n   }\n\n    function bytesToBytes32(bytes memory source) private pure returns (bytes32 result) {\n        assembly { \n            //mload(p) -->  mem[p..(p+32)) \n            result := mload(add(source, 32))\n        }\n    }\n\n    function toBytes(address x) private returns (bytes b) {\n        b = new bytes(20);\n        for (uint i = 0; i < 20; i++)\n            b[i] = byte(uint8(uint(x) / (2**(8*(19 - i)))));\n    }\n\n    function moveBuffer(uint8 counter) public returns(uint8){\n        uint8 minimal_size = counter - end;\n        uint8 old_index = index;\n        uint8 move_time = 0;\n\n        // move_time = 0;\n        for (uint8 i=0; i<fixed_size; i++){\n            if (bit_map[name].bit(index) == 0 && (move_time + 1) >= minimal_size){\n                index = (index + 1) % fixed_size;\n                end = end + move_time + 1;\n                start = end - fixed_size + 1;\n                // move = move_time;\n                return (minimal_size + old_index - 1) % fixed_size;\n            }else{\n                uint8 new_bit = bit_map[name].clearBit(index);\n                bit_map[name] = new_bit;\n                index = (index + 1) % fixed_size;\n                move_time += 1;\n            }\n        }\n\n    }\n}\n\n\n",
  "sourcePath": "/Users/liubowen/sutd/SCticket/code/contracts/Banker.sol",
  "compiler": {
    "name": "solc",
    "version": "0.4.25+commit.59dbf8f1.Emscripten.clang"
  },
  "schemaVersion": "2.0.2",
  "updatedAt": "2020-11-17T03:42:55.059Z"
}