{
  "contractName": "Client",
  "abi": [
    {
      "constant": true,
      "inputs": [],
      "name": "hyd",
      "outputs": [
        {
          "name": "",
          "type": "address"
        }
      ],
      "payable": false,
      "stateMutability": "view",
      "type": "function"
    },
    {
      "inputs": [
        {
          "name": "addr",
          "type": "address"
        }
      ],
      "payable": false,
      "stateMutability": "nonpayable",
      "type": "constructor"
    },
    {
      "constant": false,
      "inputs": [
        {
          "name": "amount",
          "type": "uint256"
        }
      ],
      "name": "setValue",
      "outputs": [],
      "payable": false,
      "stateMutability": "nonpayable",
      "type": "function"
    }
  ],
  "bytecode": "0x608060405234801561001057600080fd5b506040516020806102958339810180604052810190808051906020019092919050505033600160006101000a81548173ffffffffffffffffffffffffffffffffffffffff021916908373ffffffffffffffffffffffffffffffffffffffff160217905550806000806101000a81548173ffffffffffffffffffffffffffffffffffffffff021916908373ffffffffffffffffffffffffffffffffffffffff160217905550506101d1806100c46000396000f30060806040526004361061004c576000357c0100000000000000000000000000000000000000000000000000000000900463ffffffff16806340d0e1fd1461005157806355241077146100a8575b600080fd5b34801561005d57600080fd5b506100666100d5565b604051808273ffffffffffffffffffffffffffffffffffffffff1673ffffffffffffffffffffffffffffffffffffffff16815260200191505060405180910390f35b3480156100b457600080fd5b506100d3600480360381019080803590602001909291905050506100fa565b005b6000809054906101000a900473ffffffffffffffffffffffffffffffffffffffff1681565b6000809054906101000a900473ffffffffffffffffffffffffffffffffffffffff1673ffffffffffffffffffffffffffffffffffffffff166355241077826040518263ffffffff167c010000000000000000000000000000000000000000000000000000000002815260040180828152602001915050600060405180830381600087803b15801561018a57600080fd5b505af115801561019e573d6000803e3d6000fd5b50505050505600a165627a7a723058201a24eb94e2f61cb773de4031a826ba1560661e79c9ae521f6b7a02868186f8c90029",
  "source": "pragma solidity ^0.4.2;\n\ncontract hydra {\n    address public owner;\n    uint public last_completed_migration;\n    uint a = 10;\n\n    function hydra() public {\n        owner = msg.sender;\n    }\n\n    modifier restricted() {\n        if (msg.sender == owner) _;\n    }\n\n    function setCompleted(uint completed) public restricted {\n        last_completed_migration = completed;\n    }\n\n    // function upgrade(address new_address) public restricted {\n    //     hydra upgraded = hydra(new_address);\n    //     upgraded.setCompleted(last_completed_migration);\n    // }\n\n    function setValue(uint val) public {\n        a = val;\n    }\n\n    function getValue() public returns(uint){\n        return a;\n    }\n}\n\n\ncontract Client {\n  hydra public hyd;\n  address owner;\n\n  function Client(hydra addr){ \n    owner = msg.sender;\n    hyd = addr;\n  }\n\n  function setValue(uint amount) {\n      hyd.setValue(amount);\n  }\n}",
  "sourcePath": "/Users/liubowen/sutd/SCticket/code/contracts/hydra.sol",
  "compiler": {
    "name": "solc",
    "version": "0.4.25+commit.59dbf8f1.Emscripten.clang"
  },
  "schemaVersion": "2.0.2",
  "updatedAt": "2020-11-17T03:42:54.935Z"
}