{
  "contractName": "hydraSmacs",
  "abi": [
    {
      "constant": true,
      "inputs": [],
      "name": "last_completed_migration",
      "outputs": [
        {
          "name": "",
          "type": "uint256"
        }
      ],
      "payable": false,
      "stateMutability": "view",
      "type": "function"
    },
    {
      "constant": true,
      "inputs": [],
      "name": "owner",
      "outputs": [
        {
          "name": "",
          "type": "address"
        }
      ],
      "payable": false,
      "stateMutability": "view",
      "type": "function"
    },
    {
      "inputs": [
        {
          "name": "private_key",
          "type": "address"
        }
      ],
      "payable": false,
      "stateMutability": "nonpayable",
      "type": "constructor"
    },
    {
      "constant": false,
      "inputs": [
        {
          "name": "completed",
          "type": "uint256"
        }
      ],
      "name": "setCompleted",
      "outputs": [],
      "payable": false,
      "stateMutability": "nonpayable",
      "type": "function"
    },
    {
      "constant": false,
      "inputs": [
        {
          "name": "value",
          "type": "uint256"
        },
        {
          "name": "_addr",
          "type": "bytes32[]"
        },
        {
          "name": "_type",
          "type": "uint256[]"
        },
        {
          "name": "_time",
          "type": "uint256[]"
        },
        {
          "name": "_index",
          "type": "uint8[]"
        },
        {
          "name": "_v",
          "type": "bytes1[]"
        },
        {
          "name": "_r",
          "type": "bytes32[]"
        },
        {
          "name": "_s",
          "type": "bytes32[]"
        }
      ],
      "name": "setValue",
      "outputs": [],
      "payable": false,
      "stateMutability": "nonpayable",
      "type": "function"
    },
    {
      "constant": false,
      "inputs": [],
      "name": "getValue",
      "outputs": [
        {
          "name": "",
          "type": "uint256"
        }
      ],
      "payable": false,
      "stateMutability": "nonpayable",
      "type": "function"
    },
    {
      "constant": false,
      "inputs": [
        {
          "name": "counter",
          "type": "uint8"
        }
      ],
      "name": "moveBuffer",
      "outputs": [
        {
          "name": "",
          "type": "uint8"
        }
      ],
      "payable": false,
      "stateMutability": "nonpayable",
      "type": "function"
    }
  ],
  "bytecode": "0x60806040526040805190810160405280600a81526020017f6879647261536d6163730000000000000000000000000000000000000000000081525060099080519060200190620000519291906200019b565b506000600b60006101000a81548160ff021916908360ff1602179055506008600b60026101000a81548160ff021916908360ff1602179055506000600b60036101000a81548160ff021916908360ff1602179055506007600b60046101000a81548160ff021916908360ff1602179055506000600b60056101000a81548160ff021916908360ff160217905550600a600d55348015620000f057600080fd5b5060405160208062002e27833981018060405262000112919081019062000260565b33600860006101000a81548173ffffffffffffffffffffffffffffffffffffffff021916908373ffffffffffffffffffffffffffffffffffffffff16021790555080600b60066101000a81548173ffffffffffffffffffffffffffffffffffffffff021916908373ffffffffffffffffffffffffffffffffffffffff16021790555050620002ac565b828054600181600116156101000203166002900490600052602060002090601f016020900481019282601f10620001de57805160ff19168380011785556200020f565b828001600101855582156200020f579182015b828111156200020e578251825591602001919060010190620001f1565b5b5090506200021e919062000222565b5090565b6200024791905b808211156200024357600081600090555060010162000229565b5090565b90565b60006200025882516200028c565b905092915050565b6000602082840312156200027357600080fd5b600062000283848285016200024a565b91505092915050565b600073ffffffffffffffffffffffffffffffffffffffff82169050919050565b612b6b80620002bc6000396000f300608060405260043610610078576000357c0100000000000000000000000000000000000000000000000000000000900463ffffffff168063209652551461007d5780633c225081146100a8578063445df0ac146100d15780638da5cb5b146100fc578063fc02a65514610127578063fdacd57614610164575b600080fd5b34801561008957600080fd5b5061009261018d565b60405161009f919061287a565b60405180910390f35b3480156100b457600080fd5b506100cf60048036036100ca9190810190612348565b610197565b005b3480156100dd57600080fd5b506100e6611a65565b6040516100f3919061287a565b60405180910390f35b34801561010857600080fd5b50610111611a6b565b60405161011e91906126b1565b60405180910390f35b34801561013357600080fd5b5061014e600480360361014991908101906124a2565b611a91565b60405161015b9190612895565b60405180910390f35b34801561017057600080fd5b5061018b6004803603610186919081019061231f565b611e2d565b005b6000600d54905090565b61019f611fd3565b6000806000600e60006001815260200190815260200160002060206040519081016040529081600082018054600181600116156101000203166002900480601f01602080910402602001604051908101604052809291908181526020018280546001816001161561010002031660029004801561025d5780601f106102325761010080835404028352916020019161025d565b820191906000526020600020905b81548152906001019060200180831161024057829003601f168201915b5050505050815250509350600092505b8a518310156102bd578a8381518110151561028457fe5b90602001906020020151600019166102a361029e30611e8e565b611f75565b6000191614156102b2576102bd565b60018301925061026d565b8a51915088838151811015156102cf57fe5b906020019060200201514211156102e557611a57565b60038a848151811015156102f557fe5b906020019060200201511415610fdd5760006101006040519081016040529081600082018054600181600116156101000203166002900480601f0160208091040260200160405190810160405280929190818152602001828054600181600116156101000203166002900480156103ad5780601f10610382576101008083540402835291602001916103ad565b820191906000526020600020905b81548152906001019060200180831161039057829003601f168201915b50505050508152602001600182018054600181600116156101000203166002900480601f01602080910402602001604051908101604052809291908181526020018280546001816001161561010002031660029004801561044f5780601f106104245761010080835404028352916020019161044f565b820191906000526020600020905b81548152906001019060200180831161043257829003601f168201915b50505050508152602001600282018054600181600116156101000203166002900480601f0160208091040260200160405190810160405280929190818152602001828054600181600116156101000203166002900480156104f15780601f106104c6576101008083540402835291602001916104f1565b820191906000526020600020905b8154815290600101906020018083116104d457829003601f168201915b50505050508152602001600382018054600181600116156101000203166002900480601f0160208091040260200160405190810160405280929190818152602001828054600181600116156101000203166002900480156105935780601f1061056857610100808354040283529160200191610593565b820191906000526020600020905b81548152906001019060200180831161057657829003601f168201915b50505050508152602001600482018054600181600116156101000203166002900480601f0160208091040260200160405190810160405280929190818152602001828054600181600116156101000203166002900480156106355780601f1061060a57610100808354040283529160200191610635565b820191906000526020600020905b81548152906001019060200180831161061857829003601f168201915b50505050508152602001600582018054600181600116156101000203166002900480601f0160208091040260200160405190810160405280929190818152602001828054600181600116156101000203166002900480156106d75780601f106106ac576101008083540402835291602001916106d7565b820191906000526020600020905b8154815290600101906020018083116106ba57829003601f168201915b50505050508152602001600682018054600181600116156101000203166002900480601f0160208091040260200160405190810160405280929190818152602001828054600181600116156101000203166002900480156107795780601f1061074e57610100808354040283529160200191610779565b820191906000526020600020905b81548152906001019060200180831161075c57829003601f168201915b50505050508152602001600782018054600181600116156101000203166002900480601f01602080910402602001604051908101604052809291908181526020018280546001816001161561010002031660029004801561081b5780601f106107f05761010080835404028352916020019161081b565b820191906000526020600020905b8154815290600101906020018083116107fe57829003601f168201915b50505050508152505073__verify________________________________63062864db90918d8681518110151561084e57fe5b906020019060200201518d8781518110151561086657fe5b906020019060200201518d8881518110151561087e57fe5b906020019060200201518d8981518110151561089657fe5b90602001906020020151326000357fffffffff00000000000000000000000000000000000000000000000000000000166040518863ffffffff167c010000000000000000000000000000000000000000000000000000000002815260040161090497969594939291906126cc565b60006040518083038186803b15801561091c57600080fd5b505af4158015610930573d6000803e3d6000fd5b505050506040513d6000823e3d601f19601f8201168201806040525061095991908101906122de565b846000018190525060006101006040519081016040529081600082018054600181600116156101000203166002900480601f016020809104026020016040519081016040528092919081815260200182805460018160011615610100020316600290048015610a095780601f106109de57610100808354040283529160200191610a09565b820191906000526020600020905b8154815290600101906020018083116109ec57829003601f168201915b50505050508152602001600182018054600181600116156101000203166002900480601f016020809104026020016040519081016040528092919081815260200182805460018160011615610100020316600290048015610aab5780601f10610a8057610100808354040283529160200191610aab565b820191906000526020600020905b815481529060010190602001808311610a8e57829003601f168201915b50505050508152602001600282018054600181600116156101000203166002900480601f016020809104026020016040519081016040528092919081815260200182805460018160011615610100020316600290048015610b4d5780601f10610b2257610100808354040283529160200191610b4d565b820191906000526020600020905b815481529060010190602001808311610b3057829003601f168201915b50505050508152602001600382018054600181600116156101000203166002900480601f016020809104026020016040519081016040528092919081815260200182805460018160011615610100020316600290048015610bef5780601f10610bc457610100808354040283529160200191610bef565b820191906000526020600020905b815481529060010190602001808311610bd257829003601f168201915b50505050508152602001600482018054600181600116156101000203166002900480601f016020809104026020016040519081016040528092919081815260200182805460018160011615610100020316600290048015610c915780601f10610c6657610100808354040283529160200191610c91565b820191906000526020600020905b815481529060010190602001808311610c7457829003601f168201915b50505050508152602001600582018054600181600116156101000203166002900480601f016020809104026020016040519081016040528092919081815260200182805460018160011615610100020316600290048015610d335780601f10610d0857610100808354040283529160200191610d33565b820191906000526020600020905b815481529060010190602001808311610d1657829003601f168201915b50505050508152602001600682018054600181600116156101000203166002900480601f016020809104026020016040519081016040528092919081815260200182805460018160011615610100020316600290048015610dd55780601f10610daa57610100808354040283529160200191610dd5565b820191906000526020600020905b815481529060010190602001808311610db857829003601f168201915b50505050508152602001600782018054600181600116156101000203166002900480601f016020809104026020016040519081016040528092919081815260200182805460018160011615610100020316600290048015610e775780601f10610e4c57610100808354040283529160200191610e77565b820191906000526020600020905b815481529060010190602001808311610e5a57829003601f168201915b50505050508152505073__verify________________________________638b0cf78e909186600001518a87815181101515610eaf57fe5b906020019060200201518a88815181101515610ec757fe5b906020019060200201518a89815181101515610edf57fe5b90602001906020020151600036600860006040518a63ffffffff167c0100000000000000000000000000000000000000000000000000000000028152600401610f30999897969594939291906127e5565b60206040518083038186803b158015610f4857600080fd5b505af4158015610f5c573d6000803e3d6000fd5b505050506040513d601f19601f82011682018060405250610f8091908101906122b5565b73ffffffffffffffffffffffffffffffffffffffff16600b60069054906101000a900473ffffffffffffffffffffffffffffffffffffffff1673ffffffffffffffffffffffffffffffffffffffff16141515610fd857fe5b6116d0565b60006101006040519081016040529081600082018054600181600116156101000203166002900480601f0160208091040260200160405190810160405280929190818152602001828054600181600116156101000203166002900480156110855780601f1061105a57610100808354040283529160200191611085565b820191906000526020600020905b81548152906001019060200180831161106857829003601f168201915b50505050508152602001600182018054600181600116156101000203166002900480601f0160208091040260200160405190810160405280929190818152602001828054600181600116156101000203166002900480156111275780601f106110fc57610100808354040283529160200191611127565b820191906000526020600020905b81548152906001019060200180831161110a57829003601f168201915b50505050508152602001600282018054600181600116156101000203166002900480601f0160208091040260200160405190810160405280929190818152602001828054600181600116156101000203166002900480156111c95780601f1061119e576101008083540402835291602001916111c9565b820191906000526020600020905b8154815290600101906020018083116111ac57829003601f168201915b50505050508152602001600382018054600181600116156101000203166002900480601f01602080910402602001604051908101604052809291908181526020018280546001816001161561010002031660029004801561126b5780601f106112405761010080835404028352916020019161126b565b820191906000526020600020905b81548152906001019060200180831161124e57829003601f168201915b50505050508152602001600482018054600181600116156101000203166002900480601f01602080910402602001604051908101604052809291908181526020018280546001816001161561010002031660029004801561130d5780601f106112e25761010080835404028352916020019161130d565b820191906000526020600020905b8154815290600101906020018083116112f057829003601f168201915b50505050508152602001600582018054600181600116156101000203166002900480601f0160208091040260200160405190810160405280929190818152602001828054600181600116156101000203166002900480156113af5780601f10611384576101008083540402835291602001916113af565b820191906000526020600020905b81548152906001019060200180831161139257829003601f168201915b50505050508152602001600682018054600181600116156101000203166002900480601f0160208091040260200160405190810160405280929190818152602001828054600181600116156101000203166002900480156114515780601f1061142657610100808354040283529160200191611451565b820191906000526020600020905b81548152906001019060200180831161143457829003601f168201915b50505050508152602001600782018054600181600116156101000203166002900480601f0160208091040260200160405190810160405280929190818152602001828054600181600116156101000203166002900480156114f35780601f106114c8576101008083540402835291602001916114f3565b820191906000526020600020905b8154815290600101906020018083116114d657829003601f168201915b50505050508152505073__verify________________________________6368e0954690918d8681518110151561152657fe5b906020019060200201518d8781518110151561153e57fe5b906020019060200201518d8881518110151561155657fe5b906020019060200201518d8981518110151561156e57fe5b906020019060200201518d8a81518110151561158657fe5b906020019060200201518d8b81518110151561159e57fe5b906020019060200201518d8c8151811015156115b657fe5b90602001906020020151326000357fffffffff00000000000000000000000000000000000000000000000000000000166040518b63ffffffff167c01000000000000000000000000000000000000000000000000000000000281526004016116279a99989796959493929190612742565b60206040518083038186803b15801561163f57600080fd5b505af4158015611653573d6000803e3d6000fd5b505050506040513d601f19601f8201168201806040525061167791908101906122b5565b73ffffffffffffffffffffffffffffffffffffffff16600b60069054906101000a900473ffffffffffffffffffffffffffffffffffffffff1673ffffffffffffffffffffffffffffffffffffffff161415156116cf57fe5b5b600088848151811015156116e057fe5b9060200190602002015160ff16141515611a4e57600b60059054906101000a900460ff1660ff16888481518110151561171557fe5b9060200190602002015160ff16101561172d57611a57565b600b60049054906101000a900460ff1660ff166001898581518110151561175057fe5b906020019060200201510360ff1611156118de576117876001898581518110151561177757fe5b9060200190602002015103611a91565b905061181e81600a600960405180828054600181600116156101000203166002900480156117ec5780601f106117ca5761010080835404028352918201916117ec565b820191906000526020600020905b8154815290600101906020018083116117d8575b5050915050908152602001604051809103902060009054906101000a900460ff1660ff16611f8390919063ffffffff16565b600b60006101000a81548160ff021916908360ff160217905550600b60009054906101000a900460ff16600a600960405180828054600181600116156101000203166002900480156118a75780601f106118855761010080835404028352918201916118a7565b820191906000526020600020905b815481529060010190602001808311611893575b5050915050908152602001604051809103902060006101000a81548160ff021916908360ff1602179055508b600d81905550611a49565b61198d600189858151811015156118f157fe5b9060200190602002015103600a6009604051808280546001816001161561010002031660029004801561195b5780601f1061193957610100808354040283529182019161195b565b820191906000526020600020905b815481529060010190602001808311611947575b5050915050908152602001604051809103902060009054906101000a900460ff1660ff16611f8390919063ffffffff16565b600b60006101000a81548160ff021916908360ff160217905550600b60009054906101000a900460ff16600a60096040518082805460018160011615610100020316600290048015611a165780601f106119f4576101008083540402835291820191611a16565b820191906000526020600020905b815481529060010190602001808311611a02575b5050915050908152602001604051809103902060006101000a81548160ff021916908360ff1602179055508b600d819055505b611a56565b8b600d819055505b5b505050505050505050505050565b600c5481565b600860009054906101000a900473ffffffffffffffffffffffffffffffffffffffff1681565b600080600080600080600b60049054906101000a900460ff1687039450600b60039054906101000a900460ff16935060009250600091505b600b60029054906101000a900460ff1660ff168260ff161015611e22576000611b8c600b60039054906101000a900460ff16600a60096040518082805460018160011615610100020316600290048015611b5a5780601f10611b38576101008083540402835291820191611b5a565b820191906000526020600020905b815481529060010190602001808311611b46575b5050915050908152602001604051809103902060009054906101000a900460ff1660ff16611f9d90919063ffffffff16565b60ff16148015611ba557508460ff166001840160ff1610155b15611c9157600b60029054906101000a900460ff1660ff166001600b60039054906101000a900460ff160160ff16811515611bdc57fe5b06600b60036101000a81548160ff021916908360ff160217905550600183600b60049054906101000a900460ff160101600b60046101000a81548160ff021916908360ff1602179055506001600b60029054906101000a900460ff16600b60049054906101000a900460ff160301600b60056101000a81548160ff021916908360ff160217905550600b60029054906101000a900460ff1660ff1660018587010360ff16811515611c8957fe5b069550611e23565b611d35600b60039054906101000a900460ff16600a60096040518082805460018160011615610100020316600290048015611d035780601f10611ce1576101008083540402835291820191611d03565b820191906000526020600020905b815481529060010190602001808311611cef575b5050915050908152602001604051809103902060009054906101000a900460ff1660ff16611fb890919063ffffffff16565b905080600a60096040518082805460018160011615610100020316600290048015611d975780601f10611d75576101008083540402835291820191611d97565b820191906000526020600020905b815481529060010190602001808311611d83575b5050915050908152602001604051809103902060006101000a81548160ff021916908360ff160217905550600b60029054906101000a900460ff1660ff166001600b60039054906101000a900460ff160160ff16811515611df457fe5b06600b60036101000a81548160ff021916908360ff1602179055506001830192508180600101925050611ac9565b5b5050505050919050565b600860009054906101000a900473ffffffffffffffffffffffffffffffffffffffff1673ffffffffffffffffffffffffffffffffffffffff163373ffffffffffffffffffffffffffffffffffffffff161415611e8b5780600c819055505b50565b6060600060146040519080825280601f01601f191660200182016040528015611ec65781602001602082028038833980820191505090505b509150600090505b6014811015611f6f578060130360080260020a8373ffffffffffffffffffffffffffffffffffffffff16811515611f0157fe5b047f0100000000000000000000000000000000000000000000000000000000000000028282815181101515611f3257fe5b9060200101907effffffffffffffffffffffffffffffffffffffffffffffffffffffffffffff1916908160001a9053508080600101915050611ece565b50919050565b600060208201519050919050565b60008160ff16600160ff169060020a028317905092915050565b600060018260ff168460ff169060020a900416905092915050565b60008160ff16600160ff169060020a02198316905092915050565b602060405190810160405280606081525090565b6000611ff38251612a4d565b905092915050565b600082601f830112151561200e57600080fd5b813561202161201c826128dd565b6128b0565b9150818183526020840193506020810190508385602084028201111561204657600080fd5b60005b83811015612076578161205c888261220f565b845260208401935060208301925050600181019050612049565b5050505092915050565b600082601f830112151561209357600080fd5b81356120a66120a182612905565b6128b0565b915081818352602084019350602081019050838560208402820111156120cb57600080fd5b60005b838110156120fb57816120e18882612223565b8452602084019350602083019250506001810190506120ce565b5050505092915050565b600082601f830112151561211857600080fd5b813561212b6121268261292d565b6128b0565b9150818183526020840193506020810190508385602084028201111561215057600080fd5b60005b838110156121805781612166888261228d565b845260208401935060208301925050600181019050612153565b5050505092915050565b600082601f830112151561219d57600080fd5b81356121b06121ab82612955565b6128b0565b915081818352602084019350602081019050838560208402820111156121d557600080fd5b60005b8381101561220557816121eb88826122a1565b8452602084019350602083019250506001810190506121d8565b5050505092915050565b600061221b8235612a6d565b905092915050565b600061222f8235612a99565b905092915050565b600082601f830112151561224a57600080fd5b815161225d6122588261297d565b6128b0565b9150808252602083016020830185838301111561227957600080fd5b612284838284612aed565b50505092915050565b60006122998235612aa3565b905092915050565b60006122ad8235612aad565b905092915050565b6000602082840312156122c757600080fd5b60006122d584828501611fe7565b91505092915050565b6000602082840312156122f057600080fd5b600082015167ffffffffffffffff81111561230a57600080fd5b61231684828501612237565b91505092915050565b60006020828403121561233157600080fd5b600061233f8482850161228d565b91505092915050565b600080600080600080600080610100898b03121561236557600080fd5b60006123738b828c0161228d565b985050602089013567ffffffffffffffff81111561239057600080fd5b61239c8b828c01612080565b975050604089013567ffffffffffffffff8111156123b957600080fd5b6123c58b828c01612105565b965050606089013567ffffffffffffffff8111156123e257600080fd5b6123ee8b828c01612105565b955050608089013567ffffffffffffffff81111561240b57600080fd5b6124178b828c0161218a565b94505060a089013567ffffffffffffffff81111561243457600080fd5b6124408b828c01611ffb565b93505060c089013567ffffffffffffffff81111561245d57600080fd5b6124698b828c01612080565b92505060e089013567ffffffffffffffff81111561248657600080fd5b6124928b828c01612080565b9150509295985092959890939650565b6000602082840312156124b457600080fd5b60006124c2848285016122a1565b91505092915050565b6124d4816129b4565b82525050565b6124e3816129b4565b82525050565b6124f2816129d4565b82525050565b61250181612a00565b82525050565b61251081612a0a565b82525050565b600082845260208401935061252c838584612ade565b61253583612b20565b840190509392505050565b61254981612aba565b82525050565b61255881612acc565b82525050565b6000612569826129a9565b80845261257d816020860160208601612aed565b61258681612b20565b602085010191505092915050565b60006101008301600083015184820360008601526125b2828261255e565b915050602083015184820360208601526125cc828261255e565b915050604083015184820360408601526125e6828261255e565b91505060608301518482036060860152612600828261255e565b9150506080830151848203608086015261261a828261255e565b91505060a083015184820360a0860152612634828261255e565b91505060c083015184820360c086015261264e828261255e565b91505060e083015184820360e0860152612668828261255e565b9150508091505092915050565b61267e81612a36565b82525050565b61268d81612a36565b82525050565b61269c81612a40565b82525050565b6126ab81612a40565b82525050565b60006020820190506126c660008301846124cb565b92915050565b600060e08201905081810360008301526126e6818a612594565b90506126f560208301896124f8565b6127026040830188612684565b61270f6060830187612684565b61271c60808301866126a2565b61272960a08301856124da565b61273660c0830184612507565b98975050505050505050565b600061014082019050818103600083015261275d818d612594565b905061276c602083018c6124f8565b612779604083018b612684565b612786606083018a612684565b61279360808301896126a2565b6127a060a08301886124e9565b6127ad60c08301876124f8565b6127ba60e08301866124f8565b6127c86101008301856124da565b6127d6610120830184612507565b9b9a5050505050505050505050565b6000610100820190508181036000830152612800818c612594565b90508181036020830152612814818b61255e565b9050612823604083018a6124e9565b61283060608301896124f8565b61283d60808301886124f8565b81810360a0830152612850818688612516565b905061285f60c083018561254f565b61286c60e0830184612540565b9a9950505050505050505050565b600060208201905061288f6000830184612675565b92915050565b60006020820190506128aa6000830184612693565b92915050565b6000604051905081810181811067ffffffffffffffff821117156128d357600080fd5b8060405250919050565b600067ffffffffffffffff8211156128f457600080fd5b602082029050602081019050919050565b600067ffffffffffffffff82111561291c57600080fd5b602082029050602081019050919050565b600067ffffffffffffffff82111561294457600080fd5b602082029050602081019050919050565b600067ffffffffffffffff82111561296c57600080fd5b602082029050602081019050919050565b600067ffffffffffffffff82111561299457600080fd5b601f19601f8301169050602081019050919050565b600081519050919050565b600073ffffffffffffffffffffffffffffffffffffffff82169050919050565b60007fff0000000000000000000000000000000000000000000000000000000000000082169050919050565b6000819050919050565b60007fffffffff0000000000000000000000000000000000000000000000000000000082169050919050565b6000819050919050565b600060ff82169050919050565b600073ffffffffffffffffffffffffffffffffffffffff82169050919050565b60007fff0000000000000000000000000000000000000000000000000000000000000082169050919050565b6000819050919050565b6000819050919050565b600060ff82169050919050565b6000612ac582612a36565b9050919050565b6000612ad782612a36565b9050919050565b82818337600083830152505050565b60005b83811015612b0b578082015181840152602081019050612af0565b83811115612b1a576000848401525b50505050565b6000601f19601f83011690509190505600a265627a7a7230582048b99cb7ea6151b3e7546f155e59823de509f55b092eed59df0dd51bfe5bf8ca6c6578706572696d656e74616cf50037",
  "source": "pragma solidity ^0.4.24;\nimport {Bits} from \"./imported/Bits.sol\";\nimport \"./imported/strings.sol\";\nimport \"./imported/verify.sol\";\npragma experimental \"ABIEncoderV2\";\n\n\ncontract hydraSmacs {\n\n    verify.Data data;\n    using strings for *;\n    using verify for verify.Data;\n    address public owner;\n    using Bits for uint8;\n    string name = \"hydraSmacs\";\n    mapping (string => uint8) bit_map;\n    uint8 recursive_map = 0;\n    uint8 ticket_counter;\n    uint8 fixed_size = 8;\n    uint8 index = 0; \n    uint8 end = 7;\n    uint8 start = 0;\n    address verify_public_key;\n    uint public last_completed_migration;\n    uint a = 10;\n    struct MID {\n        string  mid;\n    }\n    mapping(uint => MID) mid_mapping;\n    function hydraSmacs(address private_key) public {\n        owner = msg.sender;\n        verify_public_key = private_key;\n    }\n\n    modifier restricted() {\n        if (msg.sender == owner) _;\n    }\n\n    function setCompleted(uint completed) public restricted {\n        last_completed_migration = completed;\n    }\n\n    // function upgrade(address new_address) public restricted {\n    //     hydra upgraded = hydraSmacs(new_address);\n    //     upgraded.setCompleted(last_completed_migration);\n    // }\n\n    function setValue(uint value, bytes32[] _addr, uint[] _type, uint[] _time, uint8[] _index, byte[] _v, bytes32[] _r, bytes32[] _s) public {\n        MID memory u = mid_mapping[1];\n        uint belong_index = 0;\n        while (belong_index < _addr.length ){\n            if (bytesToBytes32(toBytes(address(this))) == _addr[belong_index]){\n                break;\n            }\n            belong_index += 1;\n        }\n        uint token_num = _addr.length;\n        if (block.timestamp > _time[belong_index]) \n            return;\n        if(_type[belong_index] == 3){\n            u.mid = data.middle1(_addr[belong_index], _type[belong_index], _time[belong_index], _index[belong_index], tx.origin, msg.sig);\n            assert(verify_public_key == data.middle2(u.mid, _v[belong_index],  _r[belong_index], _s[belong_index], msg.data, 8, 0));\n        }else{\n            assert(verify_public_key == data.Verify(_addr[belong_index], _type[belong_index], _time[belong_index], _index[belong_index],  _v[belong_index],  _r[belong_index], _s[belong_index], tx.origin, msg.sig));\n        }\n        if (_index[belong_index] != 0){\n            if(_index[belong_index] < start)\n                return;\n            if (_index[belong_index]-1 >  end){\n                uint8 new_counter_single = moveBuffer(_index[belong_index]-1);\n                recursive_map = bit_map[name].setBit(new_counter_single);  \n                bit_map[name] = recursive_map;\n                a = value;\n            }else{\n                recursive_map = bit_map[name].setBit(_index[belong_index]-1);  \n                bit_map[name] = recursive_map;\n                a = value;\n            }\n        }else {\n            a = value;\n        }\n    }\n\n    function getValue() public returns(uint){\n        return a;\n    }\n\n    function bytesToBytes32(bytes memory source) private pure returns (bytes32 result) {\n        assembly { \n            //mload(p) -->  mem[p..(p+32)) \n            result := mload(add(source, 32))\n        }\n    }\n\n    function toBytes(address x) private returns (bytes b) {\n        b = new bytes(20);\n        for (uint i = 0; i < 20; i++)\n            b[i] = byte(uint8(uint(x) / (2**(8*(19 - i)))));\n    }\n\n    function moveBuffer(uint8 counter) public returns(uint8){\n        uint8 minimal_size = counter - end;\n        uint8 old_index = index;\n        uint8 move_time = 0;\n\n        // move_time = 0;\n        for (uint8 i=0; i<fixed_size; i++){\n            if (bit_map[name].bit(index) == 0 && (move_time + 1) >= minimal_size){\n                index = (index + 1) % fixed_size;\n                end = end + move_time + 1;\n                start = end - fixed_size + 1;\n                // move = move_time;\n                return (minimal_size + old_index - 1) % fixed_size;\n            }else{\n                uint8 new_bit = bit_map[name].clearBit(index);\n                bit_map[name] = new_bit;\n                index = (index + 1) % fixed_size;\n                move_time += 1;\n            }\n        }\n\n    }\n}\n",
  "sourcePath": "/Users/liubowen/sutd/SCticket/code/contracts/hydraSmacs.sol",
  "compiler": {
    "name": "solc",
    "version": "0.4.25+commit.59dbf8f1.Emscripten.clang"
  },
  "schemaVersion": "2.0.2",
  "updatedAt": "2020-11-17T03:42:54.936Z"
}