{
  "contractName": "MultipleD",
  "abi": [
    {
      "constant": true,
      "inputs": [],
      "name": "owner",
      "outputs": [
        {
          "name": "",
          "type": "address"
        }
      ],
      "payable": false,
      "stateMutability": "view",
      "type": "function"
    },
    {
      "inputs": [
        {
          "name": "private_key",
          "type": "address"
        }
      ],
      "payable": false,
      "stateMutability": "nonpayable",
      "type": "constructor"
    },
    {
      "constant": true,
      "inputs": [
        {
          "name": "user",
          "type": "address"
        }
      ],
      "name": "getUserBalance",
      "outputs": [
        {
          "name": "",
          "type": "uint256"
        }
      ],
      "payable": false,
      "stateMutability": "view",
      "type": "function"
    },
    {
      "constant": false,
      "inputs": [],
      "name": "addToBalance",
      "outputs": [],
      "payable": true,
      "stateMutability": "payable",
      "type": "function"
    },
    {
      "constant": false,
      "inputs": [],
      "name": "getInfor",
      "outputs": [
        {
          "name": "",
          "type": "uint256"
        }
      ],
      "payable": false,
      "stateMutability": "nonpayable",
      "type": "function"
    },
    {
      "constant": false,
      "inputs": [
        {
          "name": "val",
          "type": "uint256"
        }
      ],
      "name": "setA",
      "outputs": [],
      "payable": false,
      "stateMutability": "nonpayable",
      "type": "function"
    },
    {
      "constant": false,
      "inputs": [
        {
          "name": "val",
          "type": "uint256"
        },
        {
          "name": "_addr",
          "type": "bytes32[]"
        },
        {
          "name": "_type",
          "type": "uint256[]"
        },
        {
          "name": "_time",
          "type": "uint256[]"
        },
        {
          "name": "_index",
          "type": "uint8[]"
        },
        {
          "name": "_v",
          "type": "bytes1[]"
        },
        {
          "name": "_r",
          "type": "bytes32[]"
        },
        {
          "name": "_s",
          "type": "bytes32[]"
        }
      ],
      "name": "withdrawBalance",
      "outputs": [],
      "payable": false,
      "stateMutability": "nonpayable",
      "type": "function"
    },
    {
      "constant": false,
      "inputs": [
        {
          "name": "counter",
          "type": "uint8"
        }
      ],
      "name": "moveBuffer",
      "outputs": [
        {
          "name": "",
          "type": "uint8"
        }
      ],
      "payable": false,
      "stateMutability": "nonpayable",
      "type": "function"
    }
  ],
  "bytecode": "0x60806040526040805190810160405280600981526020017f4d756c7469706c65440000000000000000000000000000000000000000000000815250600990805190602001906200005192919062000196565b506000600b60006101000a81548160ff021916908360ff1602179055506008600b60026101000a81548160ff021916908360ff1602179055506000600b60036101000a81548160ff021916908360ff1602179055506007600b60046101000a81548160ff021916908360ff1602179055506000600b60056101000a81548160ff021916908360ff160217905550348015620000eb57600080fd5b5060405160208062002ef583398101806040526200010d91908101906200025b565b33600860006101000a81548173ffffffffffffffffffffffffffffffffffffffff021916908373ffffffffffffffffffffffffffffffffffffffff16021790555080600b60066101000a81548173ffffffffffffffffffffffffffffffffffffffff021916908373ffffffffffffffffffffffffffffffffffffffff16021790555050620002a7565b828054600181600116156101000203166002900490600052602060002090601f016020900481019282601f10620001d957805160ff19168380011785556200020a565b828001600101855582156200020a579182015b8281111562000209578251825591602001919060010190620001ec565b5b5090506200021991906200021d565b5090565b6200024291905b808211156200023e57600081600090555060010162000224565b5090565b90565b600062000253825162000287565b905092915050565b6000602082840312156200026e57600080fd5b60006200027e8482850162000245565b91505092915050565b600073ffffffffffffffffffffffffffffffffffffffff82169050919050565b612c3e80620002b76000396000f300608060405260043610610083576000357c0100000000000000000000000000000000000000000000000000000000900463ffffffff16806347734892146100885780638da5cb5b146100c5578063c0e317fb146100f0578063ee919d50146100fa578063f2b677fe14610123578063fa49742d1461014e578063fc02a65514610177575b600080fd5b34801561009457600080fd5b506100af60048036036100aa919081019061235f565b6101b4565b6040516100bc919061294d565b60405180910390f35b3480156100d157600080fd5b506100da6101fd565b6040516100e79190612784565b60405180910390f35b6100f8610223565b005b34801561010657600080fd5b50610121600480360361011c91908101906123f2565b6102aa565b005b34801561012f57600080fd5b506101386102b4565b604051610145919061294d565b60405180910390f35b34801561015a57600080fd5b506101756004803603610170919081019061241b565b6102be565b005b34801561018357600080fd5b5061019e60048036036101999190810190612575565b611b88565b6040516101ab9190612968565b60405180910390f35b6000600e60008373ffffffffffffffffffffffffffffffffffffffff1673ffffffffffffffffffffffffffffffffffffffff168152602001908152602001600020549050919050565b600860009054906101000a900473ffffffffffffffffffffffffffffffffffffffff1681565b34600e60003373ffffffffffffffffffffffffffffffffffffffff1673ffffffffffffffffffffffffffffffffffffffff1681526020019081526020016000205401600e60003373ffffffffffffffffffffffffffffffffffffffff1673ffffffffffffffffffffffffffffffffffffffff16815260200190815260200160002081905550565b80600f8190555050565b6000600f54905090565b6102c6612069565b600080601060006001815260200190815260200160002060206040519081016040529081600082018054600181600116156101000203166002900480601f0160208091040260200160405190810160405280929190818152602001828054600181600116156101000203166002900480156103825780601f1061035757610100808354040283529160200191610382565b820191906000526020600020905b81548152906001019060200180831161036557829003601f168201915b5050505050815250509250600091505b89518210156103e25789828151811015156103a957fe5b90602001906020020151600019166103c86103c330611f24565b61200b565b6000191614156103d7576103e2565b600182019150610392565b87828151811015156103f057fe5b9060200190602002015142111561040657611b7b565b6003898381518110151561041657fe5b9060200190602002015114156110fe5760006101006040519081016040529081600082018054600181600116156101000203166002900480601f0160208091040260200160405190810160405280929190818152602001828054600181600116156101000203166002900480156104ce5780601f106104a3576101008083540402835291602001916104ce565b820191906000526020600020905b8154815290600101906020018083116104b157829003601f168201915b50505050508152602001600182018054600181600116156101000203166002900480601f0160208091040260200160405190810160405280929190818152602001828054600181600116156101000203166002900480156105705780601f1061054557610100808354040283529160200191610570565b820191906000526020600020905b81548152906001019060200180831161055357829003601f168201915b50505050508152602001600282018054600181600116156101000203166002900480601f0160208091040260200160405190810160405280929190818152602001828054600181600116156101000203166002900480156106125780601f106105e757610100808354040283529160200191610612565b820191906000526020600020905b8154815290600101906020018083116105f557829003601f168201915b50505050508152602001600382018054600181600116156101000203166002900480601f0160208091040260200160405190810160405280929190818152602001828054600181600116156101000203166002900480156106b45780601f10610689576101008083540402835291602001916106b4565b820191906000526020600020905b81548152906001019060200180831161069757829003601f168201915b50505050508152602001600482018054600181600116156101000203166002900480601f0160208091040260200160405190810160405280929190818152602001828054600181600116156101000203166002900480156107565780601f1061072b57610100808354040283529160200191610756565b820191906000526020600020905b81548152906001019060200180831161073957829003601f168201915b50505050508152602001600582018054600181600116156101000203166002900480601f0160208091040260200160405190810160405280929190818152602001828054600181600116156101000203166002900480156107f85780601f106107cd576101008083540402835291602001916107f8565b820191906000526020600020905b8154815290600101906020018083116107db57829003601f168201915b50505050508152602001600682018054600181600116156101000203166002900480601f01602080910402602001604051908101604052809291908181526020018280546001816001161561010002031660029004801561089a5780601f1061086f5761010080835404028352916020019161089a565b820191906000526020600020905b81548152906001019060200180831161087d57829003601f168201915b50505050508152602001600782018054600181600116156101000203166002900480601f01602080910402602001604051908101604052809291908181526020018280546001816001161561010002031660029004801561093c5780601f106109115761010080835404028352916020019161093c565b820191906000526020600020905b81548152906001019060200180831161091f57829003601f168201915b50505050508152505073__verify________________________________63062864db90918c8581518110151561096f57fe5b906020019060200201518c8681518110151561098757fe5b906020019060200201518c8781518110151561099f57fe5b906020019060200201518c888151811015156109b757fe5b90602001906020020151326000357fffffffff00000000000000000000000000000000000000000000000000000000166040518863ffffffff167c0100000000000000000000000000000000000000000000000000000000028152600401610a25979695949392919061279f565b60006040518083038186803b158015610a3d57600080fd5b505af4158015610a51573d6000803e3d6000fd5b505050506040513d6000823e3d601f19601f82011682018060405250610a7a91908101906123b1565b836000018190525060006101006040519081016040529081600082018054600181600116156101000203166002900480601f016020809104026020016040519081016040528092919081815260200182805460018160011615610100020316600290048015610b2a5780601f10610aff57610100808354040283529160200191610b2a565b820191906000526020600020905b815481529060010190602001808311610b0d57829003601f168201915b50505050508152602001600182018054600181600116156101000203166002900480601f016020809104026020016040519081016040528092919081815260200182805460018160011615610100020316600290048015610bcc5780601f10610ba157610100808354040283529160200191610bcc565b820191906000526020600020905b815481529060010190602001808311610baf57829003601f168201915b50505050508152602001600282018054600181600116156101000203166002900480601f016020809104026020016040519081016040528092919081815260200182805460018160011615610100020316600290048015610c6e5780601f10610c4357610100808354040283529160200191610c6e565b820191906000526020600020905b815481529060010190602001808311610c5157829003601f168201915b50505050508152602001600382018054600181600116156101000203166002900480601f016020809104026020016040519081016040528092919081815260200182805460018160011615610100020316600290048015610d105780601f10610ce557610100808354040283529160200191610d10565b820191906000526020600020905b815481529060010190602001808311610cf357829003601f168201915b50505050508152602001600482018054600181600116156101000203166002900480601f016020809104026020016040519081016040528092919081815260200182805460018160011615610100020316600290048015610db25780601f10610d8757610100808354040283529160200191610db2565b820191906000526020600020905b815481529060010190602001808311610d9557829003601f168201915b50505050508152602001600582018054600181600116156101000203166002900480601f016020809104026020016040519081016040528092919081815260200182805460018160011615610100020316600290048015610e545780601f10610e2957610100808354040283529160200191610e54565b820191906000526020600020905b815481529060010190602001808311610e3757829003601f168201915b50505050508152602001600682018054600181600116156101000203166002900480601f016020809104026020016040519081016040528092919081815260200182805460018160011615610100020316600290048015610ef65780601f10610ecb57610100808354040283529160200191610ef6565b820191906000526020600020905b815481529060010190602001808311610ed957829003601f168201915b50505050508152602001600782018054600181600116156101000203166002900480601f016020809104026020016040519081016040528092919081815260200182805460018160011615610100020316600290048015610f985780601f10610f6d57610100808354040283529160200191610f98565b820191906000526020600020905b815481529060010190602001808311610f7b57829003601f168201915b50505050508152505073__verify________________________________638b0cf78e909185600001518986815181101515610fd057fe5b906020019060200201518987815181101515610fe857fe5b90602001906020020151898881518110151561100057fe5b90602001906020020151600036600860006040518a63ffffffff167c0100000000000000000000000000000000000000000000000000000000028152600401611051999897969594939291906128b8565b60206040518083038186803b15801561106957600080fd5b505af415801561107d573d6000803e3d6000fd5b505050506040513d601f19601f820116820180604052506110a19190810190612388565b73ffffffffffffffffffffffffffffffffffffffff16600b60069054906101000a900473ffffffffffffffffffffffffffffffffffffffff1673ffffffffffffffffffffffffffffffffffffffff161415156110f957fe5b6117f1565b60006101006040519081016040529081600082018054600181600116156101000203166002900480601f0160208091040260200160405190810160405280929190818152602001828054600181600116156101000203166002900480156111a65780601f1061117b576101008083540402835291602001916111a6565b820191906000526020600020905b81548152906001019060200180831161118957829003601f168201915b50505050508152602001600182018054600181600116156101000203166002900480601f0160208091040260200160405190810160405280929190818152602001828054600181600116156101000203166002900480156112485780601f1061121d57610100808354040283529160200191611248565b820191906000526020600020905b81548152906001019060200180831161122b57829003601f168201915b50505050508152602001600282018054600181600116156101000203166002900480601f0160208091040260200160405190810160405280929190818152602001828054600181600116156101000203166002900480156112ea5780601f106112bf576101008083540402835291602001916112ea565b820191906000526020600020905b8154815290600101906020018083116112cd57829003601f168201915b50505050508152602001600382018054600181600116156101000203166002900480601f01602080910402602001604051908101604052809291908181526020018280546001816001161561010002031660029004801561138c5780601f106113615761010080835404028352916020019161138c565b820191906000526020600020905b81548152906001019060200180831161136f57829003601f168201915b50505050508152602001600482018054600181600116156101000203166002900480601f01602080910402602001604051908101604052809291908181526020018280546001816001161561010002031660029004801561142e5780601f106114035761010080835404028352916020019161142e565b820191906000526020600020905b81548152906001019060200180831161141157829003601f168201915b50505050508152602001600582018054600181600116156101000203166002900480601f0160208091040260200160405190810160405280929190818152602001828054600181600116156101000203166002900480156114d05780601f106114a5576101008083540402835291602001916114d0565b820191906000526020600020905b8154815290600101906020018083116114b357829003601f168201915b50505050508152602001600682018054600181600116156101000203166002900480601f0160208091040260200160405190810160405280929190818152602001828054600181600116156101000203166002900480156115725780601f1061154757610100808354040283529160200191611572565b820191906000526020600020905b81548152906001019060200180831161155557829003601f168201915b50505050508152602001600782018054600181600116156101000203166002900480601f0160208091040260200160405190810160405280929190818152602001828054600181600116156101000203166002900480156116145780601f106115e957610100808354040283529160200191611614565b820191906000526020600020905b8154815290600101906020018083116115f757829003601f168201915b50505050508152505073__verify________________________________6368e0954690918c8581518110151561164757fe5b906020019060200201518c8681518110151561165f57fe5b906020019060200201518c8781518110151561167757fe5b906020019060200201518c8881518110151561168f57fe5b906020019060200201518c898151811015156116a757fe5b906020019060200201518c8a8151811015156116bf57fe5b906020019060200201518c8b8151811015156116d757fe5b90602001906020020151326000357fffffffff00000000000000000000000000000000000000000000000000000000166040518b63ffffffff167c01000000000000000000000000000000000000000000000000000000000281526004016117489a99989796959493929190612815565b60206040518083038186803b15801561176057600080fd5b505af4158015611774573d6000803e3d6000fd5b505050506040513d601f19601f820116820180604052506117989190810190612388565b73ffffffffffffffffffffffffffffffffffffffff16600b60069054906101000a900473ffffffffffffffffffffffffffffffffffffffff1673ffffffffffffffffffffffffffffffffffffffff161415156117f057fe5b5b6000878381518110151561180157fe5b9060200190602002015160ff16141515611b7157600b60059054906101000a900460ff1660ff16878381518110151561183657fe5b9060200190602002015160ff16101561184e57611b7b565b600b60049054906101000a900460ff1660ff166001888481518110151561187157fe5b906020019060200201510360ff161115611a00576118a86001888481518110151561189857fe5b9060200190602002015103611b88565b905061193f81600a6009604051808280546001816001161561010002031660029004801561190d5780601f106118eb57610100808354040283529182019161190d565b820191906000526020600020905b8154815290600101906020018083116118f9575b5050915050908152602001604051809103902060009054906101000a900460ff1660ff1661201990919063ffffffff16565b600b60006101000a81548160ff021916908360ff160217905550600b60009054906101000a900460ff16600a600960405180828054600181600116156101000203166002900480156119c85780601f106119a65761010080835404028352918201916119c8565b820191906000526020600020905b8154815290600101906020018083116119b4575b5050915050908152602001604051809103902060006101000a81548160ff021916908360ff1602179055506004600f81905550611b6c565b611aaf60018884815181101515611a1357fe5b9060200190602002015103600a60096040518082805460018160011615610100020316600290048015611a7d5780601f10611a5b576101008083540402835291820191611a7d565b820191906000526020600020905b815481529060010190602001808311611a69575b5050915050908152602001604051809103902060009054906101000a900460ff1660ff1661201990919063ffffffff16565b600b60006101000a81548160ff021916908360ff160217905550600b60009054906101000a900460ff16600a60096040518082805460018160011615610100020316600290048015611b385780601f10611b16576101008083540402835291820191611b38565b820191906000526020600020905b815481529060010190602001808311611b24575b5050915050908152602001604051809103902060006101000a81548160ff021916908360ff1602179055506004600f819055505b611b7a565b6003600f819055505b5b5050505050505050505050565b600080600080600080600b60049054906101000a900460ff1687039450600b60039054906101000a900460ff16935060009250600091505b600b60029054906101000a900460ff1660ff168260ff161015611f19576000611c83600b60039054906101000a900460ff16600a60096040518082805460018160011615610100020316600290048015611c515780601f10611c2f576101008083540402835291820191611c51565b820191906000526020600020905b815481529060010190602001808311611c3d575b5050915050908152602001604051809103902060009054906101000a900460ff1660ff1661203390919063ffffffff16565b60ff16148015611c9c57508460ff166001840160ff1610155b15611d8857600b60029054906101000a900460ff1660ff166001600b60039054906101000a900460ff160160ff16811515611cd357fe5b06600b60036101000a81548160ff021916908360ff160217905550600183600b60049054906101000a900460ff160101600b60046101000a81548160ff021916908360ff1602179055506001600b60029054906101000a900460ff16600b60049054906101000a900460ff160301600b60056101000a81548160ff021916908360ff160217905550600b60029054906101000a900460ff1660ff1660018587010360ff16811515611d8057fe5b069550611f1a565b611e2c600b60039054906101000a900460ff16600a60096040518082805460018160011615610100020316600290048015611dfa5780601f10611dd8576101008083540402835291820191611dfa565b820191906000526020600020905b815481529060010190602001808311611de6575b5050915050908152602001604051809103902060009054906101000a900460ff1660ff1661204e90919063ffffffff16565b905080600a60096040518082805460018160011615610100020316600290048015611e8e5780601f10611e6c576101008083540402835291820191611e8e565b820191906000526020600020905b815481529060010190602001808311611e7a575b5050915050908152602001604051809103902060006101000a81548160ff021916908360ff160217905550600b60029054906101000a900460ff1660ff166001600b60039054906101000a900460ff160160ff16811515611eeb57fe5b06600b60036101000a81548160ff021916908360ff1602179055506001830192508180600101925050611bc0565b5b5050505050919050565b6060600060146040519080825280601f01601f191660200182016040528015611f5c5781602001602082028038833980820191505090505b509150600090505b6014811015612005578060130360080260020a8373ffffffffffffffffffffffffffffffffffffffff16811515611f9757fe5b047f0100000000000000000000000000000000000000000000000000000000000000028282815181101515611fc857fe5b9060200101907effffffffffffffffffffffffffffffffffffffffffffffffffffffffffffff1916908160001a9053508080600101915050611f64565b50919050565b600060208201519050919050565b60008160ff16600160ff169060020a028317905092915050565b600060018260ff168460ff169060020a900416905092915050565b60008160ff16600160ff169060020a02198316905092915050565b602060405190810160405280606081525090565b60006120898235612b20565b905092915050565b600061209d8251612b20565b905092915050565b600082601f83011215156120b857600080fd5b81356120cb6120c6826129b0565b612983565b915081818352602084019350602081019050838560208402820111156120f057600080fd5b60005b83811015612120578161210688826122b9565b8452602084019350602083019250506001810190506120f3565b5050505092915050565b600082601f830112151561213d57600080fd5b813561215061214b826129d8565b612983565b9150818183526020840193506020810190508385602084028201111561217557600080fd5b60005b838110156121a5578161218b88826122cd565b845260208401935060208301925050600181019050612178565b5050505092915050565b600082601f83011215156121c257600080fd5b81356121d56121d082612a00565b612983565b915081818352602084019350602081019050838560208402820111156121fa57600080fd5b60005b8381101561222a57816122108882612337565b8452602084019350602083019250506001810190506121fd565b5050505092915050565b600082601f830112151561224757600080fd5b813561225a61225582612a28565b612983565b9150818183526020840193506020810190508385602084028201111561227f57600080fd5b60005b838110156122af5781612295888261234b565b845260208401935060208301925050600181019050612282565b5050505092915050565b60006122c58235612b40565b905092915050565b60006122d98235612b6c565b905092915050565b600082601f83011215156122f457600080fd5b815161230761230282612a50565b612983565b9150808252602083016020830185838301111561232357600080fd5b61232e838284612bc0565b50505092915050565b60006123438235612b76565b905092915050565b60006123578235612b80565b905092915050565b60006020828403121561237157600080fd5b600061237f8482850161207d565b91505092915050565b60006020828403121561239a57600080fd5b60006123a884828501612091565b91505092915050565b6000602082840312156123c357600080fd5b600082015167ffffffffffffffff8111156123dd57600080fd5b6123e9848285016122e1565b91505092915050565b60006020828403121561240457600080fd5b600061241284828501612337565b91505092915050565b600080600080600080600080610100898b03121561243857600080fd5b60006124468b828c01612337565b985050602089013567ffffffffffffffff81111561246357600080fd5b61246f8b828c0161212a565b975050604089013567ffffffffffffffff81111561248c57600080fd5b6124988b828c016121af565b965050606089013567ffffffffffffffff8111156124b557600080fd5b6124c18b828c016121af565b955050608089013567ffffffffffffffff8111156124de57600080fd5b6124ea8b828c01612234565b94505060a089013567ffffffffffffffff81111561250757600080fd5b6125138b828c016120a5565b93505060c089013567ffffffffffffffff81111561253057600080fd5b61253c8b828c0161212a565b92505060e089013567ffffffffffffffff81111561255957600080fd5b6125658b828c0161212a565b9150509295985092959890939650565b60006020828403121561258757600080fd5b60006125958482850161234b565b91505092915050565b6125a781612a87565b82525050565b6125b681612a87565b82525050565b6125c581612aa7565b82525050565b6125d481612ad3565b82525050565b6125e381612add565b82525050565b60008284526020840193506125ff838584612bb1565b61260883612bf3565b840190509392505050565b61261c81612b8d565b82525050565b61262b81612b9f565b82525050565b600061263c82612a7c565b808452612650816020860160208601612bc0565b61265981612bf3565b602085010191505092915050565b60006101008301600083015184820360008601526126858282612631565b9150506020830151848203602086015261269f8282612631565b915050604083015184820360408601526126b98282612631565b915050606083015184820360608601526126d38282612631565b915050608083015184820360808601526126ed8282612631565b91505060a083015184820360a08601526127078282612631565b91505060c083015184820360c08601526127218282612631565b91505060e083015184820360e086015261273b8282612631565b9150508091505092915050565b61275181612b09565b82525050565b61276081612b09565b82525050565b61276f81612b13565b82525050565b61277e81612b13565b82525050565b6000602082019050612799600083018461259e565b92915050565b600060e08201905081810360008301526127b9818a612667565b90506127c860208301896125cb565b6127d56040830188612757565b6127e26060830187612757565b6127ef6080830186612775565b6127fc60a08301856125ad565b61280960c08301846125da565b98975050505050505050565b6000610140820190508181036000830152612830818d612667565b905061283f602083018c6125cb565b61284c604083018b612757565b612859606083018a612757565b6128666080830189612775565b61287360a08301886125bc565b61288060c08301876125cb565b61288d60e08301866125cb565b61289b6101008301856125ad565b6128a96101208301846125da565b9b9a5050505050505050505050565b60006101008201905081810360008301526128d3818c612667565b905081810360208301526128e7818b612631565b90506128f6604083018a6125bc565b61290360608301896125cb565b61291060808301886125cb565b81810360a08301526129238186886125e9565b905061293260c0830185612622565b61293f60e0830184612613565b9a9950505050505050505050565b60006020820190506129626000830184612748565b92915050565b600060208201905061297d6000830184612766565b92915050565b6000604051905081810181811067ffffffffffffffff821117156129a657600080fd5b8060405250919050565b600067ffffffffffffffff8211156129c757600080fd5b602082029050602081019050919050565b600067ffffffffffffffff8211156129ef57600080fd5b602082029050602081019050919050565b600067ffffffffffffffff821115612a1757600080fd5b602082029050602081019050919050565b600067ffffffffffffffff821115612a3f57600080fd5b602082029050602081019050919050565b600067ffffffffffffffff821115612a6757600080fd5b601f19601f8301169050602081019050919050565b600081519050919050565b600073ffffffffffffffffffffffffffffffffffffffff82169050919050565b60007fff0000000000000000000000000000000000000000000000000000000000000082169050919050565b6000819050919050565b60007fffffffff0000000000000000000000000000000000000000000000000000000082169050919050565b6000819050919050565b600060ff82169050919050565b600073ffffffffffffffffffffffffffffffffffffffff82169050919050565b60007fff0000000000000000000000000000000000000000000000000000000000000082169050919050565b6000819050919050565b6000819050919050565b600060ff82169050919050565b6000612b9882612b09565b9050919050565b6000612baa82612b09565b9050919050565b82818337600083830152505050565b60005b83811015612bde578082015181840152602081019050612bc3565b83811115612bed576000848401525b50505050565b6000601f19601f83011690509190505600a265627a7a723058205213748addb3fb4bfe1610eabea10f407483a3c9c51f082dde2eaad6d9d7658a6c6578706572696d656e74616cf50037",
  "source": "pragma solidity ^0.4.24;\n// import \"./RedBlackTree.sol\";\nimport {Bits} from \"./imported/Bits.sol\";\nimport \"./imported/strings.sol\";\nimport \"./imported/verify.sol\";\npragma experimental \"ABIEncoderV2\";\n\n\ncontract MultipleD{\n\n    verify.Data data;\n    using strings for *;\n    // using verify for *;\n    using verify for verify.Data;\n\n    address public owner;\n\n    using Bits for uint8;\n    string name = \"MultipleD\";\n    mapping (string => uint8) bit_map;\n    uint8 recursive_map = 0;\n    uint8 ticket_counter;\n    uint8 fixed_size = 8;\n    uint8 index = 0; \n    uint8 end = 7;\n    uint8 start = 0;\n\n    address verify_public_key;\n    uint access_time;\n    bool semaphore;\n\n    function MultipleD(/*address _t, */address private_key) public {\n        owner = msg.sender;\n        verify_public_key = private_key;\n        // verify_private_key = generatePrivateKey(private_key);\n    }\n\n   mapping(address=>uint) userBalances;\n   /*mapping is a variable\n   type that saves the relation between the user and the amount contributed to\n   this contract. An address (account) is a unique indentifier in the blockchain*/\n\n   function getUserBalance(address user) constant returns(uint) {\n     return userBalances[user];\n   }\n   /*This function returns the amount (balance) that the user has contributed\n   to this contract (this information is saved in the userBalances variable)*/\n\n   function addToBalance() payable {\n     userBalances[msg.sender] = userBalances[msg.sender] + msg.value;\n   }\n   /*This function assigns the value sent by the user to the userBalances variable.\n   The msg variable is a global variable*/\n\n   function getInfor() public returns ( uint){\n       return (va);\n   }\n\n   function setA(uint val) public {\n       va = val;\n   }\n\n   uint va;\n\n    struct MID {\n        string  mid;\n    }\n    mapping(uint => MID) mid_mapping;\n\n    function withdrawBalance(uint val, bytes32[] _addr, uint[] _type, uint[] _time, uint8[] _index, byte[] _v, bytes32[] _r, bytes32[] _s) public {\n        MID memory u = mid_mapping[1];\n        uint belong_index = 0;\n        while (belong_index < _addr.length ){\n            if (bytesToBytes32(toBytes(address(this))) == _addr[belong_index]){\n                break;\n            }\n            belong_index += 1;\n        }\n        if (block.timestamp > _time[belong_index]) \n            return;\n        if(_type[belong_index] == 3){\n            u.mid = data.middle1(_addr[belong_index], _type[belong_index], _time[belong_index], _index[belong_index], tx.origin, msg.sig);\n            assert(verify_public_key == data.middle2(u.mid, _v[belong_index],  _r[belong_index], _s[belong_index], msg.data, 8, 0));\n        }else{\n            assert(verify_public_key == data.Verify(_addr[belong_index], _type[belong_index], _time[belong_index], _index[belong_index],  _v[belong_index],  _r[belong_index], _s[belong_index], tx.origin, msg.sig));\n        }\n        if (_index[belong_index] != 0){\n            if(_index[belong_index] < start)\n                return;\n            if (_index[belong_index]-1 >  end){\n                uint8 new_counter_single = moveBuffer(_index[belong_index]-1);\n                recursive_map = bit_map[name].setBit(new_counter_single);  \n                bit_map[name] = recursive_map;\n                va = 4;\n            }else{\n                recursive_map = bit_map[name].setBit(_index[belong_index]-1);  \n                bit_map[name] = recursive_map;\n                va = 4;\n            }\n        }else {\n            va = 3;\n        }\n    }\n\n    function bytesToBytes32(bytes memory source) private pure returns (bytes32 result) {\n        assembly { \n            //mload(p) -->  mem[p..(p+32)) \n            result := mload(add(source, 32))\n        }\n    }\n\n    function toBytes(address x) private returns (bytes b) {\n        b = new bytes(20);\n        for (uint i = 0; i < 20; i++)\n            b[i] = byte(uint8(uint(x) / (2**(8*(19 - i)))));\n    }\n\n    function moveBuffer(uint8 counter) public returns(uint8){\n        uint8 minimal_size = counter - end;\n        uint8 old_index = index;\n        uint8 move_time = 0;\n\n        // move_time = 0;\n        for (uint8 i=0; i<fixed_size; i++){\n            if (bit_map[name].bit(index) == 0 && (move_time + 1) >= minimal_size){\n                index = (index + 1) % fixed_size;\n                end = end + move_time + 1;\n                start = end - fixed_size + 1;\n                // move = move_time;\n                return (minimal_size + old_index - 1) % fixed_size;\n            }else{\n                uint8 new_bit = bit_map[name].clearBit(index);\n                bit_map[name] = new_bit;\n                index = (index + 1) % fixed_size;\n                move_time += 1;\n            }\n        }\n\n    }\n}\n\n\n",
  "sourcePath": "/Users/liubowen/sutd/SCticket/code/contracts/MultipleD.sol",
  "compiler": {
    "name": "solc",
    "version": "0.4.25+commit.59dbf8f1.Emscripten.clang"
  },
  "schemaVersion": "2.0.2",
  "updatedAt": "2020-11-17T03:42:55.038Z"
}