{
  "contractName": "MultipleA",
  "abi": [
    {
      "constant": true,
      "inputs": [],
      "name": "owner",
      "outputs": [
        {
          "name": "",
          "type": "address"
        }
      ],
      "payable": false,
      "stateMutability": "view",
      "type": "function"
    },
    {
      "inputs": [
        {
          "name": "_t",
          "type": "address"
        },
        {
          "name": "private_key",
          "type": "address"
        }
      ],
      "payable": false,
      "stateMutability": "nonpayable",
      "type": "constructor"
    },
    {
      "constant": true,
      "inputs": [
        {
          "name": "user",
          "type": "address"
        }
      ],
      "name": "getUserBalance",
      "outputs": [
        {
          "name": "",
          "type": "uint256"
        }
      ],
      "payable": false,
      "stateMutability": "view",
      "type": "function"
    },
    {
      "constant": false,
      "inputs": [],
      "name": "addToBalance",
      "outputs": [],
      "payable": true,
      "stateMutability": "payable",
      "type": "function"
    },
    {
      "constant": false,
      "inputs": [],
      "name": "getInfor",
      "outputs": [
        {
          "name": "",
          "type": "uint256"
        },
        {
          "name": "",
          "type": "bytes"
        },
        {
          "name": "",
          "type": "string"
        },
        {
          "name": "",
          "type": "address"
        }
      ],
      "payable": false,
      "stateMutability": "nonpayable",
      "type": "function"
    },
    {
      "constant": false,
      "inputs": [
        {
          "name": "val",
          "type": "uint256"
        },
        {
          "name": "_addr",
          "type": "bytes32[]"
        },
        {
          "name": "_type",
          "type": "uint256[]"
        },
        {
          "name": "_time",
          "type": "uint256[]"
        },
        {
          "name": "_index",
          "type": "uint8[]"
        },
        {
          "name": "_v",
          "type": "bytes1[]"
        },
        {
          "name": "_r",
          "type": "bytes32[]"
        },
        {
          "name": "_s",
          "type": "bytes32[]"
        }
      ],
      "name": "withdrawBalance",
      "outputs": [],
      "payable": false,
      "stateMutability": "nonpayable",
      "type": "function"
    },
    {
      "constant": false,
      "inputs": [
        {
          "name": "counter",
          "type": "uint8"
        }
      ],
      "name": "moveBuffer",
      "outputs": [
        {
          "name": "",
          "type": "uint8"
        }
      ],
      "payable": false,
      "stateMutability": "nonpayable",
      "type": "function"
    }
  ],
  "bytecode": "0x60806040526040805190810160405280600981526020017f4d756c7469706c654100000000000000000000000000000000000000000000008152506009908051906020019062000051929190620001d8565b506000600b60006101000a81548160ff021916908360ff1602179055506008600b60026101000a81548160ff021916908360ff1602179055506000600b60036101000a81548160ff021916908360ff1602179055506007600b60046101000a81548160ff021916908360ff1602179055506000600b60056101000a81548160ff021916908360ff160217905550348015620000eb57600080fd5b506040516040806200356683398101806040526200010d91908101906200029d565b33600860006101000a81548173ffffffffffffffffffffffffffffffffffffffff021916908373ffffffffffffffffffffffffffffffffffffffff16021790555080600b60066101000a81548173ffffffffffffffffffffffffffffffffffffffff021916908373ffffffffffffffffffffffffffffffffffffffff16021790555081600c60006101000a81548173ffffffffffffffffffffffffffffffffffffffff021916908373ffffffffffffffffffffffffffffffffffffffff1602179055505050620002fe565b828054600181600116156101000203166002900490600052602060002090601f016020900481019282601f106200021b57805160ff19168380011785556200024c565b828001600101855582156200024c579182015b828111156200024b5782518255916020019190600101906200022e565b5b5090506200025b91906200025f565b5090565b6200028491905b808211156200028057600081600090555060010162000266565b5090565b90565b6000620002958251620002de565b905092915050565b60008060408385031215620002b157600080fd5b6000620002c18582860162000287565b9250506020620002d48582860162000287565b9150509250929050565b600073ffffffffffffffffffffffffffffffffffffffff82169050919050565b613258806200030e6000396000f300608060405260043610610078576000357c0100000000000000000000000000000000000000000000000000000000900463ffffffff168063477348921461007d5780638da5cb5b146100ba578063c0e317fb146100e5578063f2b677fe146100ef578063fa49742d1461011d578063fc02a65514610146575b600080fd5b34801561008957600080fd5b506100a4600480360361009f9190810190612600565b610183565b6040516100b19190612dbb565b60405180910390f35b3480156100c657600080fd5b506100cf6101cc565b6040516100dc9190612bf2565b60405180910390f35b6100ed6101f2565b005b3480156100fb57600080fd5b50610104610279565b6040516101149493929190612e85565b60405180910390f35b34801561012957600080fd5b50610144600480360361013f9190810190612693565b6103f0565b005b34801561015257600080fd5b5061016d600480360361016891908101906127ed565b611d84565b60405161017a9190612ed8565b60405180910390f35b6000600d60008373ffffffffffffffffffffffffffffffffffffffff1673ffffffffffffffffffffffffffffffffffffffff168152602001908152602001600020549050919050565b600860009054906101000a900473ffffffffffffffffffffffffffffffffffffffff1681565b34600d60003373ffffffffffffffffffffffffffffffffffffffff1673ffffffffffffffffffffffffffffffffffffffff1681526020019081526020016000205401600d60003373ffffffffffffffffffffffffffffffffffffffff1673ffffffffffffffffffffffffffffffffffffffff16815260200190815260200160002081905550565b60006060806000600e54600f6010600b60069054906101000a900473ffffffffffffffffffffffffffffffffffffffff16828054600181600116156101000203166002900480601f01602080910402602001604051908101604052809291908181526020018280546001816001161561010002031660029004801561033f5780601f106103145761010080835404028352916020019161033f565b820191906000526020600020905b81548152906001019060200180831161032257829003601f168201915b50505050509250818054600181600116156101000203166002900480601f0160208091040260200160405190810160405280929190818152602001828054600181600116156101000203166002900480156103db5780601f106103b0576101008083540402835291602001916103db565b820191906000526020600020905b8154815290600101906020018083116103be57829003601f168201915b50505050509150935093509350935090919293565b6103f8612265565b600080600036600f919061040d929190612279565b50601160006001815260200190815260200160002060206040519081016040529081600082018054600181600116156101000203166002900480601f0160208091040260200160405190810160405280929190818152602001828054600181600116156101000203166002900480156104c75780601f1061049c576101008083540402835291602001916104c7565b820191906000526020600020905b8154815290600101906020018083116104aa57829003601f168201915b5050505050815250509250600091505b89518210156105275789828151811015156104ee57fe5b906020019060200201516000191661050d61050830612120565b612207565b60001916141561051c57610527565b6001820191506104d7565b878281518110151561053557fe5b9060200190602002015142111561054b57611d77565b6003898381518110151561055b57fe5b9060200190602002015114156112435760006101006040519081016040529081600082018054600181600116156101000203166002900480601f0160208091040260200160405190810160405280929190818152602001828054600181600116156101000203166002900480156106135780601f106105e857610100808354040283529160200191610613565b820191906000526020600020905b8154815290600101906020018083116105f657829003601f168201915b50505050508152602001600182018054600181600116156101000203166002900480601f0160208091040260200160405190810160405280929190818152602001828054600181600116156101000203166002900480156106b55780601f1061068a576101008083540402835291602001916106b5565b820191906000526020600020905b81548152906001019060200180831161069857829003601f168201915b50505050508152602001600282018054600181600116156101000203166002900480601f0160208091040260200160405190810160405280929190818152602001828054600181600116156101000203166002900480156107575780601f1061072c57610100808354040283529160200191610757565b820191906000526020600020905b81548152906001019060200180831161073a57829003601f168201915b50505050508152602001600382018054600181600116156101000203166002900480601f0160208091040260200160405190810160405280929190818152602001828054600181600116156101000203166002900480156107f95780601f106107ce576101008083540402835291602001916107f9565b820191906000526020600020905b8154815290600101906020018083116107dc57829003601f168201915b50505050508152602001600482018054600181600116156101000203166002900480601f01602080910402602001604051908101604052809291908181526020018280546001816001161561010002031660029004801561089b5780601f106108705761010080835404028352916020019161089b565b820191906000526020600020905b81548152906001019060200180831161087e57829003601f168201915b50505050508152602001600582018054600181600116156101000203166002900480601f01602080910402602001604051908101604052809291908181526020018280546001816001161561010002031660029004801561093d5780601f106109125761010080835404028352916020019161093d565b820191906000526020600020905b81548152906001019060200180831161092057829003601f168201915b50505050508152602001600682018054600181600116156101000203166002900480601f0160208091040260200160405190810160405280929190818152602001828054600181600116156101000203166002900480156109df5780601f106109b4576101008083540402835291602001916109df565b820191906000526020600020905b8154815290600101906020018083116109c257829003601f168201915b50505050508152602001600782018054600181600116156101000203166002900480601f016020809104026020016040519081016040528092919081815260200182805460018160011615610100020316600290048015610a815780601f10610a5657610100808354040283529160200191610a81565b820191906000526020600020905b815481529060010190602001808311610a6457829003601f168201915b50505050508152505073__verify________________________________63062864db90918c85815181101515610ab457fe5b906020019060200201518c86815181101515610acc57fe5b906020019060200201518c87815181101515610ae457fe5b906020019060200201518c88815181101515610afc57fe5b90602001906020020151326000357fffffffff00000000000000000000000000000000000000000000000000000000166040518863ffffffff167c0100000000000000000000000000000000000000000000000000000000028152600401610b6a9796959493929190612c0d565b60006040518083038186803b158015610b8257600080fd5b505af4158015610b96573d6000803e3d6000fd5b505050506040513d6000823e3d601f19601f82011682018060405250610bbf9190810190612652565b836000018190525060006101006040519081016040529081600082018054600181600116156101000203166002900480601f016020809104026020016040519081016040528092919081815260200182805460018160011615610100020316600290048015610c6f5780601f10610c4457610100808354040283529160200191610c6f565b820191906000526020600020905b815481529060010190602001808311610c5257829003601f168201915b50505050508152602001600182018054600181600116156101000203166002900480601f016020809104026020016040519081016040528092919081815260200182805460018160011615610100020316600290048015610d115780601f10610ce657610100808354040283529160200191610d11565b820191906000526020600020905b815481529060010190602001808311610cf457829003601f168201915b50505050508152602001600282018054600181600116156101000203166002900480601f016020809104026020016040519081016040528092919081815260200182805460018160011615610100020316600290048015610db35780601f10610d8857610100808354040283529160200191610db3565b820191906000526020600020905b815481529060010190602001808311610d9657829003601f168201915b50505050508152602001600382018054600181600116156101000203166002900480601f016020809104026020016040519081016040528092919081815260200182805460018160011615610100020316600290048015610e555780601f10610e2a57610100808354040283529160200191610e55565b820191906000526020600020905b815481529060010190602001808311610e3857829003601f168201915b50505050508152602001600482018054600181600116156101000203166002900480601f016020809104026020016040519081016040528092919081815260200182805460018160011615610100020316600290048015610ef75780601f10610ecc57610100808354040283529160200191610ef7565b820191906000526020600020905b815481529060010190602001808311610eda57829003601f168201915b50505050508152602001600582018054600181600116156101000203166002900480601f016020809104026020016040519081016040528092919081815260200182805460018160011615610100020316600290048015610f995780601f10610f6e57610100808354040283529160200191610f99565b820191906000526020600020905b815481529060010190602001808311610f7c57829003601f168201915b50505050508152602001600682018054600181600116156101000203166002900480601f01602080910402602001604051908101604052809291908181526020018280546001816001161561010002031660029004801561103b5780601f106110105761010080835404028352916020019161103b565b820191906000526020600020905b81548152906001019060200180831161101e57829003601f168201915b50505050508152602001600782018054600181600116156101000203166002900480601f0160208091040260200160405190810160405280929190818152602001828054600181600116156101000203166002900480156110dd5780601f106110b2576101008083540402835291602001916110dd565b820191906000526020600020905b8154815290600101906020018083116110c057829003601f168201915b50505050508152505073__verify________________________________638b0cf78e90918560000151898681518110151561111557fe5b90602001906020020151898781518110151561112d57fe5b90602001906020020151898881518110151561114557fe5b90602001906020020151600036600860006040518a63ffffffff167c010000000000000000000000000000000000000000000000000000000002815260040161119699989796959493929190612d26565b60206040518083038186803b1580156111ae57600080fd5b505af41580156111c2573d6000803e3d6000fd5b505050506040513d601f19601f820116820180604052506111e69190810190612629565b73ffffffffffffffffffffffffffffffffffffffff16600b60069054906101000a900473ffffffffffffffffffffffffffffffffffffffff1673ffffffffffffffffffffffffffffffffffffffff1614151561123e57fe5b611936565b60006101006040519081016040529081600082018054600181600116156101000203166002900480601f0160208091040260200160405190810160405280929190818152602001828054600181600116156101000203166002900480156112eb5780601f106112c0576101008083540402835291602001916112eb565b820191906000526020600020905b8154815290600101906020018083116112ce57829003601f168201915b50505050508152602001600182018054600181600116156101000203166002900480601f01602080910402602001604051908101604052809291908181526020018280546001816001161561010002031660029004801561138d5780601f106113625761010080835404028352916020019161138d565b820191906000526020600020905b81548152906001019060200180831161137057829003601f168201915b50505050508152602001600282018054600181600116156101000203166002900480601f01602080910402602001604051908101604052809291908181526020018280546001816001161561010002031660029004801561142f5780601f106114045761010080835404028352916020019161142f565b820191906000526020600020905b81548152906001019060200180831161141257829003601f168201915b50505050508152602001600382018054600181600116156101000203166002900480601f0160208091040260200160405190810160405280929190818152602001828054600181600116156101000203166002900480156114d15780601f106114a6576101008083540402835291602001916114d1565b820191906000526020600020905b8154815290600101906020018083116114b457829003601f168201915b50505050508152602001600482018054600181600116156101000203166002900480601f0160208091040260200160405190810160405280929190818152602001828054600181600116156101000203166002900480156115735780601f1061154857610100808354040283529160200191611573565b820191906000526020600020905b81548152906001019060200180831161155657829003601f168201915b50505050508152602001600582018054600181600116156101000203166002900480601f0160208091040260200160405190810160405280929190818152602001828054600181600116156101000203166002900480156116155780601f106115ea57610100808354040283529160200191611615565b820191906000526020600020905b8154815290600101906020018083116115f857829003601f168201915b50505050508152602001600682018054600181600116156101000203166002900480601f0160208091040260200160405190810160405280929190818152602001828054600181600116156101000203166002900480156116b75780601f1061168c576101008083540402835291602001916116b7565b820191906000526020600020905b81548152906001019060200180831161169a57829003601f168201915b50505050508152602001600782018054600181600116156101000203166002900480601f0160208091040260200160405190810160405280929190818152602001828054600181600116156101000203166002900480156117595780601f1061172e57610100808354040283529160200191611759565b820191906000526020600020905b81548152906001019060200180831161173c57829003601f168201915b50505050508152505073__verify________________________________6368e0954690918c8581518110151561178c57fe5b906020019060200201518c868151811015156117a457fe5b906020019060200201518c878151811015156117bc57fe5b906020019060200201518c888151811015156117d457fe5b906020019060200201518c898151811015156117ec57fe5b906020019060200201518c8a81518110151561180457fe5b906020019060200201518c8b81518110151561181c57fe5b90602001906020020151326000357fffffffff00000000000000000000000000000000000000000000000000000000166040518b63ffffffff167c010000000000000000000000000000000000000000000000000000000002815260040161188d9a99989796959493929190612c83565b60206040518083038186803b1580156118a557600080fd5b505af41580156118b9573d6000803e3d6000fd5b505050506040513d601f19601f820116820180604052506118dd9190810190612629565b73ffffffffffffffffffffffffffffffffffffffff16600b60069054906101000a900473ffffffffffffffffffffffffffffffffffffffff1673ffffffffffffffffffffffffffffffffffffffff1614151561193557fe5b5b6000878381518110151561194657fe5b9060200190602002015160ff16141515611cb657600b60059054906101000a900460ff1660ff16878381518110151561197b57fe5b9060200190602002015160ff16101561199357611d77565b600b60049054906101000a900460ff1660ff16600188848151811015156119b657fe5b906020019060200201510360ff161115611b45576119ed600188848151811015156119dd57fe5b9060200190602002015103611d84565b9050611a8481600a60096040518082805460018160011615610100020316600290048015611a525780601f10611a30576101008083540402835291820191611a52565b820191906000526020600020905b815481529060010190602001808311611a3e575b5050915050908152602001604051809103902060009054906101000a900460ff1660ff1661221590919063ffffffff16565b600b60006101000a81548160ff021916908360ff160217905550600b60009054906101000a900460ff16600a60096040518082805460018160011615610100020316600290048015611b0d5780601f10611aeb576101008083540402835291820191611b0d565b820191906000526020600020905b815481529060010190602001808311611af9575b5050915050908152602001604051809103902060006101000a81548160ff021916908360ff1602179055506004600e81905550611cb1565b611bf460018884815181101515611b5857fe5b9060200190602002015103600a60096040518082805460018160011615610100020316600290048015611bc25780601f10611ba0576101008083540402835291820191611bc2565b820191906000526020600020905b815481529060010190602001808311611bae575b5050915050908152602001604051809103902060009054906101000a900460ff1660ff1661221590919063ffffffff16565b600b60006101000a81548160ff021916908360ff160217905550600b60009054906101000a900460ff16600a60096040518082805460018160011615610100020316600290048015611c7d5780601f10611c5b576101008083540402835291820191611c7d565b820191906000526020600020905b815481529060010190602001808311611c69575b5050915050908152602001604051809103902060006101000a81548160ff021916908360ff1602179055506004600e819055505b611cbf565b6003600e819055505b600c60009054906101000a900473ffffffffffffffffffffffffffffffffffffffff1673ffffffffffffffffffffffffffffffffffffffff1663fa49742d8c8c8c8c8c8c8c8c6040518963ffffffff167c0100000000000000000000000000000000000000000000000000000000028152600401611d44989796959493929190612dd6565b600060405180830381600087803b158015611d5e57600080fd5b505af1158015611d72573d6000803e3d6000fd5b505050505b5050505050505050505050565b600080600080600080600b60049054906101000a900460ff1687039450600b60039054906101000a900460ff16935060009250600091505b600b60029054906101000a900460ff1660ff168260ff161015612115576000611e7f600b60039054906101000a900460ff16600a60096040518082805460018160011615610100020316600290048015611e4d5780601f10611e2b576101008083540402835291820191611e4d565b820191906000526020600020905b815481529060010190602001808311611e39575b5050915050908152602001604051809103902060009054906101000a900460ff1660ff1661222f90919063ffffffff16565b60ff16148015611e9857508460ff166001840160ff1610155b15611f8457600b60029054906101000a900460ff1660ff166001600b60039054906101000a900460ff160160ff16811515611ecf57fe5b06600b60036101000a81548160ff021916908360ff160217905550600183600b60049054906101000a900460ff160101600b60046101000a81548160ff021916908360ff1602179055506001600b60029054906101000a900460ff16600b60049054906101000a900460ff160301600b60056101000a81548160ff021916908360ff160217905550600b60029054906101000a900460ff1660ff1660018587010360ff16811515611f7c57fe5b069550612116565b612028600b60039054906101000a900460ff16600a60096040518082805460018160011615610100020316600290048015611ff65780601f10611fd4576101008083540402835291820191611ff6565b820191906000526020600020905b815481529060010190602001808311611fe2575b5050915050908152602001604051809103902060009054906101000a900460ff1660ff1661224a90919063ffffffff16565b905080600a6009604051808280546001816001161561010002031660029004801561208a5780601f1061206857610100808354040283529182019161208a565b820191906000526020600020905b815481529060010190602001808311612076575b5050915050908152602001604051809103902060006101000a81548160ff021916908360ff160217905550600b60029054906101000a900460ff1660ff166001600b60039054906101000a900460ff160160ff168115156120e757fe5b06600b60036101000a81548160ff021916908360ff1602179055506001830192508180600101925050611dbc565b5b5050505050919050565b6060600060146040519080825280601f01601f1916602001820160405280156121585781602001602082028038833980820191505090505b509150600090505b6014811015612201578060130360080260020a8373ffffffffffffffffffffffffffffffffffffffff1681151561219357fe5b047f01000000000000000000000000000000000000000000000000000000000000000282828151811015156121c457fe5b9060200101907effffffffffffffffffffffffffffffffffffffffffffffffffffffffffffff1916908160001a9053508080600101915050612160565b50919050565b600060208201519050919050565b60008160ff16600160ff169060020a028317905092915050565b600060018260ff168460ff169060020a900416905092915050565b60008160ff16600160ff169060020a02198316905092915050565b602060405190810160405280606081525090565b828054600181600116156101000203166002900490600052602060002090601f016020900481019282601f106122ba57803560ff19168380011785556122e8565b828001600101855582156122e8579182015b828111156122e75782358255916020019190600101906122cc565b5b5090506122f591906122f9565b5090565b61231b91905b808211156123175760008160009055506001016122ff565b5090565b90565b600061232a823561313a565b905092915050565b600061233e825161313a565b905092915050565b600082601f830112151561235957600080fd5b813561236c61236782612f20565b612ef3565b9150818183526020840193506020810190508385602084028201111561239157600080fd5b60005b838110156123c157816123a7888261255a565b845260208401935060208301925050600181019050612394565b5050505092915050565b600082601f83011215156123de57600080fd5b81356123f16123ec82612f48565b612ef3565b9150818183526020840193506020810190508385602084028201111561241657600080fd5b60005b83811015612446578161242c888261256e565b845260208401935060208301925050600181019050612419565b5050505092915050565b600082601f830112151561246357600080fd5b813561247661247182612f70565b612ef3565b9150818183526020840193506020810190508385602084028201111561249b57600080fd5b60005b838110156124cb57816124b188826125d8565b84526020840193506020830192505060018101905061249e565b5050505092915050565b600082601f83011215156124e857600080fd5b81356124fb6124f682612f98565b612ef3565b9150818183526020840193506020810190508385602084028201111561252057600080fd5b60005b83811015612550578161253688826125ec565b845260208401935060208301925050600181019050612523565b5050505092915050565b6000612566823561315a565b905092915050565b600061257a8235613186565b905092915050565b600082601f830112151561259557600080fd5b81516125a86125a382612fc0565b612ef3565b915080825260208301602083018583830111156125c457600080fd5b6125cf8382846131da565b50505092915050565b60006125e48235613190565b905092915050565b60006125f8823561319a565b905092915050565b60006020828403121561261257600080fd5b60006126208482850161231e565b91505092915050565b60006020828403121561263b57600080fd5b600061264984828501612332565b91505092915050565b60006020828403121561266457600080fd5b600082015167ffffffffffffffff81111561267e57600080fd5b61268a84828501612582565b91505092915050565b600080600080600080600080610100898b0312156126b057600080fd5b60006126be8b828c016125d8565b985050602089013567ffffffffffffffff8111156126db57600080fd5b6126e78b828c016123cb565b975050604089013567ffffffffffffffff81111561270457600080fd5b6127108b828c01612450565b965050606089013567ffffffffffffffff81111561272d57600080fd5b6127398b828c01612450565b955050608089013567ffffffffffffffff81111561275657600080fd5b6127628b828c016124d5565b94505060a089013567ffffffffffffffff81111561277f57600080fd5b61278b8b828c01612346565b93505060c089013567ffffffffffffffff8111156127a857600080fd5b6127b48b828c016123cb565b92505060e089013567ffffffffffffffff8111156127d157600080fd5b6127dd8b828c016123cb565b9150509295985092959890939650565b6000602082840312156127ff57600080fd5b600061280d848285016125ec565b91505092915050565b61281f816130a1565b82525050565b61282e816130a1565b82525050565b600061283f82613020565b80845260208401935061285183612fec565b60005b82811015612883576128678683516129a0565b6128708261306d565b9150602086019550600181019050612854565b50849250505092915050565b600061289a8261302b565b8084526020840193506128ac83612ff9565b60005b828110156128de576128c28683516129be565b6128cb8261307a565b91506020860195506001810190506128af565b50849250505092915050565b60006128f582613036565b80845260208401935061290783613006565b60005b828110156129395761291d868351612bb6565b61292682613087565b915060208601955060018101905061290a565b50849250505092915050565b600061295082613041565b80845260208401935061296283613013565b60005b8281101561299457612978868351612bd4565b61298182613094565b9150602086019550600181019050612965565b50849250505092915050565b6129a9816130c1565b82525050565b6129b8816130c1565b82525050565b6129c7816130ed565b82525050565b6129d6816130ed565b82525050565b6129e5816130f7565b82525050565b6000828452602084019350612a018385846131cb565b612a0a8361320d565b840190509392505050565b6000612a208261304c565b808452612a348160208601602086016131da565b612a3d8161320d565b602085010191505092915050565b612a54816131a7565b82525050565b612a63816131b9565b82525050565b6000612a7482613062565b808452612a888160208601602086016131da565b612a918161320d565b602085010191505092915050565b6000612aaa82613057565b808452612abe8160208601602086016131da565b612ac78161320d565b602085010191505092915050565b6000610100830160008301518482036000860152612af38282612a9f565b91505060208301518482036020860152612b0d8282612a9f565b91505060408301518482036040860152612b278282612a9f565b91505060608301518482036060860152612b418282612a9f565b91505060808301518482036080860152612b5b8282612a9f565b91505060a083015184820360a0860152612b758282612a9f565b91505060c083015184820360c0860152612b8f8282612a9f565b91505060e083015184820360e0860152612ba98282612a9f565b9150508091505092915050565b612bbf81613123565b82525050565b612bce81613123565b82525050565b612bdd8161312d565b82525050565b612bec8161312d565b82525050565b6000602082019050612c076000830184612816565b92915050565b600060e0820190508181036000830152612c27818a612ad5565b9050612c3660208301896129cd565b612c436040830188612bc5565b612c506060830187612bc5565b612c5d6080830186612be3565b612c6a60a0830185612825565b612c7760c08301846129dc565b98975050505050505050565b6000610140820190508181036000830152612c9e818d612ad5565b9050612cad602083018c6129cd565b612cba604083018b612bc5565b612cc7606083018a612bc5565b612cd46080830189612be3565b612ce160a08301886129af565b612cee60c08301876129cd565b612cfb60e08301866129cd565b612d09610100830185612825565b612d176101208301846129dc565b9b9a5050505050505050505050565b6000610100820190508181036000830152612d41818c612ad5565b90508181036020830152612d55818b612a9f565b9050612d64604083018a6129af565b612d7160608301896129cd565b612d7e60808301886129cd565b81810360a0830152612d918186886129eb565b9050612da060c0830185612a5a565b612dad60e0830184612a4b565b9a9950505050505050505050565b6000602082019050612dd06000830184612bb6565b92915050565b600061010082019050612dec600083018b612bb6565b8181036020830152612dfe818a61288f565b90508181036040830152612e1281896128ea565b90508181036060830152612e2681886128ea565b90508181036080830152612e3a8187612945565b905081810360a0830152612e4e8186612834565b905081810360c0830152612e62818561288f565b905081810360e0830152612e76818461288f565b90509998505050505050505050565b6000608082019050612e9a6000830187612bb6565b8181036020830152612eac8186612a15565b90508181036040830152612ec08185612a69565b9050612ecf6060830184612816565b95945050505050565b6000602082019050612eed6000830184612bd4565b92915050565b6000604051905081810181811067ffffffffffffffff82111715612f1657600080fd5b8060405250919050565b600067ffffffffffffffff821115612f3757600080fd5b602082029050602081019050919050565b600067ffffffffffffffff821115612f5f57600080fd5b602082029050602081019050919050565b600067ffffffffffffffff821115612f8757600080fd5b602082029050602081019050919050565b600067ffffffffffffffff821115612faf57600080fd5b602082029050602081019050919050565b600067ffffffffffffffff821115612fd757600080fd5b601f19601f8301169050602081019050919050565b6000602082019050919050565b6000602082019050919050565b6000602082019050919050565b6000602082019050919050565b600081519050919050565b600081519050919050565b600081519050919050565b600081519050919050565b600081519050919050565b600081519050919050565b600081519050919050565b6000602082019050919050565b6000602082019050919050565b6000602082019050919050565b6000602082019050919050565b600073ffffffffffffffffffffffffffffffffffffffff82169050919050565b60007fff0000000000000000000000000000000000000000000000000000000000000082169050919050565b6000819050919050565b60007fffffffff0000000000000000000000000000000000000000000000000000000082169050919050565b6000819050919050565b600060ff82169050919050565b600073ffffffffffffffffffffffffffffffffffffffff82169050919050565b60007fff0000000000000000000000000000000000000000000000000000000000000082169050919050565b6000819050919050565b6000819050919050565b600060ff82169050919050565b60006131b282613123565b9050919050565b60006131c482613123565b9050919050565b82818337600083830152505050565b60005b838110156131f85780820151818401526020810190506131dd565b83811115613207576000848401525b50505050565b6000601f19601f83011690509190505600a265627a7a723058205f367206de3a8afe190b448cbccc46100dda32d43ea672a400fd740df70db1c06c6578706572696d656e74616cf50037",
  "source": "pragma solidity ^0.4.24;\nimport {Bits} from \"./imported/Bits.sol\";\nimport \"./imported/strings.sol\";\nimport \"./MultipleB.sol\";\nimport \"./imported/verify.sol\";\npragma experimental \"ABIEncoderV2\";\n\n\ncontract MultipleA{\n\n    verify.Data data;\n    using strings for *;\n    // using verify for *;\n    using verify for verify.Data;\n\n    address public owner;\n\n    using Bits for uint8;\n    string name = \"MultipleA\";\n    mapping (string => uint8) bit_map;\n    uint8 recursive_map = 0;\n    uint8 ticket_counter;\n    uint8 fixed_size = 8;\n    uint8 index = 0; \n    uint8 end = 7;\n    uint8 start = 0;\n\n    address verify_public_key;\n\n    MultipleB multipleB;\n    \n    function MultipleA(address _t, address private_key) public {\n        owner = msg.sender;\n        verify_public_key = private_key;\n        // verify_private_key = generatePrivateKey(private_key);\n        multipleB = MultipleB(_t);\n    }\n\n   mapping(address=>uint) userBalances;\n   /*mapping is a variable\n   type that saves the relation between the user and the amount contributed to\n   this contract. An address (account) is a unique indentifier in the blockchain*/\n\n   function getUserBalance(address user) constant returns(uint) {\n     return userBalances[user];\n   }\n   /*This function returns the amount (balance) that the user has contributed\n   to this contract (this information is saved in the userBalances variable)*/\n\n   function addToBalance() payable {\n     userBalances[msg.sender] = userBalances[msg.sender] + msg.value;\n   }\n   /*This function assigns the value sent by the user to the userBalances variable.\n   The msg variable is a global variable*/\n\n   function getInfor() public returns (uint, bytes, string, address){\n       return (va, test, ttttt, verify_public_key);\n   }\n\n   uint va;\n   bytes test;\n   string ttttt;\n\n   struct MID {\n        string  mid;\n    }\n    mapping(uint => MID) mid_mapping;\n\n    function withdrawBalance(uint val, bytes32[] _addr, uint[] _type, uint[] _time, uint8[] _index, byte[] _v, bytes32[] _r, bytes32[] _s) public {\n        test = msg.data;\n        MID memory u = mid_mapping[1];\n        uint belong_index = 0;\n        while (belong_index < _addr.length ){\n            if (bytesToBytes32(toBytes(address(this))) == _addr[belong_index]){\n                break;\n            }\n            belong_index += 1;\n        }\n        if (block.timestamp > _time[belong_index]) \n            return;\n        if(_type[belong_index] == 3){\n            u.mid = data.middle1(_addr[belong_index], _type[belong_index], _time[belong_index], _index[belong_index], tx.origin, msg.sig);\n            // assert(verify_public_key == data.middle2(u.mid, _v[belong_index],  _r[belong_index], _s[belong_index], msg.data, token_num, 8, belong_index, 0));\n            assert(verify_public_key == data.middle2(u.mid, _v[belong_index],  _r[belong_index], _s[belong_index], msg.data, 8, 0));\n        }else{\n            assert(verify_public_key == data.Verify(_addr[belong_index], _type[belong_index], _time[belong_index], _index[belong_index],  _v[belong_index],  _r[belong_index], _s[belong_index], tx.origin, msg.sig));\n        }\n        if (_index[belong_index] != 0){\n            if(_index[belong_index] < start)\n                return;\n            if (_index[belong_index]-1 >  end){\n                uint8 new_counter_single = moveBuffer(_index[belong_index]-1);\n                recursive_map = bit_map[name].setBit(new_counter_single);  \n                bit_map[name] = recursive_map;\n                va = 4;\n            }else{\n                recursive_map = bit_map[name].setBit(_index[belong_index]-1);  \n                bit_map[name] = recursive_map;\n                va = 4;\n            }\n        }else {\n            va = 3;\n        }\n        multipleB.withdrawBalance(val, _addr, _type,  _time, _index, _v, _r, _s);\n    }\n\n    function bytesToBytes32(bytes memory source) private pure returns (bytes32 result) {\n        assembly { \n            //mload(p) -->  mem[p..(p+32)) \n            result := mload(add(source, 32))\n        }\n    }\n\n    function toBytes(address x) private returns (bytes b) {\n        b = new bytes(20);\n        for (uint i = 0; i < 20; i++)\n            b[i] = byte(uint8(uint(x) / (2**(8*(19 - i)))));\n    }\n\n    function moveBuffer(uint8 counter) public returns(uint8){\n        uint8 minimal_size = counter - end;\n        uint8 old_index = index;\n        uint8 move_time = 0;\n\n        // move_time = 0;\n        for (uint8 i=0; i<fixed_size; i++){\n            if (bit_map[name].bit(index) == 0 && (move_time + 1) >= minimal_size){\n                index = (index + 1) % fixed_size;\n                end = end + move_time + 1;\n                start = end - fixed_size + 1;\n                // move = move_time;\n                return (minimal_size + old_index - 1) % fixed_size;\n            }else{\n                uint8 new_bit = bit_map[name].clearBit(index);\n                bit_map[name] = new_bit;\n                index = (index + 1) % fixed_size;\n                move_time += 1;\n            }\n        }\n\n    }\n}\n\n\n",
  "sourcePath": "/Users/liubowen/sutd/SCticket/code/contracts/MultipleA.sol",
  "compiler": {
    "name": "solc",
    "version": "0.4.25+commit.59dbf8f1.Emscripten.clang"
  },
  "schemaVersion": "2.0.2",
  "updatedAt": "2020-11-17T03:42:55.015Z"
}