{
  "contractName": "MultipleC",
  "abi": [
    {
      "constant": true,
      "inputs": [],
      "name": "owner",
      "outputs": [
        {
          "name": "",
          "type": "address"
        }
      ],
      "payable": false,
      "stateMutability": "view",
      "type": "function"
    },
    {
      "inputs": [
        {
          "name": "_t",
          "type": "address"
        },
        {
          "name": "private_key",
          "type": "address"
        }
      ],
      "payable": false,
      "stateMutability": "nonpayable",
      "type": "constructor"
    },
    {
      "constant": true,
      "inputs": [
        {
          "name": "user",
          "type": "address"
        }
      ],
      "name": "getUserBalance",
      "outputs": [
        {
          "name": "",
          "type": "uint256"
        }
      ],
      "payable": false,
      "stateMutability": "view",
      "type": "function"
    },
    {
      "constant": false,
      "inputs": [],
      "name": "addToBalance",
      "outputs": [],
      "payable": true,
      "stateMutability": "payable",
      "type": "function"
    },
    {
      "constant": false,
      "inputs": [],
      "name": "getInfor",
      "outputs": [
        {
          "name": "",
          "type": "uint256"
        }
      ],
      "payable": false,
      "stateMutability": "nonpayable",
      "type": "function"
    },
    {
      "constant": false,
      "inputs": [
        {
          "name": "val",
          "type": "uint256"
        }
      ],
      "name": "setA",
      "outputs": [],
      "payable": false,
      "stateMutability": "nonpayable",
      "type": "function"
    },
    {
      "constant": false,
      "inputs": [
        {
          "name": "val",
          "type": "uint256"
        },
        {
          "name": "_addr",
          "type": "bytes32[]"
        },
        {
          "name": "_type",
          "type": "uint256[]"
        },
        {
          "name": "_time",
          "type": "uint256[]"
        },
        {
          "name": "_index",
          "type": "uint8[]"
        },
        {
          "name": "_v",
          "type": "bytes1[]"
        },
        {
          "name": "_r",
          "type": "bytes32[]"
        },
        {
          "name": "_s",
          "type": "bytes32[]"
        }
      ],
      "name": "withdrawBalance",
      "outputs": [],
      "payable": false,
      "stateMutability": "nonpayable",
      "type": "function"
    },
    {
      "constant": false,
      "inputs": [
        {
          "name": "counter",
          "type": "uint8"
        }
      ],
      "name": "moveBuffer",
      "outputs": [
        {
          "name": "",
          "type": "uint8"
        }
      ],
      "payable": false,
      "stateMutability": "nonpayable",
      "type": "function"
    }
  ],
  "bytecode": "0x60806040526040805190810160405280600981526020017f4d756c7469706c654300000000000000000000000000000000000000000000008152506009908051906020019062000051929190620001d8565b506000600b60006101000a81548160ff021916908360ff1602179055506008600b60026101000a81548160ff021916908360ff1602179055506000600b60036101000a81548160ff021916908360ff1602179055506007600b60046101000a81548160ff021916908360ff1602179055506000600b60056101000a81548160ff021916908360ff160217905550348015620000eb57600080fd5b50604051604080620032d083398101806040526200010d91908101906200029d565b33600860006101000a81548173ffffffffffffffffffffffffffffffffffffffff021916908373ffffffffffffffffffffffffffffffffffffffff16021790555080600b60066101000a81548173ffffffffffffffffffffffffffffffffffffffff021916908373ffffffffffffffffffffffffffffffffffffffff16021790555081600d60016101000a81548173ffffffffffffffffffffffffffffffffffffffff021916908373ffffffffffffffffffffffffffffffffffffffff1602179055505050620002fe565b828054600181600116156101000203166002900490600052602060002090601f016020900481019282601f106200021b57805160ff19168380011785556200024c565b828001600101855582156200024c579182015b828111156200024b5782518255916020019190600101906200022e565b5b5090506200025b91906200025f565b5090565b6200028491905b808211156200028057600081600090555060010162000266565b5090565b90565b6000620002958251620002de565b905092915050565b60008060408385031215620002b157600080fd5b6000620002c18582860162000287565b9250506020620002d48582860162000287565b9150509250929050565b600073ffffffffffffffffffffffffffffffffffffffff82169050919050565b612fc2806200030e6000396000f300608060405260043610610083576000357c0100000000000000000000000000000000000000000000000000000000900463ffffffff16806347734892146100885780638da5cb5b146100c5578063c0e317fb146100f0578063ee919d50146100fa578063f2b677fe14610123578063fa49742d1461014e578063fc02a65514610177575b600080fd5b34801561009457600080fd5b506100af60048036036100aa9190810190612416565b6101b4565b6040516100bc9190612b8e565b60405180910390f35b3480156100d157600080fd5b506100da6101fd565b6040516100e791906129c5565b60405180910390f35b6100f8610223565b005b34801561010657600080fd5b50610121600480360361011c91908101906124a9565b6102aa565b005b34801561012f57600080fd5b506101386102b4565b6040516101459190612b8e565b60405180910390f35b34801561015a57600080fd5b50610175600480360361017091908101906124d2565b6102be565b005b34801561018357600080fd5b5061019e6004803603610199919081019061262c565b611c3f565b6040516101ab9190612c58565b60405180910390f35b6000600e60008373ffffffffffffffffffffffffffffffffffffffff1673ffffffffffffffffffffffffffffffffffffffff168152602001908152602001600020549050919050565b600860009054906101000a900473ffffffffffffffffffffffffffffffffffffffff1681565b34600e60003373ffffffffffffffffffffffffffffffffffffffff1673ffffffffffffffffffffffffffffffffffffffff1681526020019081526020016000205401600e60003373ffffffffffffffffffffffffffffffffffffffff1673ffffffffffffffffffffffffffffffffffffffff16815260200190815260200160002081905550565b80600f8190555050565b6000600f54905090565b6102c6612120565b600080601060006001815260200190815260200160002060206040519081016040529081600082018054600181600116156101000203166002900480601f0160208091040260200160405190810160405280929190818152602001828054600181600116156101000203166002900480156103825780601f1061035757610100808354040283529160200191610382565b820191906000526020600020905b81548152906001019060200180831161036557829003601f168201915b5050505050815250509250600091505b89518210156103e25789828151811015156103a957fe5b90602001906020020151600019166103c86103c330611fdb565b6120c2565b6000191614156103d7576103e2565b600182019150610392565b87828151811015156103f057fe5b9060200190602002015142111561040657611c32565b6003898381518110151561041657fe5b9060200190602002015114156110fe5760006101006040519081016040529081600082018054600181600116156101000203166002900480601f0160208091040260200160405190810160405280929190818152602001828054600181600116156101000203166002900480156104ce5780601f106104a3576101008083540402835291602001916104ce565b820191906000526020600020905b8154815290600101906020018083116104b157829003601f168201915b50505050508152602001600182018054600181600116156101000203166002900480601f0160208091040260200160405190810160405280929190818152602001828054600181600116156101000203166002900480156105705780601f1061054557610100808354040283529160200191610570565b820191906000526020600020905b81548152906001019060200180831161055357829003601f168201915b50505050508152602001600282018054600181600116156101000203166002900480601f0160208091040260200160405190810160405280929190818152602001828054600181600116156101000203166002900480156106125780601f106105e757610100808354040283529160200191610612565b820191906000526020600020905b8154815290600101906020018083116105f557829003601f168201915b50505050508152602001600382018054600181600116156101000203166002900480601f0160208091040260200160405190810160405280929190818152602001828054600181600116156101000203166002900480156106b45780601f10610689576101008083540402835291602001916106b4565b820191906000526020600020905b81548152906001019060200180831161069757829003601f168201915b50505050508152602001600482018054600181600116156101000203166002900480601f0160208091040260200160405190810160405280929190818152602001828054600181600116156101000203166002900480156107565780601f1061072b57610100808354040283529160200191610756565b820191906000526020600020905b81548152906001019060200180831161073957829003601f168201915b50505050508152602001600582018054600181600116156101000203166002900480601f0160208091040260200160405190810160405280929190818152602001828054600181600116156101000203166002900480156107f85780601f106107cd576101008083540402835291602001916107f8565b820191906000526020600020905b8154815290600101906020018083116107db57829003601f168201915b50505050508152602001600682018054600181600116156101000203166002900480601f01602080910402602001604051908101604052809291908181526020018280546001816001161561010002031660029004801561089a5780601f1061086f5761010080835404028352916020019161089a565b820191906000526020600020905b81548152906001019060200180831161087d57829003601f168201915b50505050508152602001600782018054600181600116156101000203166002900480601f01602080910402602001604051908101604052809291908181526020018280546001816001161561010002031660029004801561093c5780601f106109115761010080835404028352916020019161093c565b820191906000526020600020905b81548152906001019060200180831161091f57829003601f168201915b50505050508152505073__verify________________________________63062864db90918c8581518110151561096f57fe5b906020019060200201518c8681518110151561098757fe5b906020019060200201518c8781518110151561099f57fe5b906020019060200201518c888151811015156109b757fe5b90602001906020020151326000357fffffffff00000000000000000000000000000000000000000000000000000000166040518863ffffffff167c0100000000000000000000000000000000000000000000000000000000028152600401610a2597969594939291906129e0565b60006040518083038186803b158015610a3d57600080fd5b505af4158015610a51573d6000803e3d6000fd5b505050506040513d6000823e3d601f19601f82011682018060405250610a7a9190810190612468565b836000018190525060006101006040519081016040529081600082018054600181600116156101000203166002900480601f016020809104026020016040519081016040528092919081815260200182805460018160011615610100020316600290048015610b2a5780601f10610aff57610100808354040283529160200191610b2a565b820191906000526020600020905b815481529060010190602001808311610b0d57829003601f168201915b50505050508152602001600182018054600181600116156101000203166002900480601f016020809104026020016040519081016040528092919081815260200182805460018160011615610100020316600290048015610bcc5780601f10610ba157610100808354040283529160200191610bcc565b820191906000526020600020905b815481529060010190602001808311610baf57829003601f168201915b50505050508152602001600282018054600181600116156101000203166002900480601f016020809104026020016040519081016040528092919081815260200182805460018160011615610100020316600290048015610c6e5780601f10610c4357610100808354040283529160200191610c6e565b820191906000526020600020905b815481529060010190602001808311610c5157829003601f168201915b50505050508152602001600382018054600181600116156101000203166002900480601f016020809104026020016040519081016040528092919081815260200182805460018160011615610100020316600290048015610d105780601f10610ce557610100808354040283529160200191610d10565b820191906000526020600020905b815481529060010190602001808311610cf357829003601f168201915b50505050508152602001600482018054600181600116156101000203166002900480601f016020809104026020016040519081016040528092919081815260200182805460018160011615610100020316600290048015610db25780601f10610d8757610100808354040283529160200191610db2565b820191906000526020600020905b815481529060010190602001808311610d9557829003601f168201915b50505050508152602001600582018054600181600116156101000203166002900480601f016020809104026020016040519081016040528092919081815260200182805460018160011615610100020316600290048015610e545780601f10610e2957610100808354040283529160200191610e54565b820191906000526020600020905b815481529060010190602001808311610e3757829003601f168201915b50505050508152602001600682018054600181600116156101000203166002900480601f016020809104026020016040519081016040528092919081815260200182805460018160011615610100020316600290048015610ef65780601f10610ecb57610100808354040283529160200191610ef6565b820191906000526020600020905b815481529060010190602001808311610ed957829003601f168201915b50505050508152602001600782018054600181600116156101000203166002900480601f016020809104026020016040519081016040528092919081815260200182805460018160011615610100020316600290048015610f985780601f10610f6d57610100808354040283529160200191610f98565b820191906000526020600020905b815481529060010190602001808311610f7b57829003601f168201915b50505050508152505073__verify________________________________638b0cf78e909185600001518986815181101515610fd057fe5b906020019060200201518987815181101515610fe857fe5b90602001906020020151898881518110151561100057fe5b90602001906020020151600036600860006040518a63ffffffff167c010000000000000000000000000000000000000000000000000000000002815260040161105199989796959493929190612af9565b60206040518083038186803b15801561106957600080fd5b505af415801561107d573d6000803e3d6000fd5b505050506040513d601f19601f820116820180604052506110a1919081019061243f565b73ffffffffffffffffffffffffffffffffffffffff16600b60069054906101000a900473ffffffffffffffffffffffffffffffffffffffff1673ffffffffffffffffffffffffffffffffffffffff161415156110f957fe5b6117f1565b60006101006040519081016040529081600082018054600181600116156101000203166002900480601f0160208091040260200160405190810160405280929190818152602001828054600181600116156101000203166002900480156111a65780601f1061117b576101008083540402835291602001916111a6565b820191906000526020600020905b81548152906001019060200180831161118957829003601f168201915b50505050508152602001600182018054600181600116156101000203166002900480601f0160208091040260200160405190810160405280929190818152602001828054600181600116156101000203166002900480156112485780601f1061121d57610100808354040283529160200191611248565b820191906000526020600020905b81548152906001019060200180831161122b57829003601f168201915b50505050508152602001600282018054600181600116156101000203166002900480601f0160208091040260200160405190810160405280929190818152602001828054600181600116156101000203166002900480156112ea5780601f106112bf576101008083540402835291602001916112ea565b820191906000526020600020905b8154815290600101906020018083116112cd57829003601f168201915b50505050508152602001600382018054600181600116156101000203166002900480601f01602080910402602001604051908101604052809291908181526020018280546001816001161561010002031660029004801561138c5780601f106113615761010080835404028352916020019161138c565b820191906000526020600020905b81548152906001019060200180831161136f57829003601f168201915b50505050508152602001600482018054600181600116156101000203166002900480601f01602080910402602001604051908101604052809291908181526020018280546001816001161561010002031660029004801561142e5780601f106114035761010080835404028352916020019161142e565b820191906000526020600020905b81548152906001019060200180831161141157829003601f168201915b50505050508152602001600582018054600181600116156101000203166002900480601f0160208091040260200160405190810160405280929190818152602001828054600181600116156101000203166002900480156114d05780601f106114a5576101008083540402835291602001916114d0565b820191906000526020600020905b8154815290600101906020018083116114b357829003601f168201915b50505050508152602001600682018054600181600116156101000203166002900480601f0160208091040260200160405190810160405280929190818152602001828054600181600116156101000203166002900480156115725780601f1061154757610100808354040283529160200191611572565b820191906000526020600020905b81548152906001019060200180831161155557829003601f168201915b50505050508152602001600782018054600181600116156101000203166002900480601f0160208091040260200160405190810160405280929190818152602001828054600181600116156101000203166002900480156116145780601f106115e957610100808354040283529160200191611614565b820191906000526020600020905b8154815290600101906020018083116115f757829003601f168201915b50505050508152505073__verify________________________________6368e0954690918c8581518110151561164757fe5b906020019060200201518c8681518110151561165f57fe5b906020019060200201518c8781518110151561167757fe5b906020019060200201518c8881518110151561168f57fe5b906020019060200201518c898151811015156116a757fe5b906020019060200201518c8a8151811015156116bf57fe5b906020019060200201518c8b8151811015156116d757fe5b90602001906020020151326000357fffffffff00000000000000000000000000000000000000000000000000000000166040518b63ffffffff167c01000000000000000000000000000000000000000000000000000000000281526004016117489a99989796959493929190612a56565b60206040518083038186803b15801561176057600080fd5b505af4158015611774573d6000803e3d6000fd5b505050506040513d601f19601f82011682018060405250611798919081019061243f565b73ffffffffffffffffffffffffffffffffffffffff16600b60069054906101000a900473ffffffffffffffffffffffffffffffffffffffff1673ffffffffffffffffffffffffffffffffffffffff161415156117f057fe5b5b6000878381518110151561180157fe5b9060200190602002015160ff16141515611b7157600b60059054906101000a900460ff1660ff16878381518110151561183657fe5b9060200190602002015160ff16101561184e57611c32565b600b60049054906101000a900460ff1660ff166001888481518110151561187157fe5b906020019060200201510360ff161115611a00576118a86001888481518110151561189857fe5b9060200190602002015103611c3f565b905061193f81600a6009604051808280546001816001161561010002031660029004801561190d5780601f106118eb57610100808354040283529182019161190d565b820191906000526020600020905b8154815290600101906020018083116118f9575b5050915050908152602001604051809103902060009054906101000a900460ff1660ff166120d090919063ffffffff16565b600b60006101000a81548160ff021916908360ff160217905550600b60009054906101000a900460ff16600a600960405180828054600181600116156101000203166002900480156119c85780601f106119a65761010080835404028352918201916119c8565b820191906000526020600020905b8154815290600101906020018083116119b4575b5050915050908152602001604051809103902060006101000a81548160ff021916908360ff1602179055506004600f81905550611b6c565b611aaf60018884815181101515611a1357fe5b9060200190602002015103600a60096040518082805460018160011615610100020316600290048015611a7d5780601f10611a5b576101008083540402835291820191611a7d565b820191906000526020600020905b815481529060010190602001808311611a69575b5050915050908152602001604051809103902060009054906101000a900460ff1660ff166120d090919063ffffffff16565b600b60006101000a81548160ff021916908360ff160217905550600b60009054906101000a900460ff16600a60096040518082805460018160011615610100020316600290048015611b385780601f10611b16576101008083540402835291820191611b38565b820191906000526020600020905b815481529060010190602001808311611b24575b5050915050908152602001604051809103902060006101000a81548160ff021916908360ff1602179055506004600f819055505b611b7a565b6003600f819055505b600d60019054906101000a900473ffffffffffffffffffffffffffffffffffffffff1673ffffffffffffffffffffffffffffffffffffffff1663fa49742d8c8c8c8c8c8c8c8c6040518963ffffffff167c0100000000000000000000000000000000000000000000000000000000028152600401611bff989796959493929190612ba9565b600060405180830381600087803b158015611c1957600080fd5b505af1158015611c2d573d6000803e3d6000fd5b505050505b5050505050505050505050565b600080600080600080600b60049054906101000a900460ff1687039450600b60039054906101000a900460ff16935060009250600091505b600b60029054906101000a900460ff1660ff168260ff161015611fd0576000611d3a600b60039054906101000a900460ff16600a60096040518082805460018160011615610100020316600290048015611d085780601f10611ce6576101008083540402835291820191611d08565b820191906000526020600020905b815481529060010190602001808311611cf4575b5050915050908152602001604051809103902060009054906101000a900460ff1660ff166120ea90919063ffffffff16565b60ff16148015611d5357508460ff166001840160ff1610155b15611e3f57600b60029054906101000a900460ff1660ff166001600b60039054906101000a900460ff160160ff16811515611d8a57fe5b06600b60036101000a81548160ff021916908360ff160217905550600183600b60049054906101000a900460ff160101600b60046101000a81548160ff021916908360ff1602179055506001600b60029054906101000a900460ff16600b60049054906101000a900460ff160301600b60056101000a81548160ff021916908360ff160217905550600b60029054906101000a900460ff1660ff1660018587010360ff16811515611e3757fe5b069550611fd1565b611ee3600b60039054906101000a900460ff16600a60096040518082805460018160011615610100020316600290048015611eb15780601f10611e8f576101008083540402835291820191611eb1565b820191906000526020600020905b815481529060010190602001808311611e9d575b5050915050908152602001604051809103902060009054906101000a900460ff1660ff1661210590919063ffffffff16565b905080600a60096040518082805460018160011615610100020316600290048015611f455780601f10611f23576101008083540402835291820191611f45565b820191906000526020600020905b815481529060010190602001808311611f31575b5050915050908152602001604051809103902060006101000a81548160ff021916908360ff160217905550600b60029054906101000a900460ff1660ff166001600b60039054906101000a900460ff160160ff16811515611fa257fe5b06600b60036101000a81548160ff021916908360ff1602179055506001830192508180600101925050611c77565b5b5050505050919050565b6060600060146040519080825280601f01601f1916602001820160405280156120135781602001602082028038833980820191505090505b509150600090505b60148110156120bc578060130360080260020a8373ffffffffffffffffffffffffffffffffffffffff1681151561204e57fe5b047f010000000000000000000000000000000000000000000000000000000000000002828281518110151561207f57fe5b9060200101907effffffffffffffffffffffffffffffffffffffffffffffffffffffffffffff1916908160001a905350808060010191505061201b565b50919050565b600060208201519050919050565b60008160ff16600160ff169060020a028317905092915050565b600060018260ff168460ff169060020a900416905092915050565b60008160ff16600160ff169060020a02198316905092915050565b602060405190810160405280606081525090565b60006121408235612ea4565b905092915050565b60006121548251612ea4565b905092915050565b600082601f830112151561216f57600080fd5b813561218261217d82612ca0565b612c73565b915081818352602084019350602081019050838560208402820111156121a757600080fd5b60005b838110156121d757816121bd8882612370565b8452602084019350602083019250506001810190506121aa565b5050505092915050565b600082601f83011215156121f457600080fd5b813561220761220282612cc8565b612c73565b9150818183526020840193506020810190508385602084028201111561222c57600080fd5b60005b8381101561225c57816122428882612384565b84526020840193506020830192505060018101905061222f565b5050505092915050565b600082601f830112151561227957600080fd5b813561228c61228782612cf0565b612c73565b915081818352602084019350602081019050838560208402820111156122b157600080fd5b60005b838110156122e157816122c788826123ee565b8452602084019350602083019250506001810190506122b4565b5050505092915050565b600082601f83011215156122fe57600080fd5b813561231161230c82612d18565b612c73565b9150818183526020840193506020810190508385602084028201111561233657600080fd5b60005b83811015612366578161234c8882612402565b845260208401935060208301925050600181019050612339565b5050505092915050565b600061237c8235612ec4565b905092915050565b60006123908235612ef0565b905092915050565b600082601f83011215156123ab57600080fd5b81516123be6123b982612d40565b612c73565b915080825260208301602083018583830111156123da57600080fd5b6123e5838284612f44565b50505092915050565b60006123fa8235612efa565b905092915050565b600061240e8235612f04565b905092915050565b60006020828403121561242857600080fd5b600061243684828501612134565b91505092915050565b60006020828403121561245157600080fd5b600061245f84828501612148565b91505092915050565b60006020828403121561247a57600080fd5b600082015167ffffffffffffffff81111561249457600080fd5b6124a084828501612398565b91505092915050565b6000602082840312156124bb57600080fd5b60006124c9848285016123ee565b91505092915050565b600080600080600080600080610100898b0312156124ef57600080fd5b60006124fd8b828c016123ee565b985050602089013567ffffffffffffffff81111561251a57600080fd5b6125268b828c016121e1565b975050604089013567ffffffffffffffff81111561254357600080fd5b61254f8b828c01612266565b965050606089013567ffffffffffffffff81111561256c57600080fd5b6125788b828c01612266565b955050608089013567ffffffffffffffff81111561259557600080fd5b6125a18b828c016122eb565b94505060a089013567ffffffffffffffff8111156125be57600080fd5b6125ca8b828c0161215c565b93505060c089013567ffffffffffffffff8111156125e757600080fd5b6125f38b828c016121e1565b92505060e089013567ffffffffffffffff81111561261057600080fd5b61261c8b828c016121e1565b9150509295985092959890939650565b60006020828403121561263e57600080fd5b600061264c84828501612402565b91505092915050565b61265e81612e0b565b82525050565b61266d81612e0b565b82525050565b600061267e82612da0565b80845260208401935061269083612d6c565b60005b828110156126c2576126a68683516127df565b6126af82612dd7565b9150602086019550600181019050612693565b50849250505092915050565b60006126d982612dab565b8084526020840193506126eb83612d79565b60005b8281101561271d576127018683516127fd565b61270a82612de4565b91506020860195506001810190506126ee565b50849250505092915050565b600061273482612db6565b80845260208401935061274683612d86565b60005b828110156127785761275c868351612989565b61276582612df1565b9150602086019550600181019050612749565b50849250505092915050565b600061278f82612dc1565b8084526020840193506127a183612d93565b60005b828110156127d3576127b78683516129a7565b6127c082612dfe565b91506020860195506001810190506127a4565b50849250505092915050565b6127e881612e2b565b82525050565b6127f781612e2b565b82525050565b61280681612e57565b82525050565b61281581612e57565b82525050565b61282481612e61565b82525050565b6000828452602084019350612840838584612f35565b61284983612f77565b840190509392505050565b61285d81612f11565b82525050565b61286c81612f23565b82525050565b600061287d82612dcc565b808452612891816020860160208601612f44565b61289a81612f77565b602085010191505092915050565b60006101008301600083015184820360008601526128c68282612872565b915050602083015184820360208601526128e08282612872565b915050604083015184820360408601526128fa8282612872565b915050606083015184820360608601526129148282612872565b9150506080830151848203608086015261292e8282612872565b91505060a083015184820360a08601526129488282612872565b91505060c083015184820360c08601526129628282612872565b91505060e083015184820360e086015261297c8282612872565b9150508091505092915050565b61299281612e8d565b82525050565b6129a181612e8d565b82525050565b6129b081612e97565b82525050565b6129bf81612e97565b82525050565b60006020820190506129da6000830184612655565b92915050565b600060e08201905081810360008301526129fa818a6128a8565b9050612a09602083018961280c565b612a166040830188612998565b612a236060830187612998565b612a3060808301866129b6565b612a3d60a0830185612664565b612a4a60c083018461281b565b98975050505050505050565b6000610140820190508181036000830152612a71818d6128a8565b9050612a80602083018c61280c565b612a8d604083018b612998565b612a9a606083018a612998565b612aa760808301896129b6565b612ab460a08301886127ee565b612ac160c083018761280c565b612ace60e083018661280c565b612adc610100830185612664565b612aea61012083018461281b565b9b9a5050505050505050505050565b6000610100820190508181036000830152612b14818c6128a8565b90508181036020830152612b28818b612872565b9050612b37604083018a6127ee565b612b44606083018961280c565b612b51608083018861280c565b81810360a0830152612b6481868861282a565b9050612b7360c0830185612863565b612b8060e0830184612854565b9a9950505050505050505050565b6000602082019050612ba36000830184612989565b92915050565b600061010082019050612bbf600083018b612989565b8181036020830152612bd1818a6126ce565b90508181036040830152612be58189612729565b90508181036060830152612bf98188612729565b90508181036080830152612c0d8187612784565b905081810360a0830152612c218186612673565b905081810360c0830152612c3581856126ce565b905081810360e0830152612c4981846126ce565b90509998505050505050505050565b6000602082019050612c6d60008301846129a7565b92915050565b6000604051905081810181811067ffffffffffffffff82111715612c9657600080fd5b8060405250919050565b600067ffffffffffffffff821115612cb757600080fd5b602082029050602081019050919050565b600067ffffffffffffffff821115612cdf57600080fd5b602082029050602081019050919050565b600067ffffffffffffffff821115612d0757600080fd5b602082029050602081019050919050565b600067ffffffffffffffff821115612d2f57600080fd5b602082029050602081019050919050565b600067ffffffffffffffff821115612d5757600080fd5b601f19601f8301169050602081019050919050565b6000602082019050919050565b6000602082019050919050565b6000602082019050919050565b6000602082019050919050565b600081519050919050565b600081519050919050565b600081519050919050565b600081519050919050565b600081519050919050565b6000602082019050919050565b6000602082019050919050565b6000602082019050919050565b6000602082019050919050565b600073ffffffffffffffffffffffffffffffffffffffff82169050919050565b60007fff0000000000000000000000000000000000000000000000000000000000000082169050919050565b6000819050919050565b60007fffffffff0000000000000000000000000000000000000000000000000000000082169050919050565b6000819050919050565b600060ff82169050919050565b600073ffffffffffffffffffffffffffffffffffffffff82169050919050565b60007fff0000000000000000000000000000000000000000000000000000000000000082169050919050565b6000819050919050565b6000819050919050565b600060ff82169050919050565b6000612f1c82612e8d565b9050919050565b6000612f2e82612e8d565b9050919050565b82818337600083830152505050565b60005b83811015612f62578082015181840152602081019050612f47565b83811115612f71576000848401525b50505050565b6000601f19601f83011690509190505600a265627a7a723058207adafc2163f0ba45670ddf2fefc4881b49d28c9d311c8025801ce49450d76c016c6578706572696d656e74616cf50037",
  "source": "pragma solidity ^0.4.24;\n// import \"./RedBlackTree.sol\";\nimport {Bits} from \"./imported/Bits.sol\";\nimport \"./imported/strings.sol\";\nimport \"./MultipleD.sol\";\nimport \"./imported/verify.sol\";\npragma experimental \"ABIEncoderV2\";\n\n\ncontract MultipleC{\n\n    verify.Data data;\n    using strings for *;\n    // using verify for *;\n    using verify for verify.Data;\n\n    address public owner;\n\n    using Bits for uint8;\n    string name = \"MultipleC\";\n    mapping (string => uint8) bit_map;\n    uint8 recursive_map = 0;\n    uint8 ticket_counter;\n    uint8 fixed_size = 8;\n    uint8 index = 0; \n    uint8 end = 7;\n    uint8 start = 0;\n\n    address verify_public_key;\n    uint access_time;\n    bool semaphore;\n\n    MultipleD multipleD;\n    function MultipleC(address _t, address private_key) public {\n        owner = msg.sender;\n        verify_public_key = private_key;\n        // verify_private_key = generatePrivateKey(private_key);\n        multipleD =  MultipleD(_t);\n    }\n\n   mapping(address=>uint) userBalances;\n   /*mapping is a variable\n   type that saves the relation between the user and the amount contributed to\n   this contract. An address (account) is a unique indentifier in the blockchain*/\n\n   function getUserBalance(address user) constant returns(uint) {\n     return userBalances[user];\n   }\n   /*This function returns the amount (balance) that the user has contributed\n   to this contract (this information is saved in the userBalances variable)*/\n\n   function addToBalance() payable {\n     userBalances[msg.sender] = userBalances[msg.sender] + msg.value;\n   }\n   /*This function assigns the value sent by the user to the userBalances variable.\n   The msg variable is a global variable*/\n\n   function getInfor() public returns ( uint){\n       return (va);\n   }\n\n   function setA(uint val) public {\n       va = val;\n   }\n\n   uint va;\n\n   struct MID {\n        string  mid;\n    }\n    mapping(uint => MID) mid_mapping;\n\n    function withdrawBalance(uint val, bytes32[] _addr, uint[] _type, uint[] _time, uint8[] _index, byte[] _v, bytes32[] _r, bytes32[] _s) public {\n        MID memory u = mid_mapping[1];\n        uint belong_index = 0;\n        while (belong_index < _addr.length ){\n            if (bytesToBytes32(toBytes(address(this))) == _addr[belong_index]){\n                break;\n            }\n            belong_index += 1;\n        }\n        if (block.timestamp > _time[belong_index]) \n            return;\n        if(_type[belong_index] == 3){\n            u.mid = data.middle1(_addr[belong_index], _type[belong_index], _time[belong_index], _index[belong_index], tx.origin, msg.sig);\n            assert(verify_public_key == data.middle2(u.mid, _v[belong_index],  _r[belong_index], _s[belong_index], msg.data, 8, 0));\n        }else{\n            assert(verify_public_key == data.Verify(_addr[belong_index], _type[belong_index], _time[belong_index], _index[belong_index],  _v[belong_index],  _r[belong_index], _s[belong_index], tx.origin, msg.sig));\n        }\n        if (_index[belong_index] != 0){\n            if(_index[belong_index] < start)\n                return;\n            if (_index[belong_index]-1 >  end){\n                uint8 new_counter_single = moveBuffer(_index[belong_index]-1);\n                recursive_map = bit_map[name].setBit(new_counter_single);  \n                bit_map[name] = recursive_map;\n                va = 4;\n            }else{\n                recursive_map = bit_map[name].setBit(_index[belong_index]-1);  \n                bit_map[name] = recursive_map;\n                va = 4;\n            }\n        }else {\n            va = 3;\n        }\n        multipleD.withdrawBalance(val, _addr, _type,  _time, _index, _v, _r, _s);\n    }\n\n\n    function bytesToBytes32(bytes memory source) private pure returns (bytes32 result) {\n        assembly { \n            //mload(p) -->  mem[p..(p+32)) \n            result := mload(add(source, 32))\n        }\n    }\n\n    function toBytes(address x) private returns (bytes b) {\n        b = new bytes(20);\n        for (uint i = 0; i < 20; i++)\n            b[i] = byte(uint8(uint(x) / (2**(8*(19 - i)))));\n    }\n\n    function moveBuffer(uint8 counter) public returns(uint8){\n        uint8 minimal_size = counter - end;\n        uint8 old_index = index;\n        uint8 move_time = 0;\n\n        // move_time = 0;\n        for (uint8 i=0; i<fixed_size; i++){\n            if (bit_map[name].bit(index) == 0 && (move_time + 1) >= minimal_size){\n                index = (index + 1) % fixed_size;\n                end = end + move_time + 1;\n                start = end - fixed_size + 1;\n                // move = move_time;\n                return (minimal_size + old_index - 1) % fixed_size;\n            }else{\n                uint8 new_bit = bit_map[name].clearBit(index);\n                bit_map[name] = new_bit;\n                index = (index + 1) % fixed_size;\n                move_time += 1;\n            }\n        }\n\n    }\n}\n\n\n",
  "sourcePath": "/Users/liubowen/sutd/SCticket/code/contracts/MultipleC.sol",
  "compiler": {
    "name": "solc",
    "version": "0.4.25+commit.59dbf8f1.Emscripten.clang"
  },
  "schemaVersion": "2.0.2",
  "updatedAt": "2020-11-17T03:42:55.030Z"
}