{
  "contractName": "ops",
  "abi": [
    {
      "constant": false,
      "inputs": [
        {
          "name": "b",
          "type": "bytes"
        }
      ],
      "name": "bytesToUint",
      "outputs": [
        {
          "name": "",
          "type": "uint256"
        }
      ],
      "payable": false,
      "stateMutability": "nonpayable",
      "type": "function"
    },
    {
      "constant": false,
      "inputs": [
        {
          "name": "a",
          "type": "address"
        }
      ],
      "name": "addresstoBytes",
      "outputs": [
        {
          "name": "b",
          "type": "bytes"
        }
      ],
      "payable": false,
      "stateMutability": "nonpayable",
      "type": "function"
    },
    {
      "constant": false,
      "inputs": [
        {
          "name": "i",
          "type": "address"
        }
      ],
      "name": "addressToBytes",
      "outputs": [
        {
          "name": "by",
          "type": "bytes"
        }
      ],
      "payable": false,
      "stateMutability": "nonpayable",
      "type": "function"
    },
    {
      "constant": false,
      "inputs": [
        {
          "name": "s",
          "type": "string"
        }
      ],
      "name": "stringToUint",
      "outputs": [
        {
          "name": "result",
          "type": "uint256"
        }
      ],
      "payable": false,
      "stateMutability": "nonpayable",
      "type": "function"
    },
    {
      "constant": false,
      "inputs": [
        {
          "name": "str",
          "type": "string"
        },
        {
          "name": "startIndex",
          "type": "uint256"
        },
        {
          "name": "endIndex",
          "type": "uint256"
        }
      ],
      "name": "substring",
      "outputs": [
        {
          "name": "",
          "type": "string"
        }
      ],
      "payable": false,
      "stateMutability": "nonpayable",
      "type": "function"
    },
    {
      "constant": true,
      "inputs": [
        {
          "name": "x",
          "type": "bytes1"
        }
      ],
      "name": "bytes1ToString",
      "outputs": [
        {
          "name": "",
          "type": "string"
        }
      ],
      "payable": false,
      "stateMutability": "view",
      "type": "function"
    },
    {
      "constant": false,
      "inputs": [
        {
          "name": "message_hash",
          "type": "bytes32"
        },
        {
          "name": "signature",
          "type": "bytes"
        }
      ],
      "name": "verified",
      "outputs": [
        {
          "name": "addr",
          "type": "address"
        }
      ],
      "payable": false,
      "stateMutability": "nonpayable",
      "type": "function"
    },
    {
      "constant": true,
      "inputs": [
        {
          "name": "after_signature",
          "type": "bytes"
        },
        {
          "name": "public_hash",
          "type": "bytes32"
        }
      ],
      "name": "parseTickets",
      "outputs": [
        {
          "name": "",
          "type": "address"
        }
      ],
      "payable": false,
      "stateMutability": "pure",
      "type": "function"
    },
    {
      "constant": true,
      "inputs": [
        {
          "name": "data",
          "type": "bytes"
        },
        {
          "name": "start",
          "type": "uint256"
        },
        {
          "name": "len",
          "type": "uint256"
        }
      ],
      "name": "slice",
      "outputs": [
        {
          "name": "",
          "type": "bytes"
        }
      ],
      "payable": false,
      "stateMutability": "pure",
      "type": "function"
    },
    {
      "constant": true,
      "inputs": [
        {
          "name": "r",
          "type": "bytes32"
        },
        {
          "name": "s",
          "type": "bytes32"
        },
        {
          "name": "v1",
          "type": "bytes1"
        },
        {
          "name": "h",
          "type": "bytes32"
        }
      ],
      "name": "ecrecoverDecode",
      "outputs": [
        {
          "name": "addr",
          "type": "address"
        }
      ],
      "payable": false,
      "stateMutability": "pure",
      "type": "function"
    },
    {
      "constant": true,
      "inputs": [
        {
          "name": "source",
          "type": "bytes"
        }
      ],
      "name": "bytesToBytes32",
      "outputs": [
        {
          "name": "result",
          "type": "bytes32"
        }
      ],
      "payable": false,
      "stateMutability": "pure",
      "type": "function"
    },
    {
      "constant": false,
      "inputs": [
        {
          "name": "b",
          "type": "bytes1"
        }
      ],
      "name": "char",
      "outputs": [
        {
          "name": "c",
          "type": "bytes1"
        }
      ],
      "payable": false,
      "stateMutability": "nonpayable",
      "type": "function"
    },
    {
      "constant": false,
      "inputs": [
        {
          "name": "b32",
          "type": "bytes32"
        }
      ],
      "name": "bytes32string",
      "outputs": [
        {
          "name": "out",
          "type": "string"
        }
      ],
      "payable": false,
      "stateMutability": "nonpayable",
      "type": "function"
    },
    {
      "constant": false,
      "inputs": [
        {
          "name": "i",
          "type": "uint256"
        }
      ],
      "name": "uint2str",
      "outputs": [
        {
          "name": "",
          "type": "string"
        }
      ],
      "payable": false,
      "stateMutability": "nonpayable",
      "type": "function"
    },
    {
      "constant": false,
      "inputs": [
        {
          "name": "x",
          "type": "address"
        }
      ],
      "name": "toBytes",
      "outputs": [
        {
          "name": "b",
          "type": "bytes"
        }
      ],
      "payable": false,
      "stateMutability": "nonpayable",
      "type": "function"
    }
  ],
  "bytecode": "0x6118ce610030600b82828239805160001a6073146000811461002057610022565bfe5b5030600052607381538281f30073000000000000000000000000000000000000000030146080604052600436106100f2576000357c0100000000000000000000000000000000000000000000000000000000900463ffffffff16806302d06d05146100f75780631bd95155146101345780631dcd9b5514610171578063252fb38d146101ae578063264a2d12146101eb57806334f15bd71461021b578063593b79fe1461025857806364ad2a731461029557806369f9ad2f146102c55780636b01f52714610302578063bfe370d914610332578063ded8454a14610362578063e00413961461039f578063f76f950e146103cf578063fee87e3b1461040c575b600080fd5b81801561010357600080fd5b5061011e60048036036101199190810190611351565b610449565b60405161012b91906116be565b60405180910390f35b81801561014057600080fd5b5061015b6004803603610156919081019061144d565b610500565b60405161016891906116be565b60405180910390f35b81801561017d57600080fd5b506101986004803603610193919081019061148e565b6105d2565b6040516101a5919061169c565b60405180910390f35b8180156101ba57600080fd5b506101d560048036036101d09190810190611271565b6106d3565b6040516101e2919061169c565b60405180910390f35b61020560048036036102009190810190611392565b6108cb565b60405161021291906115e4565b60405180910390f35b81801561022757600080fd5b50610242600480360361023d91908101906112fd565b61097d565b60405161024f91906115e4565b60405180910390f35b81801561026457600080fd5b5061027f600480360361027a919081019061121f565b610991565b60405161028c919061167a565b60405180910390f35b6102af60048036036102aa9190810190611248565b610a78565b6040516102bc919061169c565b60405180910390f35b8180156102d157600080fd5b506102ec60048036036102e79190810190611248565b610cb2565b6040516102f991906115ff565b60405180910390f35b61031c6004803603610317919081019061129a565b610da2565b60405161032991906115e4565b60405180910390f35b61034c60048036036103479190810190611351565b610e27565b604051610359919061161a565b60405180910390f35b81801561036e57600080fd5b506103896004803603610384919081019061121f565b610e35565b604051610396919061167a565b60405180910390f35b6103b960048036036103b491908101906113e6565b610ea0565b6040516103c6919061167a565b60405180910390f35b8180156103db57600080fd5b506103f660048036036103f191908101906114f5565b610f9a565b604051610403919061169c565b60405180910390f35b81801561041857600080fd5b50610433600480360361042e919081019061121f565b6110f1565b604051610440919061167a565b60405180910390f35b60008060008090505b83518110156104f6576001810184510360080260020a848281518110151561047657fe5b9060200101517f010000000000000000000000000000000000000000000000000000000000000090047f0100000000000000000000000000000000000000000000000000000000000000027f0100000000000000000000000000000000000000000000000000000000000000900402820191508080600101915050610452565b8192505050919050565b6000606060008084925060009350600091505b82518210156105ca57828281518110151561052a57fe5b9060200101517f010000000000000000000000000000000000000000000000000000000000000090047f0100000000000000000000000000000000000000000000000000000000000000027f010000000000000000000000000000000000000000000000000000000000000090049050603081101580156105ac575060398111155b156105bd5760308103600a85020193505b8180600101925050610513565b505050919050565b606080606060008692508585036040519080825280601f01601f1916602001820160405280156106115781602001602082028038833980820191505090505b5091508590505b848110156106c657828181518110151561062e57fe5b9060200101517f010000000000000000000000000000000000000000000000000000000000000090047f0100000000000000000000000000000000000000000000000000000000000000028287830381518110151561068957fe5b9060200101907effffffffffffffffffffffffffffffffffffffffffffffffffffffffffffff1916908160001a9053508080600101915050610618565b8193505050509392505050565b606080600080600080604080519080825280601f01601f19166020018201604052801561070f5781602001602082028038833980820191505090505b509450600093505b60208410156108be57868460208110151561072e57fe5b1a7f01000000000000000000000000000000000000000000000000000000000000000292506010837f0100000000000000000000000000000000000000000000000000000000000000900460ff1681151561078557fe5b047f0100000000000000000000000000000000000000000000000000000000000000029150817f01000000000000000000000000000000000000000000000000000000000000009004601002837f01000000000000000000000000000000000000000000000000000000000000009004037f010000000000000000000000000000000000000000000000000000000000000002905061082382610cb2565b856002860281518110151561083457fe5b9060200101907effffffffffffffffffffffffffffffffffffffffffffffffffffffffffffff1916908160001a90535061086d81610cb2565b856001600287020181518110151561088157fe5b9060200101907effffffffffffffffffffffffffffffffffffffffffffffffffffffffffffff1916908160001a9053508380600101945050610717565b8495505050505050919050565b6000806000806108e66108e18760006020610ea0565b610e27565b92506108fc6108f787602080610ea0565b610e27565b915061090b8660406001610ea0565b600081518110151561091957fe5b9060200101517f010000000000000000000000000000000000000000000000000000000000000090047f010000000000000000000000000000000000000000000000000000000000000002905061097283838388610da2565b935050505092915050565b600061098982846108cb565b905092915050565b6060600060146040519080825280601f01601f1916602001820160405280156109c95781602001602082028038833980820191505090505b509150600090505b6014811015610a72578060130360080260020a8373ffffffffffffffffffffffffffffffffffffffff16811515610a0457fe5b047f0100000000000000000000000000000000000000000000000000000000000000028282815181101515610a3557fe5b9060200101907effffffffffffffffffffffffffffffffffffffffffffffffffffffffffffff1916908160001a90535080806001019150506109d1565b50919050565b6060806000806000606060016040519080825280601f01601f191660200182016040528015610ab65781602001602082028038833980820191505090505b50945060009350600092505b6001831015610bbe578260080260020a877f01000000000000000000000000000000000000000000000000000000000000009004027f010000000000000000000000000000000000000000000000000000000000000002915060007f010000000000000000000000000000000000000000000000000000000000000002827effffffffffffffffffffffffffffffffffffffffffffffffffffffffffffff1916141515610bb157818585815181101515610b7857fe5b9060200101907effffffffffffffffffffffffffffffffffffffffffffffffffffffffffffff1916908160001a90535083806001019450505b8280600101935050610ac2565b836040519080825280601f01601f191660200182016040528015610bf15781602001602082028038833980820191505090505b509050600092505b83831015610ca5578483815181101515610c0f57fe5b9060200101517f010000000000000000000000000000000000000000000000000000000000000090047f0100000000000000000000000000000000000000000000000000000000000000028184815181101515610c6857fe5b9060200101907effffffffffffffffffffffffffffffffffffffffffffffffffffffffffffff1916908160001a9053508280600101935050610bf9565b8095505050505050919050565b6000600a7f010000000000000000000000000000000000000000000000000000000000000002827effffffffffffffffffffffffffffffffffffffffffffffffffffffffffffff19161015610d51576030827f01000000000000000000000000000000000000000000000000000000000000009004017f0100000000000000000000000000000000000000000000000000000000000000029050610d9d565b6057827f01000000000000000000000000000000000000000000000000000000000000009004017f01000000000000000000000000000000000000000000000000000000000000000290505b919050565b600080837f01000000000000000000000000000000000000000000000000000000000000009004905060018382888860405160008152602001604052604051610dee9493929190611635565b60206040516020810390808403906000865af1158015610e12573d6000803e3d6000fd5b50505060206040510351915050949350505050565b600060208201519050919050565b606060146040519080825280601f01601f191660200182016040528015610e6b5781602001602082028038833980820191505090505b5090506000602082015b60148214610e965783600c83011a8153600181019050600182019150610e75565b5050809050919050565b6060806000836040519080825280601f01601f191660200182016040528015610ed85781602001602082028038833980820191505090505b509150600090505b83811015610f8e5785858201815181101515610ef857fe5b9060200101517f010000000000000000000000000000000000000000000000000000000000000090047f0100000000000000000000000000000000000000000000000000000000000000028282815181101515610f5157fe5b9060200101907effffffffffffffffffffffffffffffffffffffffffffffffffffffffffffff1916908160001a9053508080600101915050610ee0565b81925050509392505050565b60606000806060600080861415610fe8576040805190810160405280600181526020017f300000000000000000000000000000000000000000000000000000000000000081525094506110e8565b8593505b600084141515611012578280600101935050600a8481151561100a57fe5b049350610fec565b826040519080825280601f01601f1916602001820160405280156110455781602001602082028038833980820191505090505b5091506001830390505b6000861415156110e457600a8681151561106557fe5b066030017f0100000000000000000000000000000000000000000000000000000000000000028282806001900393508151811015156110a057fe5b9060200101907effffffffffffffffffffffffffffffffffffffffffffffffffffffffffffff1916908160001a905350600a868115156110dc57fe5b04955061104f565b8194505b50505050919050565b606060405182741400000000000000000000000000000000000000001860148201526034810160405280915050919050565b600061112f82356117e1565b905092915050565b60006111438235611801565b905092915050565b6000611157823561182d565b905092915050565b600082601f830112151561117257600080fd5b813561118561118082611706565b6116d9565b915080825260208301602083018583830111156111a157600080fd5b6111ac838284611841565b50505092915050565b600082601f83011215156111c857600080fd5b81356111db6111d682611732565b6116d9565b915080825260208301602083018583830111156111f757600080fd5b611202838284611841565b50505092915050565b60006112178235611837565b905092915050565b60006020828403121561123157600080fd5b600061123f84828501611123565b91505092915050565b60006020828403121561125a57600080fd5b600061126884828501611137565b91505092915050565b60006020828403121561128357600080fd5b60006112918482850161114b565b91505092915050565b600080600080608085870312156112b057600080fd5b60006112be8782880161114b565b94505060206112cf8782880161114b565b93505060406112e087828801611137565b92505060606112f18782880161114b565b91505092959194509250565b6000806040838503121561131057600080fd5b600061131e8582860161114b565b925050602083013567ffffffffffffffff81111561133b57600080fd5b6113478582860161115f565b9150509250929050565b60006020828403121561136357600080fd5b600082013567ffffffffffffffff81111561137d57600080fd5b6113898482850161115f565b91505092915050565b600080604083850312156113a557600080fd5b600083013567ffffffffffffffff8111156113bf57600080fd5b6113cb8582860161115f565b92505060206113dc8582860161114b565b9150509250929050565b6000806000606084860312156113fb57600080fd5b600084013567ffffffffffffffff81111561141557600080fd5b6114218682870161115f565b93505060206114328682870161120b565b92505060406114438682870161120b565b9150509250925092565b60006020828403121561145f57600080fd5b600082013567ffffffffffffffff81111561147957600080fd5b611485848285016111b5565b91505092915050565b6000806000606084860312156114a357600080fd5b600084013567ffffffffffffffff8111156114bd57600080fd5b6114c9868287016111b5565b93505060206114da8682870161120b565b92505060406114eb8682870161120b565b9150509250925092565b60006020828403121561150757600080fd5b60006115158482850161120b565b91505092915050565b61152781611774565b82525050565b61153681611794565b82525050565b611545816117c0565b82525050565b611554816117c0565b82525050565b60006115658261175e565b808452611579816020860160208601611850565b61158281611883565b602085010191505092915050565b600061159b82611769565b8084526115af816020860160208601611850565b6115b881611883565b602085010191505092915050565b6115cf816117ca565b82525050565b6115de816117d4565b82525050565b60006020820190506115f9600083018461151e565b92915050565b6000602082019050611614600083018461152d565b92915050565b600060208201905061162f600083018461154b565b92915050565b600060808201905061164a600083018761153c565b61165760208301866115d5565b611664604083018561153c565b611671606083018461153c565b95945050505050565b60006020820190508181036000830152611694818461155a565b905092915050565b600060208201905081810360008301526116b68184611590565b905092915050565b60006020820190506116d360008301846115c6565b92915050565b6000604051905081810181811067ffffffffffffffff821117156116fc57600080fd5b8060405250919050565b600067ffffffffffffffff82111561171d57600080fd5b601f19601f8301169050602081019050919050565b600067ffffffffffffffff82111561174957600080fd5b601f19601f8301169050602081019050919050565b600081519050919050565b600081519050919050565b600073ffffffffffffffffffffffffffffffffffffffff82169050919050565b60007fff0000000000000000000000000000000000000000000000000000000000000082169050919050565b6000819050919050565b6000819050919050565b600060ff82169050919050565b600073ffffffffffffffffffffffffffffffffffffffff82169050919050565b60007fff0000000000000000000000000000000000000000000000000000000000000082169050919050565b6000819050919050565b6000819050919050565b82818337600083830152505050565b60005b8381101561186e578082015181840152602081019050611853565b8381111561187d576000848401525b50505050565b6000601f19601f83011690509190505600a265627a7a723058203552d983d806bb042d6a34dfe79e9b4edc1e9397d77ba6f44981b275de9a89296c6578706572696d656e74616cf50037",
  "source": "pragma solidity ^0.4.24;\n// pragma experimental \"v0.5.0\";\npragma experimental \"ABIEncoderV2\";\n\n\nlibrary ops {\n    function bytesToUint(bytes b) public returns (uint256){\n        uint256 number;\n        for(uint i=0;i<b.length;i++){\n            number = number + uint(b[i])*(2**(8*(b.length-(i+1))));\n        }\n        return number;\n    }\n    function bytes32ToBytes(bytes32 data) internal pure returns (bytes) {\n        uint i = 0;\n        while (i < 32 && uint(data[i]) != 0) {\n            ++i;\n        }\n        bytes memory result = new bytes(i);\n        i = 0;\n        while (i < 32 && data[i] != 0) {\n            result[i] = data[i];\n            ++i;\n        }\n        return result;\n    }\n\n    function addresstoBytes(address a) public returns (bytes b){\n        assembly {\n                let m := mload(0x40)\n                mstore(add(m, 20), xor(0x140000000000000000000000000000000000000000, a))\n                mstore(0x40, add(m, 52))\n                b := m\n        }\n    }\n    function addressToBytes(address i)  returns (bytes by) { \n        by = new bytes(20); \n        assembly { \n            let count := 0 \n            let byptr := add(by, 32) \n            loop: \n                jumpi(end, eq(count, 20)) \n                mstore8(byptr, byte(add(count,12), i)) \n                byptr := add(byptr, 1) \n                count := add(count, 1) \n                jump(loop) \n            end:\n        } \n        return by; \n    }\n\n    function stringToUint(string s) public returns (uint result) {\n        bytes memory b = bytes(s);\n        uint i;\n        result = 0;\n        for (i = 0; i < b.length; i++) {\n            uint c = uint(b[i]);\n            if (c >= 48 && c <= 57) {\n                result = result * 10 + (c - 48);\n            }\n        }\n    }\n\n    function substring(string str, uint startIndex, uint endIndex) public returns (string) {\n        bytes memory strBytes = bytes(str);\n        bytes memory result = new bytes(endIndex-startIndex);\n        for(uint i = startIndex; i < endIndex; i++) {\n            result[i-startIndex] = strBytes[i];\n        }\n        return string(result);\n    }\n\n    function bytes1ToString(bytes1 x) constant returns (string) {\n        bytes memory bytesString = new bytes(1);\n        uint charCount = 0;\n        for (uint j = 0; j < 1; j++) {\n            byte char = byte(bytes1(uint(x) * 2 ** (8 * j)));\n            if (char != 0) {\n                bytesString[charCount] = char;\n                charCount++;\n            }\n        }\n        bytes memory bytesStringTrimmed = new bytes(charCount);\n        for (j = 0; j < charCount; j++) {\n            bytesStringTrimmed[j] = bytesString[j];\n        }\n        return string(bytesStringTrimmed);\n    }\n\n    function verified(bytes32 message_hash, bytes memory signature) public returns (address addr) {\n        addr = parseTickets(signature, message_hash);\n    }\n\n    function parseTickets(bytes memory after_signature, bytes32 public_hash) public pure returns (address) {\n        bytes32  r = bytesToBytes32(slice(after_signature, 0, 32));\n        bytes32  s = bytesToBytes32(slice(after_signature, 32, 32));\n        byte  v = slice(after_signature, 64, 1)[0];\n        return ecrecoverDecode(r, s, v, public_hash);\n    }\n\n    function slice(bytes memory data, uint start, uint len) public pure returns (bytes){\n        bytes memory b = new bytes(len);\n        for(uint i = 0; i < len; i++){\n            b[i] = data[i + start];\n        }\n        return b;\n    }\n\n    function ecrecoverDecode(bytes32 r, bytes32 s, byte v1, bytes32 h) public pure returns (address addr){\n        uint8 v = uint8(v1);\n        addr = ecrecover(h, v, r, s);\n    }\n\n    function bytesToBytes32(bytes memory source) public pure returns (bytes32 result) {\n        assembly { \n            //mload(p) -->  mem[p..(p+32)) \n            result := mload(add(source, 32))\n        }\n    }\n\n    function char(byte b) returns (byte c) {\n        if (b < 10) \n            return byte(uint8(b) + 0x30);\n        else \n            return byte(uint8(b) + 0x57);\n    }\n\n    function bytes32string(bytes32 b32) returns (string out) {\n        bytes memory s = new bytes(64);\n        for (uint i = 0; i < 32; i++) {\n            byte b = byte(b32[i]);\n            byte hi = byte(uint8(b) / 16);\n            byte lo = byte(uint8(b) - 16 * uint8(hi));\n            s[i*2] = char(hi);\n            s[i*2+1] = char(lo);            \n        }\n        out = string(s);\n    }\n\n    function uint2str(uint i) public returns (string memory){\n        if (i == 0) return \"0\";\n        uint j = i;\n        uint length;\n        while (j != 0){\n            length++;\n            j /= 10;\n        }\n        bytes memory bstr = new bytes(length);\n        uint k = length - 1;\n        while (i != 0){\n            bstr[k--] = byte(48 + i % 10);\n            i /= 10;\n        }\n        return string(bstr);\n    }\n\n    function toBytes(address x) returns (bytes b) {\n        b = new bytes(20);\n        for (uint i = 0; i < 20; i++)\n            b[i] = byte(uint8(uint(x) / (2**(8*(19 - i)))));\n    }\n\n}",
  "sourcePath": "/Users/liubowen/sutd/SCticket/code/contracts/imported/ops.sol",
  "compiler": {
    "name": "solc",
    "version": "0.4.24+commit.e67f0147.Emscripten.clang"
  },
  "schemaVersion": "2.0.1",
  "updatedAt": "2019-02-25T02:18:39.425Z"
}