{
  "contractName": "Owner",
  "abi": [
    {
      "constant": true,
      "inputs": [],
      "name": "a",
      "outputs": [
        {
          "name": "",
          "type": "uint256"
        }
      ],
      "payable": false,
      "stateMutability": "view",
      "type": "function"
    },
    {
      "constant": true,
      "inputs": [
        {
          "name": "",
          "type": "address"
        }
      ],
      "name": "balances",
      "outputs": [
        {
          "name": "",
          "type": "uint256"
        }
      ],
      "payable": false,
      "stateMutability": "view",
      "type": "function"
    },
    {
      "constant": true,
      "inputs": [],
      "name": "nounce",
      "outputs": [
        {
          "name": "",
          "type": "uint256"
        }
      ],
      "payable": false,
      "stateMutability": "view",
      "type": "function"
    },
    {
      "constant": true,
      "inputs": [],
      "name": "owner",
      "outputs": [
        {
          "name": "",
          "type": "address"
        }
      ],
      "payable": false,
      "stateMutability": "view",
      "type": "function"
    },
    {
      "constant": true,
      "inputs": [],
      "name": "time_period",
      "outputs": [
        {
          "name": "",
          "type": "uint256"
        }
      ],
      "payable": false,
      "stateMutability": "view",
      "type": "function"
    },
    {
      "inputs": [
        {
          "name": "_t",
          "type": "address"
        },
        {
          "name": "private_key",
          "type": "bytes32"
        }
      ],
      "payable": false,
      "stateMutability": "nonpayable",
      "type": "constructor"
    },
    {
      "constant": false,
      "inputs": [],
      "name": "getVerifyPrivateKeyAndPolicy",
      "outputs": [
        {
          "name": "",
          "type": "bytes32"
        },
        {
          "name": "",
          "type": "address"
        },
        {
          "name": "",
          "type": "uint256"
        },
        {
          "name": "",
          "type": "uint256"
        },
        {
          "name": "",
          "type": "string"
        }
      ],
      "payable": false,
      "stateMutability": "nonpayable",
      "type": "function"
    },
    {
      "constant": false,
      "inputs": [
        {
          "name": "public_key",
          "type": "address"
        }
      ],
      "name": "setVerifyPublicKey",
      "outputs": [],
      "payable": false,
      "stateMutability": "nonpayable",
      "type": "function"
    },
    {
      "constant": false,
      "inputs": [],
      "name": "getA",
      "outputs": [
        {
          "name": "",
          "type": "uint256"
        },
        {
          "name": "",
          "type": "uint8"
        },
        {
          "name": "",
          "type": "address"
        }
      ],
      "payable": false,
      "stateMutability": "nonpayable",
      "type": "function"
    },
    {
      "constant": false,
      "inputs": [
        {
          "name": "_a",
          "type": "uint256"
        },
        {
          "name": "_addr",
          "type": "bytes32[]"
        },
        {
          "name": "_type",
          "type": "uint256[]"
        },
        {
          "name": "_time",
          "type": "uint256[]"
        },
        {
          "name": "_index",
          "type": "uint8[]"
        },
        {
          "name": "_v",
          "type": "bytes1[]"
        },
        {
          "name": "_r",
          "type": "bytes32[]"
        },
        {
          "name": "_s",
          "type": "bytes32[]"
        }
      ],
      "name": "setA",
      "outputs": [],
      "payable": false,
      "stateMutability": "nonpayable",
      "type": "function"
    }
  ],
  "bytecode": "0x60806040526040805190810160405280600581526020017f4f776e6572000000000000000000000000000000000000000000000000000000815250600a90805190602001906200005192919062000211565b506000600c60006101000a81548160ff021916908360ff1602179055506008600c60026101000a81548160ff021916908360ff1602179055506000600c60036101000a81548160ff021916908360ff1602179055506007600c60046101000a81548160ff021916908360ff1602179055506000600c60056101000a81548160ff021916908360ff1602179055506001600d556001600e55603c600f55348015620000fa57600080fd5b5060405160408062001a9583398101806040526200011c9190810190620002ec565b33600860006101000a81548173ffffffffffffffffffffffffffffffffffffffff021916908373ffffffffffffffffffffffffffffffffffffffff160217905550612711600960003373ffffffffffffffffffffffffffffffffffffffff1673ffffffffffffffffffffffffffffffffffffffff16815260200190815260200160002081905550620001bd81620001cf640100000000026401000000009004565b60108160001916905550505062000357565b60008082600e5460405180836000191660001916815260200182815260200192505050604051809103902090506001600e5401600e8190555080915050919050565b828054600181600116156101000203166002900490600052602060002090601f016020900481019282601f106200025457805160ff191683800117855562000285565b8280016001018555821562000285579182015b828111156200028457825182559160200191906001019062000267565b5b50905062000294919062000298565b5090565b620002bd91905b80821115620002b95760008160009055506001016200029f565b5090565b90565b6000620002ce82516200032d565b905092915050565b6000620002e482516200034d565b905092915050565b600080604083850312156200030057600080fd5b60006200031085828601620002c0565b92505060206200032385828601620002d6565b9150509250929050565b600073ffffffffffffffffffffffffffffffffffffffff82169050919050565b6000819050919050565b61172e80620003676000396000f300608060405260043610610099576000357c0100000000000000000000000000000000000000000000000000000000900463ffffffff1680630dbe671f1461009e57806327e235e3146100c957806329f172cb14610106578063616d2463146101355780637ddd39c9146101605780638da5cb5b14610189578063cf81eb27146101b4578063d46300fd146101dd578063f0336a4e1461020a575b600080fd5b3480156100aa57600080fd5b506100b3610235565b6040516100c09190611466565b60405180910390f35b3480156100d557600080fd5b506100f060048036036100eb9190810190610f7d565b61023b565b6040516100fd9190611466565b60405180910390f35b34801561011257600080fd5b5061011b610253565b60405161012c959493929190611351565b60405180910390f35b34801561014157600080fd5b5061014a610332565b6040516101579190611466565b60405180910390f35b34801561016c57600080fd5b5061018760048036036101829190810190610fcf565b610338565b005b34801561019557600080fd5b5061019e610b0a565b6040516101ab9190611336565b60405180910390f35b3480156101c057600080fd5b506101db60048036036101d69190810190610f7d565b610b30565b005b3480156101e957600080fd5b506101f2610b74565b60405161020193929190611481565b60405180910390f35b34801561021657600080fd5b5061021f610bf6565b60405161022c9190611466565b60405180910390f35b600d5481565b60096020528060005260406000206000915090505481565b6000806000806060806040805190810160405280600581526020017f4f776e65720000000000000000000000000000000000000000000000000000008152509050601054600860009054906101000a900473ffffffffffffffffffffffffffffffffffffffff1660096000600860009054906101000a900473ffffffffffffffffffffffffffffffffffffffff1673ffffffffffffffffffffffffffffffffffffffff1673ffffffffffffffffffffffffffffffffffffffff16815260200190815260200160002054600f548495509550955095509550509091929394565b600e5481565b60008090506001885114156103af57600487600081518110151561035857fe5b9060200190602002015114156103745788600d819055506103aa565b600587600081518110151561038557fe5b9060200190602002015114156103a15788600d819055506103a9565b88600d819055505b5b610aff565b5b87518110156104005787818151811015156103c757fe5b90602001906020020151600019166103e66103e130610bfc565b610ce3565b6000191614156103f557610400565b6001810190506103b0565b60006101006040519081016040529081600082018054600181600116156101000203166002900480601f0160208091040260200160405190810160405280929190818152602001828054600181600116156101000203166002900480156104a85780601f1061047d576101008083540402835291602001916104a8565b820191906000526020600020905b81548152906001019060200180831161048b57829003601f168201915b50505050508152602001600182018054600181600116156101000203166002900480601f01602080910402602001604051908101604052809291908181526020018280546001816001161561010002031660029004801561054a5780601f1061051f5761010080835404028352916020019161054a565b820191906000526020600020905b81548152906001019060200180831161052d57829003601f168201915b50505050508152602001600282018054600181600116156101000203166002900480601f0160208091040260200160405190810160405280929190818152602001828054600181600116156101000203166002900480156105ec5780601f106105c1576101008083540402835291602001916105ec565b820191906000526020600020905b8154815290600101906020018083116105cf57829003601f168201915b50505050508152602001600382018054600181600116156101000203166002900480601f01602080910402602001604051908101604052809291908181526020018280546001816001161561010002031660029004801561068e5780601f106106635761010080835404028352916020019161068e565b820191906000526020600020905b81548152906001019060200180831161067157829003601f168201915b50505050508152602001600482018054600181600116156101000203166002900480601f0160208091040260200160405190810160405280929190818152602001828054600181600116156101000203166002900480156107305780601f1061070557610100808354040283529160200191610730565b820191906000526020600020905b81548152906001019060200180831161071357829003601f168201915b50505050508152602001600582018054600181600116156101000203166002900480601f0160208091040260200160405190810160405280929190818152602001828054600181600116156101000203166002900480156107d25780601f106107a7576101008083540402835291602001916107d2565b820191906000526020600020905b8154815290600101906020018083116107b557829003601f168201915b50505050508152602001600682018054600181600116156101000203166002900480601f0160208091040260200160405190810160405280929190818152602001828054600181600116156101000203166002900480156108745780601f1061084957610100808354040283529160200191610874565b820191906000526020600020905b81548152906001019060200180831161085757829003601f168201915b50505050508152602001600782018054600181600116156101000203166002900480601f0160208091040260200160405190810160405280929190818152602001828054600181600116156101000203166002900480156109165780601f106108eb57610100808354040283529160200191610916565b820191906000526020600020905b8154815290600101906020018083116108f957829003601f168201915b50505050508152505073__verify________________________________6315a3b82690918a8481518110151561094957fe5b906020019060200201518a8581518110151561096157fe5b906020019060200201518a8681518110151561097957fe5b906020019060200201518a8781518110151561099157fe5b906020019060200201518a888151811015156109a957fe5b906020019060200201518a898151811015156109c157fe5b906020019060200201518a8a8151811015156109d957fe5b90602001906020020151336000357fffffffff00000000000000000000000000000000000000000000000000000000166000366040518d63ffffffff167c0100000000000000000000000000000000000000000000000000000000028152600401610a4f9c9b9a999897969594939291906113ab565b60206040518083038186803b158015610a6757600080fd5b505af4158015610a7b573d6000803e3d6000fd5b505050506040513d601f19601f82011682018060405250610a9f9190810190610fa6565b73ffffffffffffffffffffffffffffffffffffffff16601160009054906101000a900473ffffffffffffffffffffffffffffffffffffffff1673ffffffffffffffffffffffffffffffffffffffff16141515610af757fe5b88600d819055505b505050505050505050565b600860009054906101000a900473ffffffffffffffffffffffffffffffffffffffff1681565b80601160006101000a81548173ffffffffffffffffffffffffffffffffffffffff021916908373ffffffffffffffffffffffffffffffffffffffff16021790555050565b6000806000600d54600b60405180807f4f776e65720000000000000000000000000000000000000000000000000000008152506005019050908152602001604051809103902060009054906101000a900460ff16601160009054906101000a900473ffffffffffffffffffffffffffffffffffffffff16925092509250909192565b600f5481565b6060600060146040519080825280601f01601f191660200182016040528015610c345781602001602082028038833980820191505090505b509150600090505b6014811015610cdd578060130360080260020a8373ffffffffffffffffffffffffffffffffffffffff16811515610c6f57fe5b047f0100000000000000000000000000000000000000000000000000000000000000028282815181101515610ca057fe5b9060200101907effffffffffffffffffffffffffffffffffffffffffffffffffffffffffffff1916908160001a9053508080600101915050610c3c565b50919050565b600060208201519050919050565b6000610cfd8235611634565b905092915050565b6000610d118251611634565b905092915050565b600082601f8301121515610d2c57600080fd5b8135610d3f610d3a826114e5565b6114b8565b91508181835260208401935060208101905083856020840282011115610d6457600080fd5b60005b83811015610d945781610d7a8882610f2d565b845260208401935060208301925050600181019050610d67565b5050505092915050565b600082601f8301121515610db157600080fd5b8135610dc4610dbf8261150d565b6114b8565b91508181835260208401935060208101905083856020840282011115610de957600080fd5b60005b83811015610e195781610dff8882610f41565b845260208401935060208301925050600181019050610dec565b5050505092915050565b600082601f8301121515610e3657600080fd5b8135610e49610e4482611535565b6114b8565b91508181835260208401935060208101905083856020840282011115610e6e57600080fd5b60005b83811015610e9e5781610e848882610f55565b845260208401935060208301925050600181019050610e71565b5050505092915050565b600082601f8301121515610ebb57600080fd5b8135610ece610ec98261155d565b6114b8565b91508181835260208401935060208101905083856020840282011115610ef357600080fd5b60005b83811015610f235781610f098882610f69565b845260208401935060208301925050600181019050610ef6565b5050505092915050565b6000610f398235611654565b905092915050565b6000610f4d8235611680565b905092915050565b6000610f61823561168a565b905092915050565b6000610f758235611694565b905092915050565b600060208284031215610f8f57600080fd5b6000610f9d84828501610cf1565b91505092915050565b600060208284031215610fb857600080fd5b6000610fc684828501610d05565b91505092915050565b600080600080600080600080610100898b031215610fec57600080fd5b6000610ffa8b828c01610f55565b985050602089013567ffffffffffffffff81111561101757600080fd5b6110238b828c01610d9e565b975050604089013567ffffffffffffffff81111561104057600080fd5b61104c8b828c01610e23565b965050606089013567ffffffffffffffff81111561106957600080fd5b6110758b828c01610e23565b955050608089013567ffffffffffffffff81111561109257600080fd5b61109e8b828c01610ea8565b94505060a089013567ffffffffffffffff8111156110bb57600080fd5b6110c78b828c01610d19565b93505060c089013567ffffffffffffffff8111156110e457600080fd5b6110f08b828c01610d9e565b92505060e089013567ffffffffffffffff81111561110d57600080fd5b6111198b828c01610d9e565b9150509295985092959890939650565b6111328161159b565b82525050565b6111418161159b565b82525050565b611150816115bb565b82525050565b61115f816115e7565b82525050565b61116e816115e7565b82525050565b61117d816115f1565b82525050565b60008284526020840193506111998385846116a1565b6111a2836116e3565b840190509392505050565b60006111b882611590565b8084526111cc8160208601602086016116b0565b6111d5816116e3565b602085010191505092915050565b60006111ee82611585565b8084526112028160208601602086016116b0565b61120b816116e3565b602085010191505092915050565b600061010083016000830151848203600086015261123782826111e3565b9150506020830151848203602086015261125182826111e3565b9150506040830151848203604086015261126b82826111e3565b9150506060830151848203606086015261128582826111e3565b9150506080830151848203608086015261129f82826111e3565b91505060a083015184820360a08601526112b982826111e3565b91505060c083015184820360c08601526112d382826111e3565b91505060e083015184820360e08601526112ed82826111e3565b9150508091505092915050565b6113038161161d565b82525050565b6113128161161d565b82525050565b61132181611627565b82525050565b61133081611627565b82525050565b600060208201905061134b6000830184611129565b92915050565b600060a0820190506113666000830188611156565b6113736020830187611129565b61138060408301866112fa565b61138d60608301856112fa565b818103608083015261139f81846111ad565b90509695505050505050565b60006101608201905081810360008301526113c6818f611219565b90506113d5602083018e611165565b6113e2604083018d611309565b6113ef606083018c611309565b6113fc608083018b611327565b61140960a083018a611147565b61141660c0830189611165565b61142360e0830188611165565b611431610100830187611138565b61143f610120830186611174565b818103610140830152611453818486611183565b90509d9c50505050505050505050505050565b600060208201905061147b60008301846112fa565b92915050565b600060608201905061149660008301866112fa565b6114a36020830185611318565b6114b06040830184611129565b949350505050565b6000604051905081810181811067ffffffffffffffff821117156114db57600080fd5b8060405250919050565b600067ffffffffffffffff8211156114fc57600080fd5b602082029050602081019050919050565b600067ffffffffffffffff82111561152457600080fd5b602082029050602081019050919050565b600067ffffffffffffffff82111561154c57600080fd5b602082029050602081019050919050565b600067ffffffffffffffff82111561157457600080fd5b602082029050602081019050919050565b600081519050919050565b600081519050919050565b600073ffffffffffffffffffffffffffffffffffffffff82169050919050565b60007fff0000000000000000000000000000000000000000000000000000000000000082169050919050565b6000819050919050565b60007fffffffff0000000000000000000000000000000000000000000000000000000082169050919050565b6000819050919050565b600060ff82169050919050565b600073ffffffffffffffffffffffffffffffffffffffff82169050919050565b60007fff0000000000000000000000000000000000000000000000000000000000000082169050919050565b6000819050919050565b6000819050919050565b600060ff82169050919050565b82818337600083830152505050565b60005b838110156116ce5780820151818401526020810190506116b3565b838111156116dd576000848401525b50505050565b6000601f19601f83011690509190505600a265627a7a723058205519f11767e50749375dadc091582df6f647d27376594cb6d2aac9fbdcadfde76c6578706572696d656e74616cf50037",
  "source": "pragma solidity ^0.4.24;\n// import \"./RedBlackTree.sol\";\nimport {Bits} from \"./imported/Bits.sol\";\nimport \"./imported/strings.sol\";\nimport \"./imported/verify.sol\";\npragma experimental \"ABIEncoderV2\";\n\ncontract Owner {\n    verify.Data data;\n    using strings for *;\n    // using verify for *;\n    using verify for verify.Data;\n\n    address public owner;\n    mapping (address => uint) public balances;\n\n    using Bits for uint8;\n    string name = \"Owner\";\n    mapping (string => uint8) bit_map;\n    uint8 recursive_map = 0;\n    uint8 ticket_counter;\n    uint8 fixed_size = 8;\n    uint8 index = 0; \n    uint8 end = 7;\n    uint8 start = 0;\n\n    uint public a = 1;\n    uint public nounce = 1;\n    uint public time_period = 60;\n\n    bytes32 verify_private_key;\n    address verify_public_key;\n    uint access_time;\n    \n    function Owner(address _t,  bytes32 private_key) public {\n        owner = msg.sender;\n        balances[msg.sender] = 10001;\n        verify_private_key = generatePrivateKey(private_key);\n    }\n    \n    function getVerifyPrivateKeyAndPolicy() public returns (bytes32, address, uint, uint, string) {\n        string memory name = \"Owner\";\n        return (verify_private_key, owner, balances[owner], time_period, name);\n    }\n\n    function generatePrivateKey(bytes32 private_key) private returns (bytes32){\n        bytes32 pk = keccak256(private_key, nounce);\n        nounce = nounce + 1;\n        return pk;\n    }\n\n    function setVerifyPublicKey(address public_key) public {\n        verify_public_key = public_key;\n    }\n\n    function moveBuffer(uint8 counter) private returns(uint8){\n        uint8 minimal_size = counter - end;\n        uint8 old_index = index;\n        uint8 move_time = 0;\n\n        // move_time = 0;\n        for (uint8 i=0; i<fixed_size; i++){\n            if (bit_map[name].bit(index) == 0 && (move_time + 1) >= minimal_size){\n                index = (index + 1) % fixed_size;\n                end = end + move_time + 1;\n                start = end - fixed_size + 1;\n                // move = move_time;\n                return (minimal_size + old_index - 1) % fixed_size;\n            }else{\n                uint8 new_bit = bit_map[name].clearBit(index);\n                bit_map[name] = new_bit;\n                index = (index + 1) % fixed_size;\n                move_time += 1;\n            }\n        }\n    }\n\n    function getA() public returns (uint, uint8, address) {\n        return (a, bit_map[\"Owner\"], verify_public_key);\n    }\n\n    function setA(uint _a, bytes32[] _addr, uint[] _type, uint[] _time, uint8[] _index, byte[] _v, bytes32[] _r, bytes32[] _s) public {\n        uint belong_index = 0;\n        if (_addr.length == 1){\n            if (_type[0] == 4){\n                // assert(verify_public_key == data.verifyTickets4(_addr[0], _type[0], _time[0], _index[0],  _v[0],  _r[0], _s[0], msg.sender, msg.sig, msg.gas));\n                a = _a;\n            }else if (_type[0] == 5){\n                // assert(verify_public_key == data.verifyTickets4(_addr[0], _type[0], _time[0], _index[0],  _v[0],  _r[0], _s[0], msg.sender, msg.sig, msg.gas));\n                a = _a;\n            }else {\n                // assert(verify_public_key == data.verifyTickets(_addr[0], _type[0], _time[0], _index[0],  _v[0],  _r[0], _s[0], msg.sender, msg.sig, msg.data));\n                a = _a;\n            }\n        }else{\n            while (belong_index < _addr.length ){\n                if (bytesToBytes32(toBytes(address(this))) == _addr[belong_index]){\n                    break;\n                }\n                belong_index += 1;\n            }\n            assert(verify_public_key == data.verifyTickets(_addr[belong_index], _type[belong_index], _time[belong_index], _index[belong_index],  _v[belong_index],  _r[belong_index], _s[belong_index], msg.sender, msg.sig, msg.data));\n            a = _a;\n        }\n    }\n\n    function bytesToBytes32(bytes memory source) private pure returns (bytes32 result) {\n        assembly { \n            //mload(p) -->  mem[p..(p+32)) \n            result := mload(add(source, 32))\n        }\n    }\n\n    function toBytes(address x) private returns (bytes b) {\n        b = new bytes(20);\n        for (uint i = 0; i < 20; i++)\n            b[i] = byte(uint8(uint(x) / (2**(8*(19 - i)))));\n    }\n}",
  "sourcePath": "/Users/liubowen/sutd/SCticket/code/contracts/Owner.sol",
  "compiler": {
    "name": "solc",
    "version": "0.4.24+commit.e67f0147.Emscripten.clang"
  },
  "schemaVersion": "2.0.1",
  "updatedAt": "2019-03-19T13:20:06.339Z"
}